{
  "_format": "hh-sol-artifact-1",
  "contractName": "PermissionsEnumerable",
  "sourceName": "@thirdweb-dev/contracts/extension/PermissionsEnumerable.sol",
  "abi": [
    {
      "anonymous": false,
      "inputs": [
        {
          "indexed": true,
          "internalType": "bytes32",
          "name": "role",
          "type": "bytes32"
        },
        {
          "indexed": true,
          "internalType": "bytes32",
          "name": "previousAdminRole",
          "type": "bytes32"
        },
        {
          "indexed": true,
          "internalType": "bytes32",
          "name": "newAdminRole",
          "type": "bytes32"
        }
      ],
      "name": "RoleAdminChanged",
      "type": "event"
    },
    {
      "anonymous": false,
      "inputs": [
        {
          "indexed": true,
          "internalType": "bytes32",
          "name": "role",
          "type": "bytes32"
        },
        {
          "indexed": true,
          "internalType": "address",
          "name": "account",
          "type": "address"
        },
        {
          "indexed": true,
          "internalType": "address",
          "name": "sender",
          "type": "address"
        }
      ],
      "name": "RoleGranted",
      "type": "event"
    },
    {
      "anonymous": false,
      "inputs": [
        {
          "indexed": true,
          "internalType": "bytes32",
          "name": "role",
          "type": "bytes32"
        },
        {
          "indexed": true,
          "internalType": "address",
          "name": "account",
          "type": "address"
        },
        {
          "indexed": true,
          "internalType": "address",
          "name": "sender",
          "type": "address"
        }
      ],
      "name": "RoleRevoked",
      "type": "event"
    },
    {
      "inputs": [],
      "name": "DEFAULT_ADMIN_ROLE",
      "outputs": [
        {
          "internalType": "bytes32",
          "name": "",
          "type": "bytes32"
        }
      ],
      "stateMutability": "view",
      "type": "function"
    },
    {
      "inputs": [
        {
          "internalType": "bytes32",
          "name": "role",
          "type": "bytes32"
        }
      ],
      "name": "getRoleAdmin",
      "outputs": [
        {
          "internalType": "bytes32",
          "name": "",
          "type": "bytes32"
        }
      ],
      "stateMutability": "view",
      "type": "function"
    },
    {
      "inputs": [
        {
          "internalType": "bytes32",
          "name": "role",
          "type": "bytes32"
        },
        {
          "internalType": "uint256",
          "name": "index",
          "type": "uint256"
        }
      ],
      "name": "getRoleMember",
      "outputs": [
        {
          "internalType": "address",
          "name": "member",
          "type": "address"
        }
      ],
      "stateMutability": "view",
      "type": "function"
    },
    {
      "inputs": [
        {
          "internalType": "bytes32",
          "name": "role",
          "type": "bytes32"
        }
      ],
      "name": "getRoleMemberCount",
      "outputs": [
        {
          "internalType": "uint256",
          "name": "count",
          "type": "uint256"
        }
      ],
      "stateMutability": "view",
      "type": "function"
    },
    {
      "inputs": [
        {
          "internalType": "bytes32",
          "name": "role",
          "type": "bytes32"
        },
        {
          "internalType": "address",
          "name": "account",
          "type": "address"
        }
      ],
      "name": "grantRole",
      "outputs": [],
      "stateMutability": "nonpayable",
      "type": "function"
    },
    {
      "inputs": [
        {
          "internalType": "bytes32",
          "name": "role",
          "type": "bytes32"
        },
        {
          "internalType": "address",
          "name": "account",
          "type": "address"
        }
      ],
      "name": "hasRole",
      "outputs": [
        {
          "internalType": "bool",
          "name": "",
          "type": "bool"
        }
      ],
      "stateMutability": "view",
      "type": "function"
    },
    {
      "inputs": [
        {
          "internalType": "bytes32",
          "name": "role",
          "type": "bytes32"
        },
        {
          "internalType": "address",
          "name": "account",
          "type": "address"
        }
      ],
      "name": "hasRoleWithSwitch",
      "outputs": [
        {
          "internalType": "bool",
          "name": "",
          "type": "bool"
        }
      ],
      "stateMutability": "view",
      "type": "function"
    },
    {
      "inputs": [
        {
          "internalType": "bytes32",
          "name": "role",
          "type": "bytes32"
        },
        {
          "internalType": "address",
          "name": "account",
          "type": "address"
        }
      ],
      "name": "renounceRole",
      "outputs": [],
      "stateMutability": "nonpayable",
      "type": "function"
    },
    {
      "inputs": [
        {
          "internalType": "bytes32",
          "name": "role",
          "type": "bytes32"
        },
        {
          "internalType": "address",
          "name": "account",
          "type": "address"
        }
      ],
      "name": "revokeRole",
      "outputs": [],
      "stateMutability": "nonpayable",
      "type": "function"
    }
  ],
  "bytecode": "0x608060405234801561001057600080fd5b50610a46806100206000396000f3fe608060405234801561001057600080fd5b50600436106100935760003560e01c806391d148541161006657806391d148541461011e578063a217fddf14610141578063a32fa5b314610149578063ca15c8731461015c578063d547741f1461016f57600080fd5b8063248a9ca3146100985780632f2ff15d146100cb57806336568abe146100e05780639010d07c146100f3575b600080fd5b6100b86100a6366004610839565b60009081526001602052604090205490565b6040519081526020015b60405180910390f35b6100de6100d9366004610852565b610182565b005b6100de6100ee366004610852565b61021f565b61010661010136600461088e565b610281565b6040516001600160a01b0390911681526020016100c2565b61013161012c366004610852565b610370565b60405190151581526020016100c2565b6100b8600081565b610131610157366004610852565b610399565b6100b861016a366004610839565b6103eb565b6100de61017d366004610852565b610474565b60008281526001602052604090205461019b9033610489565b6000828152602081815260408083206001600160a01b038516845290915290205460ff16156102115760405162461bcd60e51b815260206004820152601d60248201527f43616e206f6e6c79206772616e7420746f206e6f6e20686f6c6465727300000060448201526064015b60405180910390fd5b61021b8282610507565b5050565b336001600160a01b038216146102775760405162461bcd60e51b815260206004820152601a60248201527f43616e206f6e6c792072656e6f756e636520666f722073656c660000000000006044820152606401610208565b61021b828261051b565b60008281526002602052604081205481805b828110156103665760008681526002602090815260408083208484526001019091529020546001600160a01b03161561031057848214156102fe5760008681526002602090815260408083209383526001909301905220546001600160a01b0316925061036a915050565b6103096001836108c6565b9150610354565b61031b866000610370565b801561034157506000868152600260208181526040808420848052909201905290205481145b15610354576103516001836108c6565b91505b61035f6001826108c6565b9050610293565b5050505b92915050565b6000918252602082815260408084206001600160a01b0393909316845291905290205460ff1690565b60008281526020818152604080832083805290915281205460ff166103e257506000828152602081815260408083206001600160a01b038516845290915290205460ff1661036a565b50600192915050565b600081815260026020526040812054815b8181101561044f5760008481526002602090815260408083208484526001019091529020546001600160a01b03161561043d5761043a6001846108c6565b92505b6104486001826108c6565b90506103fc565b5061045b836000610370565b1561046e5761046b6001836108c6565b91505b50919050565b60008281526001602052604090205461027790335b6000828152602081815260408083206001600160a01b038516845290915290205460ff1661021b576104c5816001600160a01b03166014610571565b6104d0836020610571565b6040516020016104e192919061090e565b60408051601f198184030181529082905262461bcd60e51b82526102089160040161097b565b6105118282610714565b61021b828261076d565b61052582826107d9565b60009182526002602081815260408085206001600160a01b0394909416808652928401808352818620805487526001909501835290852080546001600160a01b03191690559184525255565b606060006105808360026109ae565b61058b9060026108c6565b67ffffffffffffffff8111156105a3576105a36109cd565b6040519080825280601f01601f1916602001820160405280156105cd576020820181803683370190505b509050600360fc1b816000815181106105e8576105e86109e3565b60200101906001600160f81b031916908160001a905350600f60fb1b81600181518110610617576106176109e3565b60200101906001600160f81b031916908160001a905350600061063b8460026109ae565b6106469060016108c6565b90505b60018111156106be576f181899199a1a9b1b9c1cb0b131b232b360811b85600f166010811061067a5761067a6109e3565b1a60f81b828281518110610690576106906109e3565b60200101906001600160f81b031916908160001a90535060049490941c936106b7816109f9565b9050610649565b50831561070d5760405162461bcd60e51b815260206004820181905260248201527f537472696e67733a20686578206c656e67746820696e73756666696369656e746044820152606401610208565b9392505050565b6000828152602081815260408083206001600160a01b0385168085529252808320805460ff1916600117905551339285917f2f8788117e7eff1d82e926ec794901d17c78024a50270940304540a733656f0d9190a45050565b60008281526002602052604081208054916001919061078c83856108c6565b9091555050600092835260026020818152604080862084875260018101835281872080546001600160a01b039097166001600160a01b031990971687179055948652939091019052912055565b6107e38282610489565b6000828152602081815260408083206001600160a01b0385168085529252808320805460ff1916905551339285917ff6391f5c32d9c69d2a47ea670b442974b53935d1edc7fd64eb21e047a839171b9190a45050565b60006020828403121561084b57600080fd5b5035919050565b6000806040838503121561086557600080fd5b8235915060208301356001600160a01b038116811461088357600080fd5b809150509250929050565b600080604083850312156108a157600080fd5b50508035926020909101359150565b634e487b7160e01b600052601160045260246000fd5b600082198211156108d9576108d96108b0565b500190565b60005b838110156108f95781810151838201526020016108e1565b83811115610908576000848401525b50505050565b7402832b936b4b9b9b4b7b7399d1030b1b1b7bab73a1605d1b81526000835161093e8160158501602088016108de565b7001034b99036b4b9b9b4b733903937b6329607d1b601591840191820152835161096f8160268401602088016108de565b01602601949350505050565b602081526000825180602084015261099a8160408501602087016108de565b601f01601f19169190910160400192915050565b60008160001904831182151516156109c8576109c86108b0565b500290565b634e487b7160e01b600052604160045260246000fd5b634e487b7160e01b600052603260045260246000fd5b600081610a0857610a086108b0565b50600019019056fea2646970667358221220bcfeb4bebfe2a3bd48b74e558cca7b4f41e35acf0f3330832fd6cbd310156cc764736f6c634300080b0033",
  "linkReferences": {},
  "deployedLinkReferences": {}
}