{
  "_format": "hh-sol-artifact-1",
  "contractName": "Medium",
  "sourceName": "contracts/Medium.sol",
  "abi": [
    {
      "inputs": [
        {
          "internalType": "string",
          "name": "name_",
          "type": "string"
        },
        {
          "internalType": "string",
          "name": "symbol_",
          "type": "string"
        },
        {
          "internalType": "uint256",
          "name": "fees_",
          "type": "uint256"
        }
      ],
      "stateMutability": "nonpayable",
      "type": "constructor"
    },
    {
      "anonymous": false,
      "inputs": [
        {
          "indexed": true,
          "internalType": "address",
          "name": "owner",
          "type": "address"
        },
        {
          "indexed": true,
          "internalType": "address",
          "name": "approved",
          "type": "address"
        },
        {
          "indexed": true,
          "internalType": "uint256",
          "name": "tokenId",
          "type": "uint256"
        }
      ],
      "name": "Approval",
      "type": "event"
    },
    {
      "anonymous": false,
      "inputs": [
        {
          "indexed": true,
          "internalType": "address",
          "name": "owner",
          "type": "address"
        },
        {
          "indexed": true,
          "internalType": "address",
          "name": "operator",
          "type": "address"
        },
        {
          "indexed": false,
          "internalType": "bool",
          "name": "approved",
          "type": "bool"
        }
      ],
      "name": "ApprovalForAll",
      "type": "event"
    },
    {
      "anonymous": false,
      "inputs": [
        {
          "indexed": true,
          "internalType": "address",
          "name": "previousOwner",
          "type": "address"
        },
        {
          "indexed": true,
          "internalType": "address",
          "name": "newOwner",
          "type": "address"
        }
      ],
      "name": "OwnershipTransferred",
      "type": "event"
    },
    {
      "anonymous": false,
      "inputs": [
        {
          "indexed": true,
          "internalType": "address",
          "name": "from",
          "type": "address"
        },
        {
          "indexed": true,
          "internalType": "address",
          "name": "to",
          "type": "address"
        },
        {
          "indexed": true,
          "internalType": "uint256",
          "name": "tokenId",
          "type": "uint256"
        }
      ],
      "name": "Transfer",
      "type": "event"
    },
    {
      "inputs": [
        {
          "internalType": "address",
          "name": "to",
          "type": "address"
        },
        {
          "internalType": "uint256",
          "name": "tokenId",
          "type": "uint256"
        }
      ],
      "name": "approve",
      "outputs": [],
      "stateMutability": "nonpayable",
      "type": "function"
    },
    {
      "inputs": [
        {
          "internalType": "address",
          "name": "owner",
          "type": "address"
        }
      ],
      "name": "balanceOf",
      "outputs": [
        {
          "internalType": "uint256",
          "name": "",
          "type": "uint256"
        }
      ],
      "stateMutability": "view",
      "type": "function"
    },
    {
      "inputs": [],
      "name": "fees",
      "outputs": [
        {
          "internalType": "uint256",
          "name": "",
          "type": "uint256"
        }
      ],
      "stateMutability": "view",
      "type": "function"
    },
    {
      "inputs": [
        {
          "internalType": "uint256",
          "name": "tokenId",
          "type": "uint256"
        }
      ],
      "name": "getApproved",
      "outputs": [
        {
          "internalType": "address",
          "name": "",
          "type": "address"
        }
      ],
      "stateMutability": "view",
      "type": "function"
    },
    {
      "inputs": [
        {
          "internalType": "address",
          "name": "owner",
          "type": "address"
        },
        {
          "internalType": "address",
          "name": "operator",
          "type": "address"
        }
      ],
      "name": "isApprovedForAll",
      "outputs": [
        {
          "internalType": "bool",
          "name": "",
          "type": "bool"
        }
      ],
      "stateMutability": "view",
      "type": "function"
    },
    {
      "inputs": [],
      "name": "name",
      "outputs": [
        {
          "internalType": "string",
          "name": "",
          "type": "string"
        }
      ],
      "stateMutability": "view",
      "type": "function"
    },
    {
      "inputs": [],
      "name": "owner",
      "outputs": [
        {
          "internalType": "address",
          "name": "",
          "type": "address"
        }
      ],
      "stateMutability": "view",
      "type": "function"
    },
    {
      "inputs": [
        {
          "internalType": "uint256",
          "name": "tokenId",
          "type": "uint256"
        }
      ],
      "name": "ownerOf",
      "outputs": [
        {
          "internalType": "address",
          "name": "",
          "type": "address"
        }
      ],
      "stateMutability": "view",
      "type": "function"
    },
    {
      "inputs": [],
      "name": "renounceOwnership",
      "outputs": [],
      "stateMutability": "nonpayable",
      "type": "function"
    },
    {
      "inputs": [
        {
          "internalType": "address",
          "name": "to",
          "type": "address"
        },
        {
          "internalType": "string",
          "name": "uri",
          "type": "string"
        }
      ],
      "name": "safeMint",
      "outputs": [],
      "stateMutability": "payable",
      "type": "function"
    },
    {
      "inputs": [
        {
          "internalType": "address",
          "name": "from",
          "type": "address"
        },
        {
          "internalType": "address",
          "name": "to",
          "type": "address"
        },
        {
          "internalType": "uint256",
          "name": "tokenId",
          "type": "uint256"
        }
      ],
      "name": "safeTransferFrom",
      "outputs": [],
      "stateMutability": "nonpayable",
      "type": "function"
    },
    {
      "inputs": [
        {
          "internalType": "address",
          "name": "from",
          "type": "address"
        },
        {
          "internalType": "address",
          "name": "to",
          "type": "address"
        },
        {
          "internalType": "uint256",
          "name": "tokenId",
          "type": "uint256"
        },
        {
          "internalType": "bytes",
          "name": "data",
          "type": "bytes"
        }
      ],
      "name": "safeTransferFrom",
      "outputs": [],
      "stateMutability": "nonpayable",
      "type": "function"
    },
    {
      "inputs": [
        {
          "internalType": "address",
          "name": "operator",
          "type": "address"
        },
        {
          "internalType": "bool",
          "name": "approved",
          "type": "bool"
        }
      ],
      "name": "setApprovalForAll",
      "outputs": [],
      "stateMutability": "nonpayable",
      "type": "function"
    },
    {
      "inputs": [
        {
          "internalType": "bytes4",
          "name": "interfaceId",
          "type": "bytes4"
        }
      ],
      "name": "supportsInterface",
      "outputs": [
        {
          "internalType": "bool",
          "name": "",
          "type": "bool"
        }
      ],
      "stateMutability": "view",
      "type": "function"
    },
    {
      "inputs": [],
      "name": "symbol",
      "outputs": [
        {
          "internalType": "string",
          "name": "",
          "type": "string"
        }
      ],
      "stateMutability": "view",
      "type": "function"
    },
    {
      "inputs": [
        {
          "internalType": "uint256",
          "name": "tokenId",
          "type": "uint256"
        }
      ],
      "name": "tokenURI",
      "outputs": [
        {
          "internalType": "string",
          "name": "",
          "type": "string"
        }
      ],
      "stateMutability": "view",
      "type": "function"
    },
    {
      "inputs": [
        {
          "internalType": "address",
          "name": "from",
          "type": "address"
        },
        {
          "internalType": "address",
          "name": "to",
          "type": "address"
        },
        {
          "internalType": "uint256",
          "name": "tokenId",
          "type": "uint256"
        }
      ],
      "name": "transferFrom",
      "outputs": [],
      "stateMutability": "nonpayable",
      "type": "function"
    },
    {
      "inputs": [
        {
          "internalType": "address",
          "name": "newOwner",
          "type": "address"
        }
      ],
      "name": "transferOwnership",
      "outputs": [],
      "stateMutability": "nonpayable",
      "type": "function"
    }
  ],
  "bytecode": "0x60806040523480156200001157600080fd5b506040516200359b3803806200359b8339818101604052810190620000379190620003f3565b82828160009080519060200190620000519291906200016b565b5080600190805190602001906200006a9291906200016b565b5050506200008d620000816200009d60201b60201c565b620000a560201b60201c565b80600981905550505050620004f2565b600033905090565b6000600760009054906101000a900473ffffffffffffffffffffffffffffffffffffffff16905081600760006101000a81548173ffffffffffffffffffffffffffffffffffffffff021916908373ffffffffffffffffffffffffffffffffffffffff1602179055508173ffffffffffffffffffffffffffffffffffffffff168173ffffffffffffffffffffffffffffffffffffffff167f8be0079c531659141344cd1fd0a4f28419497f9722a3daafe3b4186f6b6457e060405160405180910390a35050565b8280546200017990620004bc565b90600052602060002090601f0160209004810192826200019d5760008555620001e9565b82601f10620001b857805160ff1916838001178555620001e9565b82800160010185558215620001e9579182015b82811115620001e8578251825591602001919060010190620001cb565b5b509050620001f89190620001fc565b5090565b5b8082111562000217576000816000905550600101620001fd565b5090565b6000604051905090565b600080fd5b600080fd5b600080fd5b600080fd5b6000601f19601f8301169050919050565b7f4e487b7100000000000000000000000000000000000000000000000000000000600052604160045260246000fd5b620002848262000239565b810181811067ffffffffffffffff82111715620002a657620002a56200024a565b5b80604052505050565b6000620002bb6200021b565b9050620002c9828262000279565b919050565b600067ffffffffffffffff821115620002ec57620002eb6200024a565b5b620002f78262000239565b9050602081019050919050565b60005b838110156200032457808201518184015260208101905062000307565b8381111562000334576000848401525b50505050565b6000620003516200034b84620002ce565b620002af565b90508281526020810184848401111562000370576200036f62000234565b5b6200037d84828562000304565b509392505050565b600082601f8301126200039d576200039c6200022f565b5b8151620003af8482602086016200033a565b91505092915050565b6000819050919050565b620003cd81620003b8565b8114620003d957600080fd5b50565b600081519050620003ed81620003c2565b92915050565b6000806000606084860312156200040f576200040e62000225565b5b600084015167ffffffffffffffff81111562000430576200042f6200022a565b5b6200043e8682870162000385565b935050602084015167ffffffffffffffff8111156200046257620004616200022a565b5b620004708682870162000385565b92505060406200048386828701620003dc565b9150509250925092565b7f4e487b7100000000000000000000000000000000000000000000000000000000600052602260045260246000fd5b60006002820490506001821680620004d557607f821691505b60208210811415620004ec57620004eb6200048d565b5b50919050565b61309980620005026000396000f3fe6080604052600436106101095760003560e01c80638da5cb5b11610095578063b88d4fde11610064578063b88d4fde14610369578063c87b56dd14610392578063d204c45e146103cf578063e985e9c5146103eb578063f2fde38b1461042857610109565b80638da5cb5b146102bf57806395d89b41146102ea5780639af1d35a14610315578063a22cb4651461034057610109565b806323b872dd116100dc57806323b872dd146101dc57806342842e0e146102055780636352211e1461022e57806370a082311461026b578063715018a6146102a857610109565b806301ffc9a71461010e57806306fdde031461014b578063081812fc14610176578063095ea7b3146101b3575b600080fd5b34801561011a57600080fd5b5061013560048036038101906101309190611fd9565b610451565b6040516101429190612021565b60405180910390f35b34801561015757600080fd5b50610160610533565b60405161016d91906120d5565b60405180910390f35b34801561018257600080fd5b5061019d6004803603810190610198919061212d565b6105c5565b6040516101aa919061219b565b60405180910390f35b3480156101bf57600080fd5b506101da60048036038101906101d591906121e2565b61060b565b005b3480156101e857600080fd5b5061020360048036038101906101fe9190612222565b610723565b005b34801561021157600080fd5b5061022c60048036038101906102279190612222565b610783565b005b34801561023a57600080fd5b506102556004803603810190610250919061212d565b6107a3565b604051610262919061219b565b60405180910390f35b34801561027757600080fd5b50610292600480360381019061028d9190612275565b61082a565b60405161029f91906122b1565b60405180910390f35b3480156102b457600080fd5b506102bd6108e2565b005b3480156102cb57600080fd5b506102d46108f6565b6040516102e1919061219b565b60405180910390f35b3480156102f657600080fd5b506102ff610920565b60405161030c91906120d5565b60405180910390f35b34801561032157600080fd5b5061032a6109b2565b60405161033791906122b1565b60405180910390f35b34801561034c57600080fd5b50610367600480360381019061036291906122f8565b6109b8565b005b34801561037557600080fd5b50610390600480360381019061038b919061246d565b6109ce565b005b34801561039e57600080fd5b506103b960048036038101906103b4919061212d565b610a30565b6040516103c691906120d5565b60405180910390f35b6103e960048036038101906103e49190612591565b610a42565b005b3480156103f757600080fd5b50610412600480360381019061040d91906125ed565b610b5f565b60405161041f9190612021565b60405180910390f35b34801561043457600080fd5b5061044f600480360381019061044a9190612275565b610bf3565b005b60007f80ac58cd000000000000000000000000000000000000000000000000000000007bffffffffffffffffffffffffffffffffffffffffffffffffffffffff1916827bffffffffffffffffffffffffffffffffffffffffffffffffffffffff1916148061051c57507f5b5e139f000000000000000000000000000000000000000000000000000000007bffffffffffffffffffffffffffffffffffffffffffffffffffffffff1916827bffffffffffffffffffffffffffffffffffffffffffffffffffffffff1916145b8061052c575061052b82610c77565b5b9050919050565b6060600080546105429061265c565b80601f016020809104026020016040519081016040528092919081815260200182805461056e9061265c565b80156105bb5780601f10610590576101008083540402835291602001916105bb565b820191906000526020600020905b81548152906001019060200180831161059e57829003601f168201915b5050505050905090565b60006105d082610ce1565b6004600083815260200190815260200160002060009054906101000a900473ffffffffffffffffffffffffffffffffffffffff169050919050565b6000610616826107a3565b90508073ffffffffffffffffffffffffffffffffffffffff168373ffffffffffffffffffffffffffffffffffffffff161415610687576040517f08c379a000000000000000000000000000000000000000000000000000000000815260040161067e90612700565b60405180910390fd5b8073ffffffffffffffffffffffffffffffffffffffff166106a6610d2c565b73ffffffffffffffffffffffffffffffffffffffff1614806106d557506106d4816106cf610d2c565b610b5f565b5b610714576040517f08c379a000000000000000000000000000000000000000000000000000000000815260040161070b90612792565b60405180910390fd5b61071e8383610d34565b505050565b61073461072e610d2c565b82610ded565b610773576040517f08c379a000000000000000000000000000000000000000000000000000000000815260040161076a90612824565b60405180910390fd5b61077e838383610e82565b505050565b61079e838383604051806020016040528060008152506109ce565b505050565b6000806107af8361117c565b9050600073ffffffffffffffffffffffffffffffffffffffff168173ffffffffffffffffffffffffffffffffffffffff161415610821576040517f08c379a000000000000000000000000000000000000000000000000000000000815260040161081890612890565b60405180910390fd5b80915050919050565b60008073ffffffffffffffffffffffffffffffffffffffff168273ffffffffffffffffffffffffffffffffffffffff16141561089b576040517f08c379a000000000000000000000000000000000000000000000000000000000815260040161089290612922565b60405180910390fd5b600360008373ffffffffffffffffffffffffffffffffffffffff1673ffffffffffffffffffffffffffffffffffffffff168152602001908152602001600020549050919050565b6108ea6111b9565b6108f46000611237565b565b6000600760009054906101000a900473ffffffffffffffffffffffffffffffffffffffff16905090565b60606001805461092f9061265c565b80601f016020809104026020016040519081016040528092919081815260200182805461095b9061265c565b80156109a85780601f1061097d576101008083540402835291602001916109a8565b820191906000526020600020905b81548152906001019060200180831161098b57829003601f168201915b5050505050905090565b60095481565b6109ca6109c3610d2c565b83836112fd565b5050565b6109df6109d9610d2c565b83610ded565b610a1e576040517f08c379a0000000000000000000000000000000000000000000000000000000008152600401610a1590612824565b60405180910390fd5b610a2a8484848461146a565b50505050565b6060610a3b826114c6565b9050919050565b600954341015610a87576040517f08c379a0000000000000000000000000000000000000000000000000000000008152600401610a7e9061298e565b60405180910390fd5b610a8f6108f6565b73ffffffffffffffffffffffffffffffffffffffff166108fc6009549081150290604051600060405180830381858888f19350505050158015610ad6573d6000803e3d6000fd5b506000610ae360086115d9565b9050610aef60086115e7565b610af983826115fd565b610b03818361161b565b60004790506000811115610b59573373ffffffffffffffffffffffffffffffffffffffff166108fc479081150290604051600060405180830381858888f19350505050158015610b57573d6000803e3d6000fd5b505b50505050565b6000600560008473ffffffffffffffffffffffffffffffffffffffff1673ffffffffffffffffffffffffffffffffffffffff16815260200190815260200160002060008373ffffffffffffffffffffffffffffffffffffffff1673ffffffffffffffffffffffffffffffffffffffff16815260200190815260200160002060009054906101000a900460ff16905092915050565b610bfb6111b9565b600073ffffffffffffffffffffffffffffffffffffffff168173ffffffffffffffffffffffffffffffffffffffff161415610c6b576040517f08c379a0000000000000000000000000000000000000000000000000000000008152600401610c6290612a20565b60405180910390fd5b610c7481611237565b50565b60007f01ffc9a7000000000000000000000000000000000000000000000000000000007bffffffffffffffffffffffffffffffffffffffffffffffffffffffff1916827bffffffffffffffffffffffffffffffffffffffffffffffffffffffff1916149050919050565b610cea8161168f565b610d29576040517f08c379a0000000000000000000000000000000000000000000000000000000008152600401610d2090612890565b60405180910390fd5b50565b600033905090565b816004600083815260200190815260200160002060006101000a81548173ffffffffffffffffffffffffffffffffffffffff021916908373ffffffffffffffffffffffffffffffffffffffff160217905550808273ffffffffffffffffffffffffffffffffffffffff16610da7836107a3565b73ffffffffffffffffffffffffffffffffffffffff167f8c5be1e5ebec7d5bd14f71427d1e84f3dd0314c0f7b2291e5b200ac8c7c3b92560405160405180910390a45050565b600080610df9836107a3565b90508073ffffffffffffffffffffffffffffffffffffffff168473ffffffffffffffffffffffffffffffffffffffff161480610e3b5750610e3a8185610b5f565b5b80610e7957508373ffffffffffffffffffffffffffffffffffffffff16610e61846105c5565b73ffffffffffffffffffffffffffffffffffffffff16145b91505092915050565b8273ffffffffffffffffffffffffffffffffffffffff16610ea2826107a3565b73ffffffffffffffffffffffffffffffffffffffff1614610ef8576040517f08c379a0000000000000000000000000000000000000000000000000000000008152600401610eef90612ab2565b60405180910390fd5b600073ffffffffffffffffffffffffffffffffffffffff168273ffffffffffffffffffffffffffffffffffffffff161415610f68576040517f08c379a0000000000000000000000000000000000000000000000000000000008152600401610f5f90612b44565b60405180910390fd5b610f7583838360016116d0565b8273ffffffffffffffffffffffffffffffffffffffff16610f95826107a3565b73ffffffffffffffffffffffffffffffffffffffff1614610feb576040517f08c379a0000000000000000000000000000000000000000000000000000000008152600401610fe290612ab2565b60405180910390fd5b6004600082815260200190815260200160002060006101000a81549073ffffffffffffffffffffffffffffffffffffffff02191690556001600360008573ffffffffffffffffffffffffffffffffffffffff1673ffffffffffffffffffffffffffffffffffffffff168152602001908152602001600020600082825403925050819055506001600360008473ffffffffffffffffffffffffffffffffffffffff1673ffffffffffffffffffffffffffffffffffffffff16815260200190815260200160002060008282540192505081905550816002600083815260200190815260200160002060006101000a81548173ffffffffffffffffffffffffffffffffffffffff021916908373ffffffffffffffffffffffffffffffffffffffff160217905550808273ffffffffffffffffffffffffffffffffffffffff168473ffffffffffffffffffffffffffffffffffffffff167fddf252ad1be2c89b69c2b068fc378daa952ba7f163c4a11628f55a4df523b3ef60405160405180910390a461117783838360016117f6565b505050565b60006002600083815260200190815260200160002060009054906101000a900473ffffffffffffffffffffffffffffffffffffffff169050919050565b6111c1610d2c565b73ffffffffffffffffffffffffffffffffffffffff166111df6108f6565b73ffffffffffffffffffffffffffffffffffffffff1614611235576040517f08c379a000000000000000000000000000000000000000000000000000000000815260040161122c90612bb0565b60405180910390fd5b565b6000600760009054906101000a900473ffffffffffffffffffffffffffffffffffffffff16905081600760006101000a81548173ffffffffffffffffffffffffffffffffffffffff021916908373ffffffffffffffffffffffffffffffffffffffff1602179055508173ffffffffffffffffffffffffffffffffffffffff168173ffffffffffffffffffffffffffffffffffffffff167f8be0079c531659141344cd1fd0a4f28419497f9722a3daafe3b4186f6b6457e060405160405180910390a35050565b8173ffffffffffffffffffffffffffffffffffffffff168373ffffffffffffffffffffffffffffffffffffffff16141561136c576040517f08c379a000000000000000000000000000000000000000000000000000000000815260040161136390612c1c565b60405180910390fd5b80600560008573ffffffffffffffffffffffffffffffffffffffff1673ffffffffffffffffffffffffffffffffffffffff16815260200190815260200160002060008473ffffffffffffffffffffffffffffffffffffffff1673ffffffffffffffffffffffffffffffffffffffff16815260200190815260200160002060006101000a81548160ff0219169083151502179055508173ffffffffffffffffffffffffffffffffffffffff168373ffffffffffffffffffffffffffffffffffffffff167f17307eab39ab6107e8899845ad3d59bd9653f200f220920489ca2b5937696c318360405161145d9190612021565b60405180910390a3505050565b611475848484610e82565b611481848484846117fc565b6114c0576040517f08c379a00000000000000000000000000000000000000000000000000000000081526004016114b790612cae565b60405180910390fd5b50505050565b60606114d182610ce1565b60006006600084815260200190815260200160002080546114f19061265c565b80601f016020809104026020016040519081016040528092919081815260200182805461151d9061265c565b801561156a5780601f1061153f5761010080835404028352916020019161156a565b820191906000526020600020905b81548152906001019060200180831161154d57829003601f168201915b50505050509050600061157b611984565b90506000815114156115915781925050506115d4565b6000825111156115c65780826040516020016115ae929190612d0a565b604051602081830303815290604052925050506115d4565b6115cf8461199b565b925050505b919050565b600081600001549050919050565b6001816000016000828254019250508190555050565b611617828260405180602001604052806000815250611a03565b5050565b6116248261168f565b611663576040517f08c379a000000000000000000000000000000000000000000000000000000000815260040161165a90612da0565b60405180910390fd5b8060066000848152602001908152602001600020908051906020019061168a929190611eca565b505050565b60008073ffffffffffffffffffffffffffffffffffffffff166116b18361117c565b73ffffffffffffffffffffffffffffffffffffffff1614159050919050565b60018111156117f057600073ffffffffffffffffffffffffffffffffffffffff168473ffffffffffffffffffffffffffffffffffffffff16146117645780600360008673ffffffffffffffffffffffffffffffffffffffff1673ffffffffffffffffffffffffffffffffffffffff168152602001908152602001600020600082825461175c9190612def565b925050819055505b600073ffffffffffffffffffffffffffffffffffffffff168373ffffffffffffffffffffffffffffffffffffffff16146117ef5780600360008573ffffffffffffffffffffffffffffffffffffffff1673ffffffffffffffffffffffffffffffffffffffff16815260200190815260200160002060008282546117e79190612e23565b925050819055505b5b50505050565b50505050565b600061181d8473ffffffffffffffffffffffffffffffffffffffff16611a5e565b15611977578373ffffffffffffffffffffffffffffffffffffffff1663150b7a02611846610d2c565b8786866040518563ffffffff1660e01b81526004016118689493929190612ece565b6020604051808303816000875af19250505080156118a457506040513d601f19601f820116820180604052508101906118a19190612f2f565b60015b611927573d80600081146118d4576040519150601f19603f3d011682016040523d82523d6000602084013e6118d9565b606091505b5060008151141561191f576040517f08c379a000000000000000000000000000000000000000000000000000000000815260040161191690612cae565b60405180910390fd5b805181602001fd5b63150b7a0260e01b7bffffffffffffffffffffffffffffffffffffffffffffffffffffffff1916817bffffffffffffffffffffffffffffffffffffffffffffffffffffffff19161491505061197c565b600190505b949350505050565b606060405180602001604052806000815250905090565b60606119a682610ce1565b60006119b0611984565b905060008151116119d057604051806020016040528060008152506119fb565b806119da84611a81565b6040516020016119eb929190612d0a565b6040516020818303038152906040525b915050919050565b611a0d8383611b59565b611a1a60008484846117fc565b611a59576040517f08c379a0000000000000000000000000000000000000000000000000000000008152600401611a5090612cae565b60405180910390fd5b505050565b6000808273ffffffffffffffffffffffffffffffffffffffff163b119050919050565b606060006001611a9084611d77565b01905060008167ffffffffffffffff811115611aaf57611aae612342565b5b6040519080825280601f01601f191660200182016040528015611ae15781602001600182028036833780820191505090505b509050600082602001820190505b600115611b4e578080600190039150507f3031323334353637383961626364656600000000000000000000000000000000600a86061a8153600a8581611b3857611b37612f5c565b5b0494506000851415611b4957611b4e565b611aef565b819350505050919050565b600073ffffffffffffffffffffffffffffffffffffffff168273ffffffffffffffffffffffffffffffffffffffff161415611bc9576040517f08c379a0000000000000000000000000000000000000000000000000000000008152600401611bc090612fd7565b60405180910390fd5b611bd28161168f565b15611c12576040517f08c379a0000000000000000000000000000000000000000000000000000000008152600401611c0990613043565b60405180910390fd5b611c206000838360016116d0565b611c298161168f565b15611c69576040517f08c379a0000000000000000000000000000000000000000000000000000000008152600401611c6090613043565b60405180910390fd5b6001600360008473ffffffffffffffffffffffffffffffffffffffff1673ffffffffffffffffffffffffffffffffffffffff16815260200190815260200160002060008282540192505081905550816002600083815260200190815260200160002060006101000a81548173ffffffffffffffffffffffffffffffffffffffff021916908373ffffffffffffffffffffffffffffffffffffffff160217905550808273ffffffffffffffffffffffffffffffffffffffff16600073ffffffffffffffffffffffffffffffffffffffff167fddf252ad1be2c89b69c2b068fc378daa952ba7f163c4a11628f55a4df523b3ef60405160405180910390a4611d736000838360016117f6565b5050565b600080600090507a184f03e93ff9f4daa797ed6e38ed64bf6a1f0100000000000000008310611dd5577a184f03e93ff9f4daa797ed6e38ed64bf6a1f0100000000000000008381611dcb57611dca612f5c565b5b0492506040810190505b6d04ee2d6d415b85acef81000000008310611e12576d04ee2d6d415b85acef81000000008381611e0857611e07612f5c565b5b0492506020810190505b662386f26fc100008310611e4157662386f26fc100008381611e3757611e36612f5c565b5b0492506010810190505b6305f5e1008310611e6a576305f5e1008381611e6057611e5f612f5c565b5b0492506008810190505b6127108310611e8f576127108381611e8557611e84612f5c565b5b0492506004810190505b60648310611eb25760648381611ea857611ea7612f5c565b5b0492506002810190505b600a8310611ec1576001810190505b80915050919050565b828054611ed69061265c565b90600052602060002090601f016020900481019282611ef85760008555611f3f565b82601f10611f1157805160ff1916838001178555611f3f565b82800160010185558215611f3f579182015b82811115611f3e578251825591602001919060010190611f23565b5b509050611f4c9190611f50565b5090565b5b80821115611f69576000816000905550600101611f51565b5090565b6000604051905090565b600080fd5b600080fd5b60007fffffffff0000000000000000000000000000000000000000000000000000000082169050919050565b611fb681611f81565b8114611fc157600080fd5b50565b600081359050611fd381611fad565b92915050565b600060208284031215611fef57611fee611f77565b5b6000611ffd84828501611fc4565b91505092915050565b60008115159050919050565b61201b81612006565b82525050565b60006020820190506120366000830184612012565b92915050565b600081519050919050565b600082825260208201905092915050565b60005b8381101561207657808201518184015260208101905061205b565b83811115612085576000848401525b50505050565b6000601f19601f8301169050919050565b60006120a78261203c565b6120b18185612047565b93506120c1818560208601612058565b6120ca8161208b565b840191505092915050565b600060208201905081810360008301526120ef818461209c565b905092915050565b6000819050919050565b61210a816120f7565b811461211557600080fd5b50565b60008135905061212781612101565b92915050565b60006020828403121561214357612142611f77565b5b600061215184828501612118565b91505092915050565b600073ffffffffffffffffffffffffffffffffffffffff82169050919050565b60006121858261215a565b9050919050565b6121958161217a565b82525050565b60006020820190506121b0600083018461218c565b92915050565b6121bf8161217a565b81146121ca57600080fd5b50565b6000813590506121dc816121b6565b92915050565b600080604083850312156121f9576121f8611f77565b5b6000612207858286016121cd565b925050602061221885828601612118565b9150509250929050565b60008060006060848603121561223b5761223a611f77565b5b6000612249868287016121cd565b935050602061225a868287016121cd565b925050604061226b86828701612118565b9150509250925092565b60006020828403121561228b5761228a611f77565b5b6000612299848285016121cd565b91505092915050565b6122ab816120f7565b82525050565b60006020820190506122c660008301846122a2565b92915050565b6122d581612006565b81146122e057600080fd5b50565b6000813590506122f2816122cc565b92915050565b6000806040838503121561230f5761230e611f77565b5b600061231d858286016121cd565b925050602061232e858286016122e3565b9150509250929050565b600080fd5b600080fd5b7f4e487b7100000000000000000000000000000000000000000000000000000000600052604160045260246000fd5b61237a8261208b565b810181811067ffffffffffffffff8211171561239957612398612342565b5b80604052505050565b60006123ac611f6d565b90506123b88282612371565b919050565b600067ffffffffffffffff8211156123d8576123d7612342565b5b6123e18261208b565b9050602081019050919050565b82818337600083830152505050565b600061241061240b846123bd565b6123a2565b90508281526020810184848401111561242c5761242b61233d565b5b6124378482856123ee565b509392505050565b600082601f83011261245457612453612338565b5b81356124648482602086016123fd565b91505092915050565b6000806000806080858703121561248757612486611f77565b5b6000612495878288016121cd565b94505060206124a6878288016121cd565b93505060406124b787828801612118565b925050606085013567ffffffffffffffff8111156124d8576124d7611f7c565b5b6124e48782880161243f565b91505092959194509250565b600067ffffffffffffffff82111561250b5761250a612342565b5b6125148261208b565b9050602081019050919050565b600061253461252f846124f0565b6123a2565b9050828152602081018484840111156125505761254f61233d565b5b61255b8482856123ee565b509392505050565b600082601f83011261257857612577612338565b5b8135612588848260208601612521565b91505092915050565b600080604083850312156125a8576125a7611f77565b5b60006125b6858286016121cd565b925050602083013567ffffffffffffffff8111156125d7576125d6611f7c565b5b6125e385828601612563565b9150509250929050565b6000806040838503121561260457612603611f77565b5b6000612612858286016121cd565b9250506020612623858286016121cd565b9150509250929050565b7f4e487b7100000000000000000000000000000000000000000000000000000000600052602260045260246000fd5b6000600282049050600182168061267457607f821691505b602082108114156126885761268761262d565b5b50919050565b7f4552433732313a20617070726f76616c20746f2063757272656e74206f776e6560008201527f7200000000000000000000000000000000000000000000000000000000000000602082015250565b60006126ea602183612047565b91506126f58261268e565b604082019050919050565b60006020820190508181036000830152612719816126dd565b9050919050565b7f4552433732313a20617070726f76652063616c6c6572206973206e6f7420746f60008201527f6b656e206f776e6572206f7220617070726f76656420666f7220616c6c000000602082015250565b600061277c603d83612047565b915061278782612720565b604082019050919050565b600060208201905081810360008301526127ab8161276f565b9050919050565b7f4552433732313a2063616c6c6572206973206e6f7420746f6b656e206f776e6560008201527f72206f7220617070726f76656400000000000000000000000000000000000000602082015250565b600061280e602d83612047565b9150612819826127b2565b604082019050919050565b6000602082019050818103600083015261283d81612801565b9050919050565b7f4552433732313a20696e76616c696420746f6b656e2049440000000000000000600082015250565b600061287a601883612047565b915061288582612844565b602082019050919050565b600060208201905081810360008301526128a98161286d565b9050919050565b7f4552433732313a2061646472657373207a65726f206973206e6f74206120766160008201527f6c6964206f776e65720000000000000000000000000000000000000000000000602082015250565b600061290c602983612047565b9150612917826128b0565b604082019050919050565b6000602082019050818103600083015261293b816128ff565b9050919050565b7f4e6f7420656e6f756768204d4154494300000000000000000000000000000000600082015250565b6000612978601083612047565b915061298382612942565b602082019050919050565b600060208201905081810360008301526129a78161296b565b9050919050565b7f4f776e61626c653a206e6577206f776e657220697320746865207a65726f206160008201527f6464726573730000000000000000000000000000000000000000000000000000602082015250565b6000612a0a602683612047565b9150612a15826129ae565b604082019050919050565b60006020820190508181036000830152612a39816129fd565b9050919050565b7f4552433732313a207472616e736665722066726f6d20696e636f72726563742060008201527f6f776e6572000000000000000000000000000000000000000000000000000000602082015250565b6000612a9c602583612047565b9150612aa782612a40565b604082019050919050565b60006020820190508181036000830152612acb81612a8f565b9050919050565b7f4552433732313a207472616e7366657220746f20746865207a65726f2061646460008201527f7265737300000000000000000000000000000000000000000000000000000000602082015250565b6000612b2e602483612047565b9150612b3982612ad2565b604082019050919050565b60006020820190508181036000830152612b5d81612b21565b9050919050565b7f4f776e61626c653a2063616c6c6572206973206e6f7420746865206f776e6572600082015250565b6000612b9a602083612047565b9150612ba582612b64565b602082019050919050565b60006020820190508181036000830152612bc981612b8d565b9050919050565b7f4552433732313a20617070726f766520746f2063616c6c657200000000000000600082015250565b6000612c06601983612047565b9150612c1182612bd0565b602082019050919050565b60006020820190508181036000830152612c3581612bf9565b9050919050565b7f4552433732313a207472616e7366657220746f206e6f6e20455243373231526560008201527f63656976657220696d706c656d656e7465720000000000000000000000000000602082015250565b6000612c98603283612047565b9150612ca382612c3c565b604082019050919050565b60006020820190508181036000830152612cc781612c8b565b9050919050565b600081905092915050565b6000612ce48261203c565b612cee8185612cce565b9350612cfe818560208601612058565b80840191505092915050565b6000612d168285612cd9565b9150612d228284612cd9565b91508190509392505050565b7f45524337323155524953746f726167653a2055524920736574206f66206e6f6e60008201527f6578697374656e7420746f6b656e000000000000000000000000000000000000602082015250565b6000612d8a602e83612047565b9150612d9582612d2e565b604082019050919050565b60006020820190508181036000830152612db981612d7d565b9050919050565b7f4e487b7100000000000000000000000000000000000000000000000000000000600052601160045260246000fd5b6000612dfa826120f7565b9150612e05836120f7565b925082821015612e1857612e17612dc0565b5b828203905092915050565b6000612e2e826120f7565b9150612e39836120f7565b9250827fffffffffffffffffffffffffffffffffffffffffffffffffffffffffffffffff03821115612e6e57612e6d612dc0565b5b828201905092915050565b600081519050919050565b600082825260208201905092915050565b6000612ea082612e79565b612eaa8185612e84565b9350612eba818560208601612058565b612ec38161208b565b840191505092915050565b6000608082019050612ee3600083018761218c565b612ef0602083018661218c565b612efd60408301856122a2565b8181036060830152612f0f8184612e95565b905095945050505050565b600081519050612f2981611fad565b92915050565b600060208284031215612f4557612f44611f77565b5b6000612f5384828501612f1a565b91505092915050565b7f4e487b7100000000000000000000000000000000000000000000000000000000600052601260045260246000fd5b7f4552433732313a206d696e7420746f20746865207a65726f2061646472657373600082015250565b6000612fc1602083612047565b9150612fcc82612f8b565b602082019050919050565b60006020820190508181036000830152612ff081612fb4565b9050919050565b7f4552433732313a20746f6b656e20616c7265616479206d696e74656400000000600082015250565b600061302d601c83612047565b915061303882612ff7565b602082019050919050565b6000602082019050818103600083015261305c81613020565b905091905056fea26469706673582212201127bc293a9d168dc9c0c4b7f644176840d9142a66dd8994552760f6658208dc64736f6c634300080b0033",
  "linkReferences": {},
  "deployedLinkReferences": {}
}