{
  "_format": "hh-sol-artifact-1",
  "contractName": "Mining",
  "sourceName": "contracts/Mining.sol",
  "abi": [
    {
      "inputs": [
        {
          "internalType": "contract DropERC1155",
          "name": "multitoolContractAddress",
          "type": "address"
        },
        {
          "internalType": "contract TokenERC20",
          "name": "gemsContractAddress",
          "type": "address"
        }
      ],
      "stateMutability": "nonpayable",
      "type": "constructor"
    },
    {
      "inputs": [
        {
          "internalType": "address",
          "name": "_player",
          "type": "address"
        }
      ],
      "name": "calculateRewards",
      "outputs": [
        {
          "internalType": "uint256",
          "name": "_rewards",
          "type": "uint256"
        }
      ],
      "stateMutability": "view",
      "type": "function"
    },
    {
      "inputs": [],
      "name": "claim",
      "outputs": [],
      "stateMutability": "nonpayable",
      "type": "function"
    },
    {
      "inputs": [],
      "name": "multitoolNftCollection",
      "outputs": [
        {
          "internalType": "contract DropERC1155",
          "name": "",
          "type": "address"
        }
      ],
      "stateMutability": "view",
      "type": "function"
    },
    {
      "inputs": [
        {
          "internalType": "address",
          "name": "",
          "type": "address"
        },
        {
          "internalType": "address",
          "name": "",
          "type": "address"
        },
        {
          "internalType": "uint256[]",
          "name": "",
          "type": "uint256[]"
        },
        {
          "internalType": "uint256[]",
          "name": "",
          "type": "uint256[]"
        },
        {
          "internalType": "bytes",
          "name": "",
          "type": "bytes"
        }
      ],
      "name": "onERC1155BatchReceived",
      "outputs": [
        {
          "internalType": "bytes4",
          "name": "",
          "type": "bytes4"
        }
      ],
      "stateMutability": "nonpayable",
      "type": "function"
    },
    {
      "inputs": [
        {
          "internalType": "address",
          "name": "",
          "type": "address"
        },
        {
          "internalType": "address",
          "name": "",
          "type": "address"
        },
        {
          "internalType": "uint256",
          "name": "",
          "type": "uint256"
        },
        {
          "internalType": "uint256",
          "name": "",
          "type": "uint256"
        },
        {
          "internalType": "bytes",
          "name": "",
          "type": "bytes"
        }
      ],
      "name": "onERC1155Received",
      "outputs": [
        {
          "internalType": "bytes4",
          "name": "",
          "type": "bytes4"
        }
      ],
      "stateMutability": "nonpayable",
      "type": "function"
    },
    {
      "inputs": [
        {
          "internalType": "address",
          "name": "",
          "type": "address"
        }
      ],
      "name": "playerLastUpdate",
      "outputs": [
        {
          "internalType": "bool",
          "name": "isData",
          "type": "bool"
        },
        {
          "internalType": "uint256",
          "name": "value",
          "type": "uint256"
        }
      ],
      "stateMutability": "view",
      "type": "function"
    },
    {
      "inputs": [
        {
          "internalType": "address",
          "name": "",
          "type": "address"
        }
      ],
      "name": "playermultitool",
      "outputs": [
        {
          "internalType": "bool",
          "name": "isData",
          "type": "bool"
        },
        {
          "internalType": "uint256",
          "name": "value",
          "type": "uint256"
        }
      ],
      "stateMutability": "view",
      "type": "function"
    },
    {
      "inputs": [],
      "name": "rewardsToken",
      "outputs": [
        {
          "internalType": "contract TokenERC20",
          "name": "",
          "type": "address"
        }
      ],
      "stateMutability": "view",
      "type": "function"
    },
    {
      "inputs": [
        {
          "internalType": "uint256",
          "name": "_tokenId",
          "type": "uint256"
        }
      ],
      "name": "stake",
      "outputs": [],
      "stateMutability": "nonpayable",
      "type": "function"
    },
    {
      "inputs": [
        {
          "internalType": "bytes4",
          "name": "interfaceId",
          "type": "bytes4"
        }
      ],
      "name": "supportsInterface",
      "outputs": [
        {
          "internalType": "bool",
          "name": "",
          "type": "bool"
        }
      ],
      "stateMutability": "view",
      "type": "function"
    },
    {
      "inputs": [],
      "name": "withdraw",
      "outputs": [],
      "stateMutability": "nonpayable",
      "type": "function"
    }
  ],
  "bytecode": "0x60c060405234801561001057600080fd5b50604051610eb6380380610eb683398101604081905261002f91610063565b60016000556001600160a01b039182166080521660a05261009d565b6001600160a01b038116811461006057600080fd5b50565b6000806040838503121561007657600080fd5b82516100818161004b565b60208401519092506100928161004b565b809150509250929050565b60805160a051610dc36100f3600039600081816101dc01528181610328015281816104a201526107f0015260008181610165015281816103ca0152818161062a0152818161075e01526108bc0152610dc36000f3fe608060405234801561001057600080fd5b50600436106100a95760003560e01c8063a694fc3a11610071578063a694fc3a1461014d578063ae71c1de14610160578063bc197c811461019f578063d1af0c7d146101d7578063f23a6e61146101fe578063fc9d756b1461021d57600080fd5b806301ffc9a7146100ae5780633ccfd60b146100d65780634e71d92d146100e057806364ab8675146100e85780638194aa7714610109575b600080fd5b6100c16100bc3660046109c9565b61024a565b60405190151581526020015b60405180910390f35b6100de610281565b005b6100de610470565b6100fb6100f6366004610a16565b610543565b6040519081526020016100cd565b610136610117366004610a16565b6002602052600090815260409020805460019091015460ff9091169082565b6040805192151583526020830191909152016100cd565b6100de61015b366004610a31565b610604565b6101877f000000000000000000000000000000000000000000000000000000000000000081565b6040516001600160a01b0390911681526020016100cd565b6101be6101ad366004610b81565b63bc197c8160e01b95945050505050565b6040516001600160e01b031990911681526020016100cd565b6101877f000000000000000000000000000000000000000000000000000000000000000081565b6101be61020c366004610c2b565b63f23a6e6160e01b95945050505050565b61013661022b366004610a16565b6001602081905260009182526040909120805491015460ff9091169082565b60006001600160e01b03198216630271189760e51b148061027b57506301ffc9a760e01b6001600160e01b03198316145b92915050565b610289610968565b3360009081526001602052604090205460ff166102fe5760405162461bcd60e51b815260206004820152602860248201527f596f7520646f206e6f7420686176652061206d756c7469746f6f6c20746f207760448201526734ba34323930bb9760c11b60648201526084015b60405180910390fd5b600061030933610543565b60405163a9059cbb60e01b8152336004820152602481018290529091507f00000000000000000000000000000000000000000000000000000000000000006001600160a01b03169063a9059cbb906044016020604051808303816000875af1158015610379573d6000803e3d6000fd5b505050506040513d601f19601f8201168201806040525081019061039d9190610c90565b50336000818152600160208190526040918290208101549151637921219560e11b81526001600160a01b037f0000000000000000000000000000000000000000000000000000000000000000169363f242432a936103ff933093600401610cb2565b600060405180830381600087803b15801561041957600080fd5b505af115801561042d573d6000803e3d6000fd5b5050336000908152600160208181526040808420805460ff199081169091556002909252909220805490921681178255429101555061046e91506109c29050565b565b610478610968565b600061048333610543565b60405163a9059cbb60e01b8152336004820152602481018290529091507f00000000000000000000000000000000000000000000000000000000000000006001600160a01b03169063a9059cbb906044016020604051808303816000875af11580156104f3573d6000803e3d6000fd5b505050506040513d601f19601f820116820180604052508101906105179190610c90565b5050336000908152600260205260409020805460ff1916600190811782554291015561046e6001600055565b6001600160a01b03811660009081526002602052604081205460ff16158061058457506001600160a01b03821660009081526001602052604090205460ff16155b1561059157506000919050565b6001600160a01b0382166000908152600260205260408120600101546105b79042610d26565b6001600160a01b0384166000908152600160208190526040822081015492935090916105e291610d3d565b6105f2836509184e72a000610d55565b6105fc9190610d55565b949350505050565b61060c610968565b604051627eeac760e11b8152336004820152602481018290526001907f00000000000000000000000000000000000000000000000000000000000000006001600160a01b03169062fdd58e90604401602060405180830381865afa158015610678573d6000803e3d6000fd5b505050506040513d601f19601f8201168201806040525081019061069c9190610d74565b101561071a5760405162461bcd60e51b815260206004820152604160248201527f596f75206d7573742068617665206174206c656173742031206f66207468652060448201527f6d756c7469746f6f6c20796f752061726520747279696e6720746f207374616b6064820152606560f81b608482015260a4016102f5565b3360009081526001602052604090205460ff16156107c657336000818152600160208190526040918290208101549151637921219560e11b81526001600160a01b037f0000000000000000000000000000000000000000000000000000000000000000169363f242432a93610793933093600401610cb2565b600060405180830381600087803b1580156107ad57600080fd5b505af11580156107c1573d6000803e3d6000fd5b505050505b60006107d133610543565b60405163a9059cbb60e01b8152336004820152602481018290529091507f00000000000000000000000000000000000000000000000000000000000000006001600160a01b03169063a9059cbb906044016020604051808303816000875af1158015610841573d6000803e3d6000fd5b505050506040513d601f19601f820116820180604052508101906108659190610c90565b50604051637921219560e11b8152336004820152306024820152604481018390526001606482015260a06084820152601660a48201527514dd185ada5b99c81e5bdd5c881b5d5b1d1a5d1bdbdb60521b60c48201527f00000000000000000000000000000000000000000000000000000000000000006001600160a01b03169063f242432a9060e401600060405180830381600087803b15801561090857600080fd5b505af115801561091c573d6000803e3d6000fd5b5050336000908152600160208181526040808420808401899055805460ff1990811685179091556002909252909220805490921681178255429101555061096591506109c29050565b50565b600260005414156109bb5760405162461bcd60e51b815260206004820152601f60248201527f5265656e7472616e637947756172643a207265656e7472616e742063616c6c0060448201526064016102f5565b6002600055565b6001600055565b6000602082840312156109db57600080fd5b81356001600160e01b0319811681146109f357600080fd5b9392505050565b80356001600160a01b0381168114610a1157600080fd5b919050565b600060208284031215610a2857600080fd5b6109f3826109fa565b600060208284031215610a4357600080fd5b5035919050565b634e487b7160e01b600052604160045260246000fd5b604051601f8201601f1916810167ffffffffffffffff81118282101715610a8957610a89610a4a565b604052919050565b600082601f830112610aa257600080fd5b8135602067ffffffffffffffff821115610abe57610abe610a4a565b8160051b610acd828201610a60565b9283528481018201928281019087851115610ae757600080fd5b83870192505b84831015610b0657823582529183019190830190610aed565b979650505050505050565b600082601f830112610b2257600080fd5b813567ffffffffffffffff811115610b3c57610b3c610a4a565b610b4f601f8201601f1916602001610a60565b818152846020838601011115610b6457600080fd5b816020850160208301376000918101602001919091529392505050565b600080600080600060a08688031215610b9957600080fd5b610ba2866109fa565b9450610bb0602087016109fa565b9350604086013567ffffffffffffffff80821115610bcd57600080fd5b610bd989838a01610a91565b94506060880135915080821115610bef57600080fd5b610bfb89838a01610a91565b93506080880135915080821115610c1157600080fd5b50610c1e88828901610b11565b9150509295509295909350565b600080600080600060a08688031215610c4357600080fd5b610c4c866109fa565b9450610c5a602087016109fa565b93506040860135925060608601359150608086013567ffffffffffffffff811115610c8457600080fd5b610c1e88828901610b11565b600060208284031215610ca257600080fd5b815180151581146109f357600080fd5b6001600160a01b0394851681529290931660208301526040820152606081019190915260a060808201819052601c908201527f52657475726e696e6720796f7572206f6c64206d756c7469746f6f6c0000000060c082015260e00190565b634e487b7160e01b600052601160045260246000fd5b600082821015610d3857610d38610d10565b500390565b60008219821115610d5057610d50610d10565b500190565b6000816000190483118215151615610d6f57610d6f610d10565b500290565b600060208284031215610d8657600080fd5b505191905056fea26469706673582212204f4b369389e32044fdb9443bfcffcee363675536d874da5c4634592bf97fb27864736f6c634300080b0033",
  "linkReferences": {},
  "deployedLinkReferences": {}
}