{
  "_format": "hh-sol-artifact-1",
  "contractName": "TokenERC20",
  "sourceName": "@thirdweb-dev/contracts/token/TokenERC20.sol",
  "abi": [
    {
      "inputs": [],
      "stateMutability": "nonpayable",
      "type": "constructor"
    },
    {
      "anonymous": false,
      "inputs": [
        {
          "indexed": true,
          "internalType": "address",
          "name": "owner",
          "type": "address"
        },
        {
          "indexed": true,
          "internalType": "address",
          "name": "spender",
          "type": "address"
        },
        {
          "indexed": false,
          "internalType": "uint256",
          "name": "value",
          "type": "uint256"
        }
      ],
      "name": "Approval",
      "type": "event"
    },
    {
      "anonymous": false,
      "inputs": [
        {
          "indexed": true,
          "internalType": "address",
          "name": "delegator",
          "type": "address"
        },
        {
          "indexed": true,
          "internalType": "address",
          "name": "fromDelegate",
          "type": "address"
        },
        {
          "indexed": true,
          "internalType": "address",
          "name": "toDelegate",
          "type": "address"
        }
      ],
      "name": "DelegateChanged",
      "type": "event"
    },
    {
      "anonymous": false,
      "inputs": [
        {
          "indexed": true,
          "internalType": "address",
          "name": "delegate",
          "type": "address"
        },
        {
          "indexed": false,
          "internalType": "uint256",
          "name": "previousBalance",
          "type": "uint256"
        },
        {
          "indexed": false,
          "internalType": "uint256",
          "name": "newBalance",
          "type": "uint256"
        }
      ],
      "name": "DelegateVotesChanged",
      "type": "event"
    },
    {
      "anonymous": false,
      "inputs": [
        {
          "indexed": false,
          "internalType": "uint8",
          "name": "version",
          "type": "uint8"
        }
      ],
      "name": "Initialized",
      "type": "event"
    },
    {
      "anonymous": false,
      "inputs": [
        {
          "indexed": true,
          "internalType": "address",
          "name": "platformFeeRecipient",
          "type": "address"
        },
        {
          "indexed": false,
          "internalType": "uint256",
          "name": "platformFeeBps",
          "type": "uint256"
        }
      ],
      "name": "PlatformFeeInfoUpdated",
      "type": "event"
    },
    {
      "anonymous": false,
      "inputs": [
        {
          "indexed": true,
          "internalType": "address",
          "name": "recipient",
          "type": "address"
        }
      ],
      "name": "PrimarySaleRecipientUpdated",
      "type": "event"
    },
    {
      "anonymous": false,
      "inputs": [
        {
          "indexed": true,
          "internalType": "bytes32",
          "name": "role",
          "type": "bytes32"
        },
        {
          "indexed": true,
          "internalType": "bytes32",
          "name": "previousAdminRole",
          "type": "bytes32"
        },
        {
          "indexed": true,
          "internalType": "bytes32",
          "name": "newAdminRole",
          "type": "bytes32"
        }
      ],
      "name": "RoleAdminChanged",
      "type": "event"
    },
    {
      "anonymous": false,
      "inputs": [
        {
          "indexed": true,
          "internalType": "bytes32",
          "name": "role",
          "type": "bytes32"
        },
        {
          "indexed": true,
          "internalType": "address",
          "name": "account",
          "type": "address"
        },
        {
          "indexed": true,
          "internalType": "address",
          "name": "sender",
          "type": "address"
        }
      ],
      "name": "RoleGranted",
      "type": "event"
    },
    {
      "anonymous": false,
      "inputs": [
        {
          "indexed": true,
          "internalType": "bytes32",
          "name": "role",
          "type": "bytes32"
        },
        {
          "indexed": true,
          "internalType": "address",
          "name": "account",
          "type": "address"
        },
        {
          "indexed": true,
          "internalType": "address",
          "name": "sender",
          "type": "address"
        }
      ],
      "name": "RoleRevoked",
      "type": "event"
    },
    {
      "anonymous": false,
      "inputs": [
        {
          "indexed": true,
          "internalType": "address",
          "name": "mintedTo",
          "type": "address"
        },
        {
          "indexed": false,
          "internalType": "uint256",
          "name": "quantityMinted",
          "type": "uint256"
        }
      ],
      "name": "TokensMinted",
      "type": "event"
    },
    {
      "anonymous": false,
      "inputs": [
        {
          "indexed": true,
          "internalType": "address",
          "name": "signer",
          "type": "address"
        },
        {
          "indexed": true,
          "internalType": "address",
          "name": "mintedTo",
          "type": "address"
        },
        {
          "components": [
            {
              "internalType": "address",
              "name": "to",
              "type": "address"
            },
            {
              "internalType": "address",
              "name": "primarySaleRecipient",
              "type": "address"
            },
            {
              "internalType": "uint256",
              "name": "quantity",
              "type": "uint256"
            },
            {
              "internalType": "uint256",
              "name": "price",
              "type": "uint256"
            },
            {
              "internalType": "address",
              "name": "currency",
              "type": "address"
            },
            {
              "internalType": "uint128",
              "name": "validityStartTimestamp",
              "type": "uint128"
            },
            {
              "internalType": "uint128",
              "name": "validityEndTimestamp",
              "type": "uint128"
            },
            {
              "internalType": "bytes32",
              "name": "uid",
              "type": "bytes32"
            }
          ],
          "indexed": false,
          "internalType": "struct ITokenERC20.MintRequest",
          "name": "mintRequest",
          "type": "tuple"
        }
      ],
      "name": "TokensMintedWithSignature",
      "type": "event"
    },
    {
      "anonymous": false,
      "inputs": [
        {
          "indexed": true,
          "internalType": "address",
          "name": "from",
          "type": "address"
        },
        {
          "indexed": true,
          "internalType": "address",
          "name": "to",
          "type": "address"
        },
        {
          "indexed": false,
          "internalType": "uint256",
          "name": "value",
          "type": "uint256"
        }
      ],
      "name": "Transfer",
      "type": "event"
    },
    {
      "inputs": [],
      "name": "DEFAULT_ADMIN_ROLE",
      "outputs": [
        {
          "internalType": "bytes32",
          "name": "",
          "type": "bytes32"
        }
      ],
      "stateMutability": "view",
      "type": "function"
    },
    {
      "inputs": [],
      "name": "DOMAIN_SEPARATOR",
      "outputs": [
        {
          "internalType": "bytes32",
          "name": "",
          "type": "bytes32"
        }
      ],
      "stateMutability": "view",
      "type": "function"
    },
    {
      "inputs": [
        {
          "internalType": "address",
          "name": "owner",
          "type": "address"
        },
        {
          "internalType": "address",
          "name": "spender",
          "type": "address"
        }
      ],
      "name": "allowance",
      "outputs": [
        {
          "internalType": "uint256",
          "name": "",
          "type": "uint256"
        }
      ],
      "stateMutability": "view",
      "type": "function"
    },
    {
      "inputs": [
        {
          "internalType": "address",
          "name": "spender",
          "type": "address"
        },
        {
          "internalType": "uint256",
          "name": "amount",
          "type": "uint256"
        }
      ],
      "name": "approve",
      "outputs": [
        {
          "internalType": "bool",
          "name": "",
          "type": "bool"
        }
      ],
      "stateMutability": "nonpayable",
      "type": "function"
    },
    {
      "inputs": [
        {
          "internalType": "address",
          "name": "account",
          "type": "address"
        }
      ],
      "name": "balanceOf",
      "outputs": [
        {
          "internalType": "uint256",
          "name": "",
          "type": "uint256"
        }
      ],
      "stateMutability": "view",
      "type": "function"
    },
    {
      "inputs": [
        {
          "internalType": "uint256",
          "name": "amount",
          "type": "uint256"
        }
      ],
      "name": "burn",
      "outputs": [],
      "stateMutability": "nonpayable",
      "type": "function"
    },
    {
      "inputs": [
        {
          "internalType": "address",
          "name": "account",
          "type": "address"
        },
        {
          "internalType": "uint256",
          "name": "amount",
          "type": "uint256"
        }
      ],
      "name": "burnFrom",
      "outputs": [],
      "stateMutability": "nonpayable",
      "type": "function"
    },
    {
      "inputs": [
        {
          "internalType": "address",
          "name": "account",
          "type": "address"
        },
        {
          "internalType": "uint32",
          "name": "pos",
          "type": "uint32"
        }
      ],
      "name": "checkpoints",
      "outputs": [
        {
          "components": [
            {
              "internalType": "uint32",
              "name": "fromBlock",
              "type": "uint32"
            },
            {
              "internalType": "uint224",
              "name": "votes",
              "type": "uint224"
            }
          ],
          "internalType": "struct ERC20VotesUpgradeable.Checkpoint",
          "name": "",
          "type": "tuple"
        }
      ],
      "stateMutability": "view",
      "type": "function"
    },
    {
      "inputs": [],
      "name": "contractType",
      "outputs": [
        {
          "internalType": "bytes32",
          "name": "",
          "type": "bytes32"
        }
      ],
      "stateMutability": "pure",
      "type": "function"
    },
    {
      "inputs": [],
      "name": "contractURI",
      "outputs": [
        {
          "internalType": "string",
          "name": "",
          "type": "string"
        }
      ],
      "stateMutability": "view",
      "type": "function"
    },
    {
      "inputs": [],
      "name": "contractVersion",
      "outputs": [
        {
          "internalType": "uint8",
          "name": "",
          "type": "uint8"
        }
      ],
      "stateMutability": "pure",
      "type": "function"
    },
    {
      "inputs": [],
      "name": "decimals",
      "outputs": [
        {
          "internalType": "uint8",
          "name": "",
          "type": "uint8"
        }
      ],
      "stateMutability": "view",
      "type": "function"
    },
    {
      "inputs": [
        {
          "internalType": "address",
          "name": "spender",
          "type": "address"
        },
        {
          "internalType": "uint256",
          "name": "subtractedValue",
          "type": "uint256"
        }
      ],
      "name": "decreaseAllowance",
      "outputs": [
        {
          "internalType": "bool",
          "name": "",
          "type": "bool"
        }
      ],
      "stateMutability": "nonpayable",
      "type": "function"
    },
    {
      "inputs": [
        {
          "internalType": "address",
          "name": "delegatee",
          "type": "address"
        }
      ],
      "name": "delegate",
      "outputs": [],
      "stateMutability": "nonpayable",
      "type": "function"
    },
    {
      "inputs": [
        {
          "internalType": "address",
          "name": "delegatee",
          "type": "address"
        },
        {
          "internalType": "uint256",
          "name": "nonce",
          "type": "uint256"
        },
        {
          "internalType": "uint256",
          "name": "expiry",
          "type": "uint256"
        },
        {
          "internalType": "uint8",
          "name": "v",
          "type": "uint8"
        },
        {
          "internalType": "bytes32",
          "name": "r",
          "type": "bytes32"
        },
        {
          "internalType": "bytes32",
          "name": "s",
          "type": "bytes32"
        }
      ],
      "name": "delegateBySig",
      "outputs": [],
      "stateMutability": "nonpayable",
      "type": "function"
    },
    {
      "inputs": [
        {
          "internalType": "address",
          "name": "account",
          "type": "address"
        }
      ],
      "name": "delegates",
      "outputs": [
        {
          "internalType": "address",
          "name": "",
          "type": "address"
        }
      ],
      "stateMutability": "view",
      "type": "function"
    },
    {
      "inputs": [
        {
          "internalType": "uint256",
          "name": "blockNumber",
          "type": "uint256"
        }
      ],
      "name": "getPastTotalSupply",
      "outputs": [
        {
          "internalType": "uint256",
          "name": "",
          "type": "uint256"
        }
      ],
      "stateMutability": "view",
      "type": "function"
    },
    {
      "inputs": [
        {
          "internalType": "address",
          "name": "account",
          "type": "address"
        },
        {
          "internalType": "uint256",
          "name": "blockNumber",
          "type": "uint256"
        }
      ],
      "name": "getPastVotes",
      "outputs": [
        {
          "internalType": "uint256",
          "name": "",
          "type": "uint256"
        }
      ],
      "stateMutability": "view",
      "type": "function"
    },
    {
      "inputs": [],
      "name": "getPlatformFeeInfo",
      "outputs": [
        {
          "internalType": "address",
          "name": "",
          "type": "address"
        },
        {
          "internalType": "uint16",
          "name": "",
          "type": "uint16"
        }
      ],
      "stateMutability": "view",
      "type": "function"
    },
    {
      "inputs": [
        {
          "internalType": "bytes32",
          "name": "role",
          "type": "bytes32"
        }
      ],
      "name": "getRoleAdmin",
      "outputs": [
        {
          "internalType": "bytes32",
          "name": "",
          "type": "bytes32"
        }
      ],
      "stateMutability": "view",
      "type": "function"
    },
    {
      "inputs": [
        {
          "internalType": "bytes32",
          "name": "role",
          "type": "bytes32"
        },
        {
          "internalType": "uint256",
          "name": "index",
          "type": "uint256"
        }
      ],
      "name": "getRoleMember",
      "outputs": [
        {
          "internalType": "address",
          "name": "",
          "type": "address"
        }
      ],
      "stateMutability": "view",
      "type": "function"
    },
    {
      "inputs": [
        {
          "internalType": "bytes32",
          "name": "role",
          "type": "bytes32"
        }
      ],
      "name": "getRoleMemberCount",
      "outputs": [
        {
          "internalType": "uint256",
          "name": "",
          "type": "uint256"
        }
      ],
      "stateMutability": "view",
      "type": "function"
    },
    {
      "inputs": [
        {
          "internalType": "address",
          "name": "account",
          "type": "address"
        }
      ],
      "name": "getVotes",
      "outputs": [
        {
          "internalType": "uint256",
          "name": "",
          "type": "uint256"
        }
      ],
      "stateMutability": "view",
      "type": "function"
    },
    {
      "inputs": [
        {
          "internalType": "bytes32",
          "name": "role",
          "type": "bytes32"
        },
        {
          "internalType": "address",
          "name": "account",
          "type": "address"
        }
      ],
      "name": "grantRole",
      "outputs": [],
      "stateMutability": "nonpayable",
      "type": "function"
    },
    {
      "inputs": [
        {
          "internalType": "bytes32",
          "name": "role",
          "type": "bytes32"
        },
        {
          "internalType": "address",
          "name": "account",
          "type": "address"
        }
      ],
      "name": "hasRole",
      "outputs": [
        {
          "internalType": "bool",
          "name": "",
          "type": "bool"
        }
      ],
      "stateMutability": "view",
      "type": "function"
    },
    {
      "inputs": [
        {
          "internalType": "address",
          "name": "spender",
          "type": "address"
        },
        {
          "internalType": "uint256",
          "name": "addedValue",
          "type": "uint256"
        }
      ],
      "name": "increaseAllowance",
      "outputs": [
        {
          "internalType": "bool",
          "name": "",
          "type": "bool"
        }
      ],
      "stateMutability": "nonpayable",
      "type": "function"
    },
    {
      "inputs": [
        {
          "internalType": "address",
          "name": "_defaultAdmin",
          "type": "address"
        },
        {
          "internalType": "string",
          "name": "_name",
          "type": "string"
        },
        {
          "internalType": "string",
          "name": "_symbol",
          "type": "string"
        },
        {
          "internalType": "string",
          "name": "_contractURI",
          "type": "string"
        },
        {
          "internalType": "address[]",
          "name": "_trustedForwarders",
          "type": "address[]"
        },
        {
          "internalType": "address",
          "name": "_primarySaleRecipient",
          "type": "address"
        },
        {
          "internalType": "address",
          "name": "_platformFeeRecipient",
          "type": "address"
        },
        {
          "internalType": "uint256",
          "name": "_platformFeeBps",
          "type": "uint256"
        }
      ],
      "name": "initialize",
      "outputs": [],
      "stateMutability": "nonpayable",
      "type": "function"
    },
    {
      "inputs": [
        {
          "internalType": "address",
          "name": "forwarder",
          "type": "address"
        }
      ],
      "name": "isTrustedForwarder",
      "outputs": [
        {
          "internalType": "bool",
          "name": "",
          "type": "bool"
        }
      ],
      "stateMutability": "view",
      "type": "function"
    },
    {
      "inputs": [
        {
          "internalType": "address",
          "name": "to",
          "type": "address"
        },
        {
          "internalType": "uint256",
          "name": "amount",
          "type": "uint256"
        }
      ],
      "name": "mintTo",
      "outputs": [],
      "stateMutability": "nonpayable",
      "type": "function"
    },
    {
      "inputs": [
        {
          "components": [
            {
              "internalType": "address",
              "name": "to",
              "type": "address"
            },
            {
              "internalType": "address",
              "name": "primarySaleRecipient",
              "type": "address"
            },
            {
              "internalType": "uint256",
              "name": "quantity",
              "type": "uint256"
            },
            {
              "internalType": "uint256",
              "name": "price",
              "type": "uint256"
            },
            {
              "internalType": "address",
              "name": "currency",
              "type": "address"
            },
            {
              "internalType": "uint128",
              "name": "validityStartTimestamp",
              "type": "uint128"
            },
            {
              "internalType": "uint128",
              "name": "validityEndTimestamp",
              "type": "uint128"
            },
            {
              "internalType": "bytes32",
              "name": "uid",
              "type": "bytes32"
            }
          ],
          "internalType": "struct ITokenERC20.MintRequest",
          "name": "_req",
          "type": "tuple"
        },
        {
          "internalType": "bytes",
          "name": "_signature",
          "type": "bytes"
        }
      ],
      "name": "mintWithSignature",
      "outputs": [],
      "stateMutability": "payable",
      "type": "function"
    },
    {
      "inputs": [
        {
          "internalType": "bytes[]",
          "name": "data",
          "type": "bytes[]"
        }
      ],
      "name": "multicall",
      "outputs": [
        {
          "internalType": "bytes[]",
          "name": "results",
          "type": "bytes[]"
        }
      ],
      "stateMutability": "nonpayable",
      "type": "function"
    },
    {
      "inputs": [],
      "name": "name",
      "outputs": [
        {
          "internalType": "string",
          "name": "",
          "type": "string"
        }
      ],
      "stateMutability": "view",
      "type": "function"
    },
    {
      "inputs": [
        {
          "internalType": "address",
          "name": "owner",
          "type": "address"
        }
      ],
      "name": "nonces",
      "outputs": [
        {
          "internalType": "uint256",
          "name": "",
          "type": "uint256"
        }
      ],
      "stateMutability": "view",
      "type": "function"
    },
    {
      "inputs": [
        {
          "internalType": "address",
          "name": "account",
          "type": "address"
        }
      ],
      "name": "numCheckpoints",
      "outputs": [
        {
          "internalType": "uint32",
          "name": "",
          "type": "uint32"
        }
      ],
      "stateMutability": "view",
      "type": "function"
    },
    {
      "inputs": [
        {
          "internalType": "address",
          "name": "owner",
          "type": "address"
        },
        {
          "internalType": "address",
          "name": "spender",
          "type": "address"
        },
        {
          "internalType": "uint256",
          "name": "value",
          "type": "uint256"
        },
        {
          "internalType": "uint256",
          "name": "deadline",
          "type": "uint256"
        },
        {
          "internalType": "uint8",
          "name": "v",
          "type": "uint8"
        },
        {
          "internalType": "bytes32",
          "name": "r",
          "type": "bytes32"
        },
        {
          "internalType": "bytes32",
          "name": "s",
          "type": "bytes32"
        }
      ],
      "name": "permit",
      "outputs": [],
      "stateMutability": "nonpayable",
      "type": "function"
    },
    {
      "inputs": [],
      "name": "primarySaleRecipient",
      "outputs": [
        {
          "internalType": "address",
          "name": "",
          "type": "address"
        }
      ],
      "stateMutability": "view",
      "type": "function"
    },
    {
      "inputs": [
        {
          "internalType": "bytes32",
          "name": "role",
          "type": "bytes32"
        },
        {
          "internalType": "address",
          "name": "account",
          "type": "address"
        }
      ],
      "name": "renounceRole",
      "outputs": [],
      "stateMutability": "nonpayable",
      "type": "function"
    },
    {
      "inputs": [
        {
          "internalType": "bytes32",
          "name": "role",
          "type": "bytes32"
        },
        {
          "internalType": "address",
          "name": "account",
          "type": "address"
        }
      ],
      "name": "revokeRole",
      "outputs": [],
      "stateMutability": "nonpayable",
      "type": "function"
    },
    {
      "inputs": [
        {
          "internalType": "string",
          "name": "_uri",
          "type": "string"
        }
      ],
      "name": "setContractURI",
      "outputs": [],
      "stateMutability": "nonpayable",
      "type": "function"
    },
    {
      "inputs": [
        {
          "internalType": "address",
          "name": "_platformFeeRecipient",
          "type": "address"
        },
        {
          "internalType": "uint256",
          "name": "_platformFeeBps",
          "type": "uint256"
        }
      ],
      "name": "setPlatformFeeInfo",
      "outputs": [],
      "stateMutability": "nonpayable",
      "type": "function"
    },
    {
      "inputs": [
        {
          "internalType": "address",
          "name": "_saleRecipient",
          "type": "address"
        }
      ],
      "name": "setPrimarySaleRecipient",
      "outputs": [],
      "stateMutability": "nonpayable",
      "type": "function"
    },
    {
      "inputs": [
        {
          "internalType": "bytes4",
          "name": "interfaceId",
          "type": "bytes4"
        }
      ],
      "name": "supportsInterface",
      "outputs": [
        {
          "internalType": "bool",
          "name": "",
          "type": "bool"
        }
      ],
      "stateMutability": "view",
      "type": "function"
    },
    {
      "inputs": [],
      "name": "symbol",
      "outputs": [
        {
          "internalType": "string",
          "name": "",
          "type": "string"
        }
      ],
      "stateMutability": "view",
      "type": "function"
    },
    {
      "inputs": [],
      "name": "totalSupply",
      "outputs": [
        {
          "internalType": "uint256",
          "name": "",
          "type": "uint256"
        }
      ],
      "stateMutability": "view",
      "type": "function"
    },
    {
      "inputs": [
        {
          "internalType": "address",
          "name": "to",
          "type": "address"
        },
        {
          "internalType": "uint256",
          "name": "amount",
          "type": "uint256"
        }
      ],
      "name": "transfer",
      "outputs": [
        {
          "internalType": "bool",
          "name": "",
          "type": "bool"
        }
      ],
      "stateMutability": "nonpayable",
      "type": "function"
    },
    {
      "inputs": [
        {
          "internalType": "address",
          "name": "from",
          "type": "address"
        },
        {
          "internalType": "address",
          "name": "to",
          "type": "address"
        },
        {
          "internalType": "uint256",
          "name": "amount",
          "type": "uint256"
        }
      ],
      "name": "transferFrom",
      "outputs": [
        {
          "internalType": "bool",
          "name": "",
          "type": "bool"
        }
      ],
      "stateMutability": "nonpayable",
      "type": "function"
    },
    {
      "inputs": [
        {
          "components": [
            {
              "internalType": "address",
              "name": "to",
              "type": "address"
            },
            {
              "internalType": "address",
              "name": "primarySaleRecipient",
              "type": "address"
            },
            {
              "internalType": "uint256",
              "name": "quantity",
              "type": "uint256"
            },
            {
              "internalType": "uint256",
              "name": "price",
              "type": "uint256"
            },
            {
              "internalType": "address",
              "name": "currency",
              "type": "address"
            },
            {
              "internalType": "uint128",
              "name": "validityStartTimestamp",
              "type": "uint128"
            },
            {
              "internalType": "uint128",
              "name": "validityEndTimestamp",
              "type": "uint128"
            },
            {
              "internalType": "bytes32",
              "name": "uid",
              "type": "bytes32"
            }
          ],
          "internalType": "struct ITokenERC20.MintRequest",
          "name": "_req",
          "type": "tuple"
        },
        {
          "internalType": "bytes",
          "name": "_signature",
          "type": "bytes"
        }
      ],
      "name": "verify",
      "outputs": [
        {
          "internalType": "bool",
          "name": "",
          "type": "bool"
        },
        {
          "internalType": "address",
          "name": "",
          "type": "address"
        }
      ],
      "stateMutability": "view",
      "type": "function"
    }
  ],
  "bytecode": "0x60806040523480156200001157600080fd5b50600054610100900460ff1615808015620000335750600054600160ff909116105b8062000063575062000050306200013d60201b6200180d1760201c565b15801562000063575060005460ff166001145b620000cb5760405162461bcd60e51b815260206004820152602e60248201527f496e697469616c697a61626c653a20636f6e747261637420697320616c72656160448201526d191e481a5b9a5d1a585b1a5e995960921b606482015260840160405180910390fd5b6000805460ff191660011790558015620000ef576000805461ff0019166101001790555b801562000136576000805461ff0019169055604051600181527f7f26b83ff96e1f2b6a682f133852f6798a09c465da95921460cefb38474024989060200160405180910390a15b506200014c565b6001600160a01b03163b151590565b61468b806200015c6000396000f3fe6080604052600436106102885760003560e01c80637ecebe001161015a578063ac9650d8116100c1578063d505accf1161007a578063d505accf14610858578063d547741f14610878578063dd62ed3e14610898578063dfad80a6146108b8578063e8a3d485146108d8578063f1127ed8146108ed57600080fd5b8063ac9650d814610755578063c1b606e214610782578063c3cda520146107c1578063ca15c873146107e1578063cb2ef6f714610801578063d45573f61461082157600080fd5b806395d89b411161011357806395d89b41146106b75780639ab24eb0146106cc578063a0a8e460146106ec578063a217fddf14610700578063a457c2d714610715578063a9059cbb1461073557600080fd5b80637ecebe00146106045780638e539e8c146106245780638f0fefbb146106445780639010d07c1461065757806391d1485414610677578063938e3d7b1461069757600080fd5b806336568abe116101fe578063587cde1e116101b7578063587cde1e146104ff5780635c19a95c146105395780636f4f2837146105595780636fcfff451461057957806370a08231146105ae57806379cc6790146105e457600080fd5b806336568abe1461042657806339509351146104465780633a46b1a81461046657806342966c6814610486578063449a52f8146104a6578063572b6c05146104c657600080fd5b80631e7ac488116102505780631e7ac4881461035c57806323b872dd1461037e578063248a9ca31461039e5780632f2ff15d146103cf578063313ce567146103ef5780633644e5151461041157600080fd5b806301ffc9a71461028d57806306fdde03146102c2578063079fe40e146102e4578063095ea7b31461031d57806318160ddd1461033d575b600080fd5b34801561029957600080fd5b506102ad6102a8366004613c12565b610937565b60405190151581526020015b60405180910390f35b3480156102ce57600080fd5b506102d7610962565b6040516102b99190613c94565b3480156102f057600080fd5b5061025f54610305906001600160a01b031681565b6040516001600160a01b0390911681526020016102b9565b34801561032957600080fd5b506102ad610338366004613cc3565b6109f4565b34801561034957600080fd5b5060cb545b6040519081526020016102b9565b34801561036857600080fd5b5061037c610377366004613cc3565b610a16565b005b34801561038a57600080fd5b506102ad610399366004613ced565b610adf565b3480156103aa57600080fd5b5061034e6103b9366004613d29565b60009081526101f8602052604090206001015490565b3480156103db57600080fd5b5061037c6103ea366004613d42565b610b0f565b3480156103fb57600080fd5b5060125b60405160ff90911681526020016102b9565b34801561041d57600080fd5b5061034e610b3a565b34801561043257600080fd5b5061037c610441366004613d42565b610b49565b34801561045257600080fd5b506102ad610461366004613cc3565b610bd7565b34801561047257600080fd5b5061034e610481366004613cc3565b610c03565b34801561049257600080fd5b5061037c6104a1366004613d29565b610c77565b3480156104b257600080fd5b5061037c6104c1366004613cc3565b610c8b565b3480156104d257600080fd5b506102ad6104e1366004613d6e565b6001600160a01b031660009081526065602052604090205460ff1690565b34801561050b57600080fd5b5061030561051a366004613d6e565b6001600160a01b03908116600090815261019460205260409020541690565b34801561054557600080fd5b5061037c610554366004613d6e565b610cfb565b34801561056557600080fd5b5061037c610574366004613d6e565b610d0c565b34801561058557600080fd5b50610599610594366004613d6e565b610d63565b60405163ffffffff90911681526020016102b9565b3480156105ba57600080fd5b5061034e6105c9366004613d6e565b6001600160a01b0316600090815260c9602052604090205490565b3480156105f057600080fd5b5061037c6105ff366004613cc3565b610d86565b34801561061057600080fd5b5061034e61061f366004613d6e565b610da2565b34801561063057600080fd5b5061034e61063f366004613d29565b610dc1565b61037c610652366004613dcb565b610e1e565b34801561066357600080fd5b50610305610672366004613e28565b610eb3565b34801561068357600080fd5b506102ad610692366004613d42565b610ecc565b3480156106a357600080fd5b5061037c6106b2366004613e4a565b610ef8565b3480156106c357600080fd5b506102d7610f16565b3480156106d857600080fd5b5061034e6106e7366004613d6e565b610f25565b3480156106f857600080fd5b5060016103ff565b34801561070c57600080fd5b5061034e600081565b34801561072157600080fd5b506102ad610730366004613cc3565b610fae565b34801561074157600080fd5b506102ad610750366004613cc3565b61103f565b34801561076157600080fd5b50610775610770366004613e8c565b611057565b6040516102b99190613f01565b34801561078e57600080fd5b506107a261079d366004613dcb565b61114c565b6040805192151583526001600160a01b039091166020830152016102b9565b3480156107cd57600080fd5b5061037c6107dc366004613f74565b6111b4565b3480156107ed57600080fd5b5061034e6107fc366004613d29565b6112ea565b34801561080d57600080fd5b50690546f6b656e45524332360b41b61034e565b34801561082d57600080fd5b5061025e5461025d54604080516001600160a01b03909316835261ffff9091166020830152016102b9565b34801561086457600080fd5b5061037c610873366004613fcc565b611302565b34801561088457600080fd5b5061037c610893366004613d42565b611466565b3480156108a457600080fd5b5061034e6108b3366004614036565b61148c565b3480156108c457600080fd5b5061037c6108d3366004614193565b6114b7565b3480156108e457600080fd5b506102d76116f9565b3480156108f957600080fd5b5061090d61090836600461427c565b611788565b60408051825163ffffffff1681526020928301516001600160e01b031692810192909252016102b9565b60006001600160e01b03198216635a05180f60e01b148061095c575061095c8261181c565b92915050565b606060cc8054610971906142bc565b80601f016020809104026020016040519081016040528092919081815260200182805461099d906142bc565b80156109ea5780601f106109bf576101008083540402835291602001916109ea565b820191906000526020600020905b8154815290600101906020018083116109cd57829003601f168201915b5050505050905090565b6000806109ff611851565b9050610a0c81858561185b565b5060019392505050565b6000610a218161197f565b612710821115610a6a5760405162461bcd60e51b815260206004820152600f60248201526e65786365656473204d41585f42505360881b60448201526064015b60405180910390fd5b61025d80546001600160801b03191667ffffffffffffffff841617905561025e80546001600160a01b0385166001600160a01b031990911681179091556040518381527fe2497bd806ec41a6e0dd992c29a72efc0ef8fec9092d1978fd4a1e00b2f183049060200160405180910390a2505050565b600080610aea611851565b9050610af7858285611990565b610b02858585611a04565b60019150505b9392505050565b60008281526101f86020526040902060010154610b2b8161197f565b610b358383611bc0565b505050565b6000610b44611be3565b905090565b610b51611851565b6001600160a01b0316816001600160a01b031614610bc95760405162461bcd60e51b815260206004820152602f60248201527f416363657373436f6e74726f6c3a2063616e206f6e6c792072656e6f756e636560448201526e103937b632b9903337b91039b2b63360891b6064820152608401610a61565b610bd38282611c60565b5050565b600080610be2611851565b9050610a0c818585610bf4858961148c565b610bfe9190614307565b61185b565b6000438210610c545760405162461bcd60e51b815260206004820152601f60248201527f4552433230566f7465733a20626c6f636b206e6f7420796574206d696e6564006044820152606401610a61565b6001600160a01b038316600090815261019560205260409020610b089083611c83565b610c88610c82611851565b82611d7a565b50565b610cb77f9f2df0fed2c77648de5860a4cc508cd0818c85b8b8a1ab4ceeef8d981c8956a6610692611851565b610cf15760405162461bcd60e51b815260206004820152600b60248201526a3737ba1036b4b73a32b91760a91b6044820152606401610a61565b610bd38282611d84565b610c88610d06611851565b82611dd5565b6000610d178161197f565b61025f80546001600160a01b0319166001600160a01b0384169081179091556040517f299d17e95023f496e0ffc4909cff1a61f74bb5eb18de6f900f4155bfa1b3b33390600090a25050565b6001600160a01b0381166000908152610195602052604081205461095c90611e50565b610d9882610d92611851565b83611990565b610bd38282611d7a565b6001600160a01b0381166000908152610161602052604081205461095c565b6000438210610e125760405162461bcd60e51b815260206004820152601f60248201527f4552433230566f7465733a20626c6f636b206e6f7420796574206d696e6564006044820152606401610a61565b61095c61019683611c83565b610e26611eb9565b6000610e33848484611f13565b90506000610e446020860186613d6e565b9050610e4f856120af565b610e5d818660400135611d84565b806001600160a01b0316826001600160a01b03167fc4d88b1adde72eb5acf63f3e219ef5b223262233acf507c3b171277c91973c6787604051610ea09190614336565b60405180910390a35050610b3560018055565b600082815261022a60205260408120610b08908361225a565b60009182526101f8602090815260408084206001600160a01b0393909316845291905290205460ff1690565b6000610f038161197f565b610f1061025c8484613b09565b50505050565b606060cd8054610971906142bc565b6001600160a01b038116600090815261019560205260408120548015610f9b576001600160a01b038316600090815261019560205260409020610f696001836143cc565b81548110610f7957610f796143e3565b60009182526020909120015464010000000090046001600160e01b0316610f9e565b60005b6001600160e01b03169392505050565b600080610fb9611851565b90506000610fc7828661148c565b9050838110156110275760405162461bcd60e51b815260206004820152602560248201527f45524332303a2064656372656173656420616c6c6f77616e63652062656c6f77604482015264207a65726f60d81b6064820152608401610a61565b611034828686840361185b565b506001949350505050565b60008061104a611851565b9050610a0c818585611a04565b60608167ffffffffffffffff81111561107257611072614060565b6040519080825280602002602001820160405280156110a557816020015b60608152602001906001900390816110905790505b50905060005b8281101561114557611115308585848181106110c9576110c96143e3565b90506020028101906110db91906143f9565b8080601f01602080910402602001604051908101604052809392919081815260200183838082843760009201919091525061226692505050565b828281518110611127576111276143e3565b6020026020010181905250808061113d90614440565b9150506110ab565b5092915050565b600080600061115c86868661235a565b60e08701356000908152610260602052604090205490915060ff161580156111a957506111a97f9f2df0fed2c77648de5860a4cc508cd0818c85b8b8a1ab4ceeef8d981c8956a682610ecc565b969095509350505050565b834211156112045760405162461bcd60e51b815260206004820152601d60248201527f4552433230566f7465733a207369676e617475726520657870697265640000006044820152606401610a61565b604080517fe48329057bfd03d55e49b547132e39cffd9c1820ad7b9d4c5307691425d15adf60208201526001600160a01b03881691810191909152606081018690526080810185905260009061127e906112769060a001604051602081830303815290604052805190602001206123be565b85858561240c565b905061128981612434565b86146112d75760405162461bcd60e51b815260206004820152601960248201527f4552433230566f7465733a20696e76616c6964206e6f6e6365000000000000006044820152606401610a61565b6112e18188611dd5565b50505050505050565b600081815261022a6020526040812061095c9061245d565b834211156113525760405162461bcd60e51b815260206004820152601d60248201527f45524332305065726d69743a206578706972656420646561646c696e650000006044820152606401610a61565b60007f6e71edae12b1b97f4d1f60370fef10105fa2faae0126114a169c64845d6126c98888886113818c612434565b6040805160208101969096526001600160a01b0394851690860152929091166060840152608083015260a082015260c0810186905260e00160405160208183030381529060405280519060200120905060006113dc826123be565b905060006113ec8287878761240c565b9050896001600160a01b0316816001600160a01b03161461144f5760405162461bcd60e51b815260206004820152601e60248201527f45524332305065726d69743a20696e76616c6964207369676e617475726500006044820152606401610a61565b61145a8a8a8a61185b565b50505050505050505050565b60008281526101f860205260409020600101546114828161197f565b610b358383611c60565b6001600160a01b03918216600090815260ca6020908152604080832093909416825291909152205490565b600054610100900460ff16158080156114d75750600054600160ff909116105b806114f15750303b1580156114f1575060005460ff166001145b6115545760405162461bcd60e51b815260206004820152602e60248201527f496e697469616c697a61626c653a20636f6e747261637420697320616c72656160448201526d191e481a5b9a5d1a585b1a5e995960921b6064820152608401610a61565b6000805460ff191660011790558015611577576000805461ff0019166101001790555b61157f612467565b61158885612498565b61159188612527565b61159b8888612571565b85516115af9061025c906020890190613b89565b5061025f80546001600160a01b038087166001600160a01b03199283161790925561025e8054928616929091169190911790556127108211156116265760405162461bcd60e51b815260206004820152600f60248201526e65786365656473204d41585f42505360881b6044820152606401610a61565b61025d80546001600160801b0319166001600160801b03841617905561164d60008a6125bf565b61166560008051602061460f8339815191528a6125bf565b61168f7f9f2df0fed2c77648de5860a4cc508cd0818c85b8b8a1ab4ceeef8d981c8956a68a6125bf565b6116a860008051602061460f83398151915260006125bf565b80156116ee576000805461ff0019169055604051600181527f7f26b83ff96e1f2b6a682f133852f6798a09c465da95921460cefb38474024989060200160405180910390a15b505050505050505050565b61025c8054611707906142bc565b80601f0160208091040260200160405190810160405280929190818152602001828054611733906142bc565b80156117805780601f1061175557610100808354040283529160200191611780565b820191906000526020600020905b81548152906001019060200180831161176357829003601f168201915b505050505081565b60408051808201909152600080825260208201526001600160a01b038316600090815261019560205260409020805463ffffffff84169081106117cd576117cd6143e3565b60009182526020918290206040805180820190915291015463ffffffff8116825264010000000090046001600160e01b0316918101919091529392505050565b6001600160a01b03163b151590565b60006001600160e01b03198216637965db0b60e01b148061095c57506301ffc9a760e01b6001600160e01b031983161461095c565b6000610b446125c9565b6001600160a01b0383166118bd5760405162461bcd60e51b8152602060048201526024808201527f45524332303a20617070726f76652066726f6d20746865207a65726f206164646044820152637265737360e01b6064820152608401610a61565b6001600160a01b03821661191e5760405162461bcd60e51b815260206004820152602260248201527f45524332303a20617070726f766520746f20746865207a65726f206164647265604482015261737360f01b6064820152608401610a61565b6001600160a01b03838116600081815260ca602090815260408083209487168084529482529182902085905590518481527f8c5be1e5ebec7d5bd14f71427d1e84f3dd0314c0f7b2291e5b200ac8c7c3b925910160405180910390a3505050565b610c888161198b611851565b6125f3565b600061199c848461148c565b90506000198114610f1057818110156119f75760405162461bcd60e51b815260206004820152601d60248201527f45524332303a20696e73756666696369656e7420616c6c6f77616e63650000006044820152606401610a61565b610f10848484840361185b565b6001600160a01b038316611a685760405162461bcd60e51b815260206004820152602560248201527f45524332303a207472616e736665722066726f6d20746865207a65726f206164604482015264647265737360d81b6064820152608401610a61565b6001600160a01b038216611aca5760405162461bcd60e51b815260206004820152602360248201527f45524332303a207472616e7366657220746f20746865207a65726f206164647260448201526265737360e81b6064820152608401610a61565b611ad583838361264c565b6001600160a01b038316600090815260c9602052604090205481811015611b4d5760405162461bcd60e51b815260206004820152602660248201527f45524332303a207472616e7366657220616d6f756e7420657863656564732062604482015265616c616e636560d01b6064820152608401610a61565b6001600160a01b03808516600081815260c9602052604080822086860390559286168082529083902080548601905591517fddf252ad1be2c89b69c2b068fc378daa952ba7f163c4a11628f55a4df523b3ef90611bad9086815260200190565b60405180910390a3610f1084848461270d565b611bca8282612718565b600082815261022a60205260409020610b3590826127a0565b6000610b447f8b73c3c69bb8fe3d512ecc4cf759cc79239f7b179b0ffacaa9a75d522b39400f611c1361012d5490565b61012e546040805160208101859052908101839052606081018290524660808201523060a082015260009060c0016040516020818303038152906040528051906020012090509392505050565b611c6a82826127b5565b600082815261022a60205260409020610b35908261283b565b815460009081816005811115611cdd576000611c9e84612850565b611ca890856143cc565b600088815260209020909150869082015463ffffffff161115611ccd57809150611cdb565b611cd8816001614307565b92505b505b80821015611d2a576000611cf18383612935565b600088815260209020909150869082015463ffffffff161115611d1657809150611d24565b611d21816001614307565b92505b50611cdd565b8015611d6457611d4d86611d3f6001846143cc565b600091825260209091200190565b5464010000000090046001600160e01b0316611d67565b60005b6001600160e01b03169695505050505050565b610bd38282612950565b611d8e8282612969565b816001600160a01b03167f3f2c9d57c068687834f0de942a9babb9e5acab57d516d3480a3c16ee165a427382604051611dc991815260200190565b60405180910390a25050565b6001600160a01b03828116600081815261019460208181526040808420805460c9845282862054949093528787166001600160a01b03198416811790915590519190951694919391928592917f3134e8a2e6d97e929a7e54011ea5485d7d196dd5f0ba4d4ef95803e8e3fc257f9190a4610f10828483612973565b600063ffffffff821115611eb55760405162461bcd60e51b815260206004820152602660248201527f53616665436173743a2076616c756520646f65736e27742066697420696e203360448201526532206269747360d01b6064820152608401610a61565b5090565b60026001541415611f0c5760405162461bcd60e51b815260206004820152601f60248201527f5265656e7472616e637947756172643a207265656e7472616e742063616c6c006044820152606401610a61565b6002600155565b6000806000611f2386868661114c565b9150915081611f685760405162461bcd60e51b8152602060048201526011602482015270696e76616c6964207369676e617475726560781b6044820152606401610a61565b42611f7960c0880160a0890161445b565b6001600160801b031611158015611fa8575042611f9c60e0880160c0890161445b565b6001600160801b031610155b611fe65760405162461bcd60e51b815260206004820152600f60248201526e1c995c5d595cdd08195e1c1a5c9959608a1b6044820152606401610a61565b6000611ff56020880188613d6e565b6001600160a01b031614156120425760405162461bcd60e51b81526020600482015260136024820152721c9958da5c1a595b9d081d5b9919599a5b9959606a1b6044820152606401610a61565b60008660400135116120865760405162461bcd60e51b815260206004820152600d60248201526c7a65726f207175616e7469747960981b6044820152606401610a61565b60e0860135600090815261026060205260409020805460ff191660011790559150509392505050565b60608101356120bb5750565b61025d54600090612710906120dd906001600160801b03166060850135614476565b6120e791906144ab565b905073eeeeeeeeeeeeeeeeeeeeeeeeeeeeeeeeeeeeeeee61210e60a0840160808501613d6e565b6001600160a01b0316141561216e57816060013534146121695760405162461bcd60e51b815260206004820152601660248201527536bab9ba1039b2b732103a37ba30b610383934b1b29760511b6044820152606401610a61565b6121b1565b34156121b15760405162461bcd60e51b81526020600482015260126024820152716d73672076616c7565206e6f74207a65726f60701b6044820152606401610a61565b6000806121c46040850160208601613d6e565b6001600160a01b0316146121e7576121e26040840160208501613d6e565b6121f5565b61025f546001600160a01b03165b905061222561220a60a0850160808601613d6e565b612212611851565b61025e546001600160a01b031685612ab2565b610b3561223860a0850160808601613d6e565b612240611851565b8361224f8660608901356143cc565b612ab2565b60018055565b6000610b088383612afc565b60606001600160a01b0383163b6122ce5760405162461bcd60e51b815260206004820152602660248201527f416464726573733a2064656c65676174652063616c6c20746f206e6f6e2d636f6044820152651b9d1c9858dd60d21b6064820152608401610a61565b600080846001600160a01b0316846040516122e991906144cd565b600060405180830381855af49150503d8060008114612324576040519150601f19603f3d011682016040523d82523d6000602084013e612329565b606091505b5091509150612351828260405180606001604052806027815260200161462f60279139612b26565b95945050505050565b60006123b683838080601f0160208091040260200160405190810160405280939291908181526020018383808284376000920191909152506123b092506123a49150889050612b3f565b805190602001206123be565b90612c33565b949350505050565b600061095c6123cb611be3565b8360405161190160f01b6020820152602281018390526042810182905260009060620160405160208183030381529060405280519060200120905092915050565b600080600061241d87878787612c57565b9150915061242a81612d1b565b5095945050505050565b6001600160a01b0381166000908152610161602052604090208054600181018255905b50919050565b600061095c825490565b600054610100900460ff1661248e5760405162461bcd60e51b8152600401610a61906144e9565b612496612e69565b565b600054610100900460ff166124bf5760405162461bcd60e51b8152600401610a61906144e9565b60005b8151811015610bd3576001606560008484815181106124e3576124e36143e3565b6020908102919091018101516001600160a01b03168252810191909152604001600020805460ff19169115159190911790558061251f81614440565b9150506124c2565b600054610100900460ff1661254e5760405162461bcd60e51b8152600401610a61906144e9565b610c8881604051806040016040528060018152602001603160f81b815250612e90565b600054610100900460ff166125985760405162461bcd60e51b8152600401610a61906144e9565b81516125ab9060cc906020850190613b89565b508051610b359060cd906020840190613b89565b610bd38282611bc0565b3360009081526065602052604081205460ff16156125ee575060131936013560601c90565b503390565b6125fd8282610ecc565b610bd35761260a81612ed3565b612615836020612ee5565b604051602001612626929190614534565b60408051601f198184030181529082905262461bcd60e51b8252610a6191600401613c94565b61266560008051602061460f8339815191526000610ecc565b15801561267a57506001600160a01b03831615155b801561268e57506001600160a01b03821615155b15610b35576126ab60008051602061460f83398151915284610ecc565b806126c957506126c960008051602061460f83398151915283610ecc565b610b355760405162461bcd60e51b81526020600482015260156024820152743a3930b739b332b939903932b9ba3934b1ba32b21760591b6044820152606401610a61565b610b35838383613081565b6127228282610ecc565b610bd35760008281526101f8602090815260408083206001600160a01b03851684529091529020805460ff1916600117905561275c611851565b6001600160a01b0316816001600160a01b0316837f2f8788117e7eff1d82e926ec794901d17c78024a50270940304540a733656f0d60405160405180910390a45050565b6000610b08836001600160a01b0384166130b4565b6127bf8282610ecc565b15610bd35760008281526101f8602090815260408083206001600160a01b03851684529091529020805460ff191690556127f7611851565b6001600160a01b0316816001600160a01b0316837ff6391f5c32d9c69d2a47ea670b442974b53935d1edc7fd64eb21e047a839171b60405160405180910390a45050565b6000610b08836001600160a01b038416613103565b60008161285f57506000919050565b6000600161286c846131f6565b901c6001901b9050600181848161288557612885614495565b048201901c9050600181848161289d5761289d614495565b048201901c905060018184816128b5576128b5614495565b048201901c905060018184816128cd576128cd614495565b048201901c905060018184816128e5576128e5614495565b048201901c905060018184816128fd576128fd614495565b048201901c9050600181848161291557612915614495565b048201901c9050610b088182858161292f5761292f614495565b0461328a565b600061294460028484186144ab565b610b0890848416614307565b61295a82826132a0565b610f106101966133e7836133f3565b610bd38282613547565b816001600160a01b0316836001600160a01b0316141580156129955750600081115b15610b35576001600160a01b03831615612a24576001600160a01b03831660009081526101956020526040812081906129d1906133e7856133f3565b91509150846001600160a01b03167fdec2bacdd2f05b59de34da9b523dff8be42e5e38e818c82fdb0bae774387a7248383604051612a19929190918252602082015260400190565b60405180910390a250505b6001600160a01b03821615610b35576001600160a01b0382166000908152610195602052604081208190612a5b906135d2856133f3565b91509150836001600160a01b03167fdec2bacdd2f05b59de34da9b523dff8be42e5e38e818c82fdb0bae774387a7248383604051612aa3929190918252602082015260400190565b60405180910390a25050505050565b80612abc57610f10565b6001600160a01b03841673eeeeeeeeeeeeeeeeeeeeeeeeeeeeeeeeeeeeeeee1415612af057612aeb82826135de565b610f10565b610f1084848484613681565b6000826000018281548110612b1357612b136143e3565b9060005260206000200154905092915050565b60608315612b35575081610b08565b610b0883836136da565b60607fbac245dbd9b8b2bb334c0675db20a7a7a8506de563990c4ce3207f4c3c5b75e1612b6f6020840184613d6e565b612b7f6040850160208601613d6e565b60408501356060860135612b9960a0880160808901613d6e565b612ba960c0890160a08a0161445b565b612bb960e08a0160c08b0161445b565b6040805160208101999099526001600160a01b03978816908901529486166060880152608087019390935260a086019190915290921660c08401526001600160801b0391821660e0808501919091529116610100830152830135610120820152610140016040516020818303038152906040529050919050565b6000806000612c428585613704565b91509150612c4f81612d1b565b509392505050565b6000807f7fffffffffffffffffffffffffffffff5d576e7357a4501ddfe92f46681b20a0831115612c8e5750600090506003612d12565b6040805160008082526020820180845289905260ff881692820192909252606081018690526080810185905260019060a0016020604051602081039080840390855afa158015612ce2573d6000803e3d6000fd5b5050604051601f1901519150506001600160a01b038116612d0b57600060019250925050612d12565b9150600090505b94509492505050565b6000816004811115612d2f57612d2f6145a9565b1415612d385750565b6001816004811115612d4c57612d4c6145a9565b1415612d9a5760405162461bcd60e51b815260206004820152601860248201527f45434453413a20696e76616c6964207369676e617475726500000000000000006044820152606401610a61565b6002816004811115612dae57612dae6145a9565b1415612dfc5760405162461bcd60e51b815260206004820152601f60248201527f45434453413a20696e76616c6964207369676e6174757265206c656e677468006044820152606401610a61565b6003816004811115612e1057612e106145a9565b1415610c885760405162461bcd60e51b815260206004820152602260248201527f45434453413a20696e76616c6964207369676e6174757265202773272076616c604482015261756560f01b6064820152608401610a61565b600054610100900460ff166122545760405162461bcd60e51b8152600401610a61906144e9565b600054610100900460ff16612eb75760405162461bcd60e51b8152600401610a61906144e9565b81516020928301208151919092012061012d9190915561012e55565b606061095c6001600160a01b03831660145b60606000612ef4836002614476565b612eff906002614307565b67ffffffffffffffff811115612f1757612f17614060565b6040519080825280601f01601f191660200182016040528015612f41576020820181803683370190505b509050600360fc1b81600081518110612f5c57612f5c6143e3565b60200101906001600160f81b031916908160001a905350600f60fb1b81600181518110612f8b57612f8b6143e3565b60200101906001600160f81b031916908160001a9053506000612faf846002614476565b612fba906001614307565b90505b6001811115613032576f181899199a1a9b1b9c1cb0b131b232b360811b85600f1660108110612fee57612fee6143e3565b1a60f81b828281518110613004576130046143e3565b60200101906001600160f81b031916908160001a90535060049490941c9361302b816145bf565b9050612fbd565b508315610b085760405162461bcd60e51b815260206004820181905260248201527f537472696e67733a20686578206c656e67746820696e73756666696369656e746044820152606401610a61565b6001600160a01b0383811660009081526101946020526040808220548584168352912054610b3592918216911683612973565b60008181526001830160205260408120546130fb5750815460018181018455600084815260208082209093018490558454848252828601909352604090209190915561095c565b50600061095c565b600081815260018301602052604081205480156131ec5760006131276001836143cc565b855490915060009061313b906001906143cc565b90508181146131a057600086600001828154811061315b5761315b6143e3565b906000526020600020015490508087600001848154811061317e5761317e6143e3565b6000918252602080832090910192909255918252600188019052604090208390555b85548690806131b1576131b16145d6565b60019003818190600052602060002001600090559055856001016000868152602001908152602001600020600090556001935050505061095c565b600091505061095c565b600080608083901c1561320b57608092831c92015b604083901c1561321d57604092831c92015b602083901c1561322f57602092831c92015b601083901c1561324157601092831c92015b600883901c1561325357600892831c92015b600483901c1561326557600492831c92015b600283901c1561327757600292831c92015b600183901c1561095c5760010192915050565b60008183106132995781610b08565b5090919050565b6001600160a01b0382166133005760405162461bcd60e51b815260206004820152602160248201527f45524332303a206275726e2066726f6d20746865207a65726f206164647265736044820152607360f81b6064820152608401610a61565b61330c8260008361264c565b6001600160a01b038216600090815260c96020526040902054818110156133805760405162461bcd60e51b815260206004820152602260248201527f45524332303a206275726e20616d6f756e7420657863656564732062616c616e604482015261636560f01b6064820152608401610a61565b6001600160a01b038316600081815260c960209081526040808320868603905560cb80548790039055518581529192917fddf252ad1be2c89b69c2b068fc378daa952ba7f163c4a11628f55a4df523b3ef910160405180910390a3610b358360008461270d565b6000610b0882846143cc565b825460009081908181156134405761341087611d3f6001856143cc565b60408051808201909152905463ffffffff8116825264010000000090046001600160e01b03166020820152613455565b60408051808201909152600080825260208201525b905080602001516001600160e01b0316935061347584868863ffffffff16565b925060008211801561348d5750805163ffffffff1643145b156134d25761349b8361374a565b6134aa88611d3f6001866143cc565b80546001600160e01b03929092166401000000000263ffffffff90921691909117905561353d565b8660405180604001604052806134e743611e50565b63ffffffff1681526020016134fb8661374a565b6001600160e01b0390811690915282546001810184556000938452602093849020835194909301519091166401000000000263ffffffff909316929092179101555b5050935093915050565b61355182826137b3565b60cb546001600160e01b0310156135c35760405162461bcd60e51b815260206004820152603060248201527f4552433230566f7465733a20746f74616c20737570706c79207269736b73206f60448201526f766572666c6f77696e6720766f74657360801b6064820152608401610a61565b610f106101966135d2836133f3565b6000610b088284614307565b6000826001600160a01b03168260405160006040518083038185875af1925050503d806000811461362b576040519150601f19603f3d011682016040523d82523d6000602084013e613630565b606091505b5050905080610b355760405162461bcd60e51b815260206004820152601c60248201527f6e617469766520746f6b656e207472616e73666572206661696c6564000000006044820152606401610a61565b816001600160a01b0316836001600160a01b031614156136a057610f10565b6001600160a01b0383163014156136c557612aeb6001600160a01b0385168383613888565b610f106001600160a01b0385168484846138eb565b8151156136ea5781518083602001fd5b8060405162461bcd60e51b8152600401610a619190613c94565b60008082516041141561373b5760208301516040840151606085015160001a61372f87828585612c57565b94509450505050613743565b506000905060025b9250929050565b60006001600160e01b03821115611eb55760405162461bcd60e51b815260206004820152602760248201527f53616665436173743a2076616c756520646f65736e27742066697420696e20326044820152663234206269747360c81b6064820152608401610a61565b6001600160a01b0382166138095760405162461bcd60e51b815260206004820152601f60248201527f45524332303a206d696e7420746f20746865207a65726f2061646472657373006044820152606401610a61565b6138156000838361264c565b8060cb60008282546138279190614307565b90915550506001600160a01b038216600081815260c960209081526040808320805486019055518481527fddf252ad1be2c89b69c2b068fc378daa952ba7f163c4a11628f55a4df523b3ef910160405180910390a3610bd36000838361270d565b6040516001600160a01b038316602482015260448101829052610b3590849063a9059cbb60e01b906064015b60408051601f198184030181529190526020810180516001600160e01b03166001600160e01b031990931692909217909152613923565b6040516001600160a01b0380851660248301528316604482015260648101829052610f109085906323b872dd60e01b906084016138b4565b6000613978826040518060400160405280602081526020017f5361666545524332303a206c6f772d6c6576656c2063616c6c206661696c6564815250856001600160a01b03166139f59092919063ffffffff16565b805190915015610b35578080602001905181019061399691906145ec565b610b355760405162461bcd60e51b815260206004820152602a60248201527f5361666545524332303a204552433230206f7065726174696f6e20646964206e6044820152691bdd081cdd58d8d9595960b21b6064820152608401610a61565b60606123b68484600085856001600160a01b0385163b613a575760405162461bcd60e51b815260206004820152601d60248201527f416464726573733a2063616c6c20746f206e6f6e2d636f6e74726163740000006044820152606401610a61565b600080866001600160a01b03168587604051613a7391906144cd565b60006040518083038185875af1925050503d8060008114613ab0576040519150601f19603f3d011682016040523d82523d6000602084013e613ab5565b606091505b5091509150613ac5828286613ad0565b979650505050505050565b60608315613adf575081610b08565b825115613aef5782518084602001fd5b8160405162461bcd60e51b8152600401610a619190613c94565b828054613b15906142bc565b90600052602060002090601f016020900481019282613b375760008555613b7d565b82601f10613b505782800160ff19823516178555613b7d565b82800160010185558215613b7d579182015b82811115613b7d578235825591602001919060010190613b62565b50611eb5929150613bfd565b828054613b95906142bc565b90600052602060002090601f016020900481019282613bb75760008555613b7d565b82601f10613bd057805160ff1916838001178555613b7d565b82800160010185558215613b7d579182015b82811115613b7d578251825591602001919060010190613be2565b5b80821115611eb55760008155600101613bfe565b600060208284031215613c2457600080fd5b81356001600160e01b031981168114610b0857600080fd5b60005b83811015613c57578181015183820152602001613c3f565b83811115610f105750506000910152565b60008151808452613c80816020860160208601613c3c565b601f01601f19169290920160200192915050565b602081526000610b086020830184613c68565b80356001600160a01b0381168114613cbe57600080fd5b919050565b60008060408385031215613cd657600080fd5b613cdf83613ca7565b946020939093013593505050565b600080600060608486031215613d0257600080fd5b613d0b84613ca7565b9250613d1960208501613ca7565b9150604084013590509250925092565b600060208284031215613d3b57600080fd5b5035919050565b60008060408385031215613d5557600080fd5b82359150613d6560208401613ca7565b90509250929050565b600060208284031215613d8057600080fd5b610b0882613ca7565b60008083601f840112613d9b57600080fd5b50813567ffffffffffffffff811115613db357600080fd5b60208301915083602082850101111561374357600080fd5b6000806000838503610120811215613de257600080fd5b61010080821215613df257600080fd5b859450840135905067ffffffffffffffff811115613e0f57600080fd5b613e1b86828701613d89565b9497909650939450505050565b60008060408385031215613e3b57600080fd5b50508035926020909101359150565b60008060208385031215613e5d57600080fd5b823567ffffffffffffffff811115613e7457600080fd5b613e8085828601613d89565b90969095509350505050565b60008060208385031215613e9f57600080fd5b823567ffffffffffffffff80821115613eb757600080fd5b818501915085601f830112613ecb57600080fd5b813581811115613eda57600080fd5b8660208260051b8501011115613eef57600080fd5b60209290920196919550909350505050565b6000602080830181845280855180835260408601915060408160051b870101925083870160005b82811015613f5657603f19888603018452613f44858351613c68565b94509285019290850190600101613f28565b5092979650505050505050565b803560ff81168114613cbe57600080fd5b60008060008060008060c08789031215613f8d57600080fd5b613f9687613ca7565b95506020870135945060408701359350613fb260608801613f63565b92506080870135915060a087013590509295509295509295565b600080600080600080600060e0888a031215613fe757600080fd5b613ff088613ca7565b9650613ffe60208901613ca7565b9550604088013594506060880135935061401a60808901613f63565b925060a0880135915060c0880135905092959891949750929550565b6000806040838503121561404957600080fd5b61405283613ca7565b9150613d6560208401613ca7565b634e487b7160e01b600052604160045260246000fd5b604051601f8201601f1916810167ffffffffffffffff8111828210171561409f5761409f614060565b604052919050565b600082601f8301126140b857600080fd5b813567ffffffffffffffff8111156140d2576140d2614060565b6140e5601f8201601f1916602001614076565b8181528460208386010111156140fa57600080fd5b816020850160208301376000918101602001919091529392505050565b600082601f83011261412857600080fd5b8135602067ffffffffffffffff82111561414457614144614060565b8160051b614153828201614076565b928352848101820192828101908785111561416d57600080fd5b83870192505b84831015613ac55761418483613ca7565b82529183019190830190614173565b600080600080600080600080610100898b0312156141b057600080fd5b6141b989613ca7565b9750602089013567ffffffffffffffff808211156141d657600080fd5b6141e28c838d016140a7565b985060408b01359150808211156141f857600080fd5b6142048c838d016140a7565b975060608b013591508082111561421a57600080fd5b6142268c838d016140a7565b965060808b013591508082111561423c57600080fd5b506142498b828c01614117565b94505061425860a08a01613ca7565b925061426660c08a01613ca7565b915060e089013590509295985092959890939650565b6000806040838503121561428f57600080fd5b61429883613ca7565b9150602083013563ffffffff811681146142b157600080fd5b809150509250929050565b600181811c908216806142d057607f821691505b6020821081141561245757634e487b7160e01b600052602260045260246000fd5b634e487b7160e01b600052601160045260246000fd5b6000821982111561431a5761431a6142f1565b500190565b80356001600160801b0381168114613cbe57600080fd5b61010081016001600160a01b038061434d85613ca7565b1683528061435d60208601613ca7565b16602084015260408401356040840152606084013560608401528061438460808601613ca7565b1660808401525061439760a0840161431f565b6001600160801b0380821660a0850152806143b460c0870161431f565b1660c0850152505060e083013560e083015292915050565b6000828210156143de576143de6142f1565b500390565b634e487b7160e01b600052603260045260246000fd5b6000808335601e1984360301811261441057600080fd5b83018035915067ffffffffffffffff82111561442b57600080fd5b60200191503681900382131561374357600080fd5b6000600019821415614454576144546142f1565b5060010190565b60006020828403121561446d57600080fd5b610b088261431f565b6000816000190483118215151615614490576144906142f1565b500290565b634e487b7160e01b600052601260045260246000fd5b6000826144c857634e487b7160e01b600052601260045260246000fd5b500490565b600082516144df818460208701613c3c565b9190910192915050565b6020808252602b908201527f496e697469616c697a61626c653a20636f6e7472616374206973206e6f74206960408201526a6e697469616c697a696e6760a81b606082015260800190565b7f416363657373436f6e74726f6c3a206163636f756e742000000000000000000081526000835161456c816017850160208801613c3c565b7001034b99036b4b9b9b4b733903937b6329607d1b601791840191820152835161459d816028840160208801613c3c565b01602801949350505050565b634e487b7160e01b600052602160045260246000fd5b6000816145ce576145ce6142f1565b506000190190565b634e487b7160e01b600052603160045260246000fd5b6000602082840312156145fe57600080fd5b81518015158114610b0857600080fdfe8502233096d909befbda0999bb8ea2f3a6be3c138b9fbf003752a4c8bce86f6c416464726573733a206c6f772d6c6576656c2064656c65676174652063616c6c206661696c6564a26469706673582212208814617940108a544273a2692129dd14a25fb164c5a526f5ad1e791d42d6f45064736f6c634300080b0033",
  "linkReferences": {},
  "deployedLinkReferences": {}
}