{
  "_format": "hh-sol-artifact-1",
  "contractName": "DropERC1155",
  "sourceName": "@thirdweb-dev/contracts/drop/DropERC1155.sol",
  "abi": [
    {
      "inputs": [],
      "stateMutability": "nonpayable",
      "type": "constructor"
    },
    {
      "anonymous": false,
      "inputs": [
        {
          "indexed": true,
          "internalType": "address",
          "name": "account",
          "type": "address"
        },
        {
          "indexed": true,
          "internalType": "address",
          "name": "operator",
          "type": "address"
        },
        {
          "indexed": false,
          "internalType": "bool",
          "name": "approved",
          "type": "bool"
        }
      ],
      "name": "ApprovalForAll",
      "type": "event"
    },
    {
      "anonymous": false,
      "inputs": [
        {
          "indexed": true,
          "internalType": "uint256",
          "name": "tokenId",
          "type": "uint256"
        },
        {
          "components": [
            {
              "internalType": "uint256",
              "name": "startTimestamp",
              "type": "uint256"
            },
            {
              "internalType": "uint256",
              "name": "maxClaimableSupply",
              "type": "uint256"
            },
            {
              "internalType": "uint256",
              "name": "supplyClaimed",
              "type": "uint256"
            },
            {
              "internalType": "uint256",
              "name": "quantityLimitPerWallet",
              "type": "uint256"
            },
            {
              "internalType": "bytes32",
              "name": "merkleRoot",
              "type": "bytes32"
            },
            {
              "internalType": "uint256",
              "name": "pricePerToken",
              "type": "uint256"
            },
            {
              "internalType": "address",
              "name": "currency",
              "type": "address"
            },
            {
              "internalType": "string",
              "name": "metadata",
              "type": "string"
            }
          ],
          "indexed": false,
          "internalType": "struct IClaimCondition.ClaimCondition[]",
          "name": "claimConditions",
          "type": "tuple[]"
        },
        {
          "indexed": false,
          "internalType": "bool",
          "name": "resetEligibility",
          "type": "bool"
        }
      ],
      "name": "ClaimConditionsUpdated",
      "type": "event"
    },
    {
      "anonymous": false,
      "inputs": [
        {
          "indexed": false,
          "internalType": "string",
          "name": "prevURI",
          "type": "string"
        },
        {
          "indexed": false,
          "internalType": "string",
          "name": "newURI",
          "type": "string"
        }
      ],
      "name": "ContractURIUpdated",
      "type": "event"
    },
    {
      "anonymous": false,
      "inputs": [
        {
          "indexed": true,
          "internalType": "address",
          "name": "newRoyaltyRecipient",
          "type": "address"
        },
        {
          "indexed": false,
          "internalType": "uint256",
          "name": "newRoyaltyBps",
          "type": "uint256"
        }
      ],
      "name": "DefaultRoyalty",
      "type": "event"
    },
    {
      "anonymous": false,
      "inputs": [
        {
          "indexed": false,
          "internalType": "uint8",
          "name": "version",
          "type": "uint8"
        }
      ],
      "name": "Initialized",
      "type": "event"
    },
    {
      "anonymous": false,
      "inputs": [
        {
          "indexed": false,
          "internalType": "uint256",
          "name": "tokenId",
          "type": "uint256"
        },
        {
          "indexed": false,
          "internalType": "uint256",
          "name": "maxTotalSupply",
          "type": "uint256"
        }
      ],
      "name": "MaxTotalSupplyUpdated",
      "type": "event"
    },
    {
      "anonymous": false,
      "inputs": [
        {
          "indexed": true,
          "internalType": "address",
          "name": "prevOwner",
          "type": "address"
        },
        {
          "indexed": true,
          "internalType": "address",
          "name": "newOwner",
          "type": "address"
        }
      ],
      "name": "OwnerUpdated",
      "type": "event"
    },
    {
      "anonymous": false,
      "inputs": [
        {
          "indexed": true,
          "internalType": "address",
          "name": "platformFeeRecipient",
          "type": "address"
        },
        {
          "indexed": false,
          "internalType": "uint256",
          "name": "platformFeeBps",
          "type": "uint256"
        }
      ],
      "name": "PlatformFeeInfoUpdated",
      "type": "event"
    },
    {
      "anonymous": false,
      "inputs": [
        {
          "indexed": true,
          "internalType": "address",
          "name": "recipient",
          "type": "address"
        }
      ],
      "name": "PrimarySaleRecipientUpdated",
      "type": "event"
    },
    {
      "anonymous": false,
      "inputs": [
        {
          "indexed": true,
          "internalType": "bytes32",
          "name": "role",
          "type": "bytes32"
        },
        {
          "indexed": true,
          "internalType": "bytes32",
          "name": "previousAdminRole",
          "type": "bytes32"
        },
        {
          "indexed": true,
          "internalType": "bytes32",
          "name": "newAdminRole",
          "type": "bytes32"
        }
      ],
      "name": "RoleAdminChanged",
      "type": "event"
    },
    {
      "anonymous": false,
      "inputs": [
        {
          "indexed": true,
          "internalType": "bytes32",
          "name": "role",
          "type": "bytes32"
        },
        {
          "indexed": true,
          "internalType": "address",
          "name": "account",
          "type": "address"
        },
        {
          "indexed": true,
          "internalType": "address",
          "name": "sender",
          "type": "address"
        }
      ],
      "name": "RoleGranted",
      "type": "event"
    },
    {
      "anonymous": false,
      "inputs": [
        {
          "indexed": true,
          "internalType": "bytes32",
          "name": "role",
          "type": "bytes32"
        },
        {
          "indexed": true,
          "internalType": "address",
          "name": "account",
          "type": "address"
        },
        {
          "indexed": true,
          "internalType": "address",
          "name": "sender",
          "type": "address"
        }
      ],
      "name": "RoleRevoked",
      "type": "event"
    },
    {
      "anonymous": false,
      "inputs": [
        {
          "indexed": true,
          "internalType": "uint256",
          "name": "tokenId",
          "type": "uint256"
        },
        {
          "indexed": true,
          "internalType": "address",
          "name": "royaltyRecipient",
          "type": "address"
        },
        {
          "indexed": false,
          "internalType": "uint256",
          "name": "royaltyBps",
          "type": "uint256"
        }
      ],
      "name": "RoyaltyForToken",
      "type": "event"
    },
    {
      "anonymous": false,
      "inputs": [
        {
          "indexed": true,
          "internalType": "uint256",
          "name": "tokenId",
          "type": "uint256"
        },
        {
          "indexed": false,
          "internalType": "address",
          "name": "saleRecipient",
          "type": "address"
        }
      ],
      "name": "SaleRecipientForTokenUpdated",
      "type": "event"
    },
    {
      "anonymous": false,
      "inputs": [
        {
          "indexed": true,
          "internalType": "uint256",
          "name": "claimConditionIndex",
          "type": "uint256"
        },
        {
          "indexed": true,
          "internalType": "address",
          "name": "claimer",
          "type": "address"
        },
        {
          "indexed": true,
          "internalType": "address",
          "name": "receiver",
          "type": "address"
        },
        {
          "indexed": false,
          "internalType": "uint256",
          "name": "tokenId",
          "type": "uint256"
        },
        {
          "indexed": false,
          "internalType": "uint256",
          "name": "quantityClaimed",
          "type": "uint256"
        }
      ],
      "name": "TokensClaimed",
      "type": "event"
    },
    {
      "anonymous": false,
      "inputs": [
        {
          "indexed": true,
          "internalType": "uint256",
          "name": "startTokenId",
          "type": "uint256"
        },
        {
          "indexed": false,
          "internalType": "uint256",
          "name": "endTokenId",
          "type": "uint256"
        },
        {
          "indexed": false,
          "internalType": "string",
          "name": "baseURI",
          "type": "string"
        },
        {
          "indexed": false,
          "internalType": "bytes",
          "name": "encryptedBaseURI",
          "type": "bytes"
        }
      ],
      "name": "TokensLazyMinted",
      "type": "event"
    },
    {
      "anonymous": false,
      "inputs": [
        {
          "indexed": true,
          "internalType": "address",
          "name": "operator",
          "type": "address"
        },
        {
          "indexed": true,
          "internalType": "address",
          "name": "from",
          "type": "address"
        },
        {
          "indexed": true,
          "internalType": "address",
          "name": "to",
          "type": "address"
        },
        {
          "indexed": false,
          "internalType": "uint256[]",
          "name": "ids",
          "type": "uint256[]"
        },
        {
          "indexed": false,
          "internalType": "uint256[]",
          "name": "values",
          "type": "uint256[]"
        }
      ],
      "name": "TransferBatch",
      "type": "event"
    },
    {
      "anonymous": false,
      "inputs": [
        {
          "indexed": true,
          "internalType": "address",
          "name": "operator",
          "type": "address"
        },
        {
          "indexed": true,
          "internalType": "address",
          "name": "from",
          "type": "address"
        },
        {
          "indexed": true,
          "internalType": "address",
          "name": "to",
          "type": "address"
        },
        {
          "indexed": false,
          "internalType": "uint256",
          "name": "id",
          "type": "uint256"
        },
        {
          "indexed": false,
          "internalType": "uint256",
          "name": "value",
          "type": "uint256"
        }
      ],
      "name": "TransferSingle",
      "type": "event"
    },
    {
      "anonymous": false,
      "inputs": [
        {
          "indexed": false,
          "internalType": "string",
          "name": "value",
          "type": "string"
        },
        {
          "indexed": true,
          "internalType": "uint256",
          "name": "id",
          "type": "uint256"
        }
      ],
      "name": "URI",
      "type": "event"
    },
    {
      "inputs": [],
      "name": "DEFAULT_ADMIN_ROLE",
      "outputs": [
        {
          "internalType": "bytes32",
          "name": "",
          "type": "bytes32"
        }
      ],
      "stateMutability": "view",
      "type": "function"
    },
    {
      "inputs": [
        {
          "internalType": "address",
          "name": "account",
          "type": "address"
        },
        {
          "internalType": "uint256",
          "name": "id",
          "type": "uint256"
        }
      ],
      "name": "balanceOf",
      "outputs": [
        {
          "internalType": "uint256",
          "name": "",
          "type": "uint256"
        }
      ],
      "stateMutability": "view",
      "type": "function"
    },
    {
      "inputs": [
        {
          "internalType": "address[]",
          "name": "accounts",
          "type": "address[]"
        },
        {
          "internalType": "uint256[]",
          "name": "ids",
          "type": "uint256[]"
        }
      ],
      "name": "balanceOfBatch",
      "outputs": [
        {
          "internalType": "uint256[]",
          "name": "",
          "type": "uint256[]"
        }
      ],
      "stateMutability": "view",
      "type": "function"
    },
    {
      "inputs": [
        {
          "internalType": "address",
          "name": "account",
          "type": "address"
        },
        {
          "internalType": "uint256[]",
          "name": "ids",
          "type": "uint256[]"
        },
        {
          "internalType": "uint256[]",
          "name": "values",
          "type": "uint256[]"
        }
      ],
      "name": "burnBatch",
      "outputs": [],
      "stateMutability": "nonpayable",
      "type": "function"
    },
    {
      "inputs": [
        {
          "internalType": "address",
          "name": "_receiver",
          "type": "address"
        },
        {
          "internalType": "uint256",
          "name": "_tokenId",
          "type": "uint256"
        },
        {
          "internalType": "uint256",
          "name": "_quantity",
          "type": "uint256"
        },
        {
          "internalType": "address",
          "name": "_currency",
          "type": "address"
        },
        {
          "internalType": "uint256",
          "name": "_pricePerToken",
          "type": "uint256"
        },
        {
          "components": [
            {
              "internalType": "bytes32[]",
              "name": "proof",
              "type": "bytes32[]"
            },
            {
              "internalType": "uint256",
              "name": "quantityLimitPerWallet",
              "type": "uint256"
            },
            {
              "internalType": "uint256",
              "name": "pricePerToken",
              "type": "uint256"
            },
            {
              "internalType": "address",
              "name": "currency",
              "type": "address"
            }
          ],
          "internalType": "struct IDrop1155.AllowlistProof",
          "name": "_allowlistProof",
          "type": "tuple"
        },
        {
          "internalType": "bytes",
          "name": "_data",
          "type": "bytes"
        }
      ],
      "name": "claim",
      "outputs": [],
      "stateMutability": "payable",
      "type": "function"
    },
    {
      "inputs": [
        {
          "internalType": "uint256",
          "name": "",
          "type": "uint256"
        }
      ],
      "name": "claimCondition",
      "outputs": [
        {
          "internalType": "uint256",
          "name": "currentStartId",
          "type": "uint256"
        },
        {
          "internalType": "uint256",
          "name": "count",
          "type": "uint256"
        }
      ],
      "stateMutability": "view",
      "type": "function"
    },
    {
      "inputs": [],
      "name": "contractType",
      "outputs": [
        {
          "internalType": "bytes32",
          "name": "",
          "type": "bytes32"
        }
      ],
      "stateMutability": "pure",
      "type": "function"
    },
    {
      "inputs": [],
      "name": "contractURI",
      "outputs": [
        {
          "internalType": "string",
          "name": "",
          "type": "string"
        }
      ],
      "stateMutability": "view",
      "type": "function"
    },
    {
      "inputs": [],
      "name": "contractVersion",
      "outputs": [
        {
          "internalType": "uint8",
          "name": "",
          "type": "uint8"
        }
      ],
      "stateMutability": "pure",
      "type": "function"
    },
    {
      "inputs": [
        {
          "internalType": "uint256",
          "name": "_tokenId",
          "type": "uint256"
        }
      ],
      "name": "getActiveClaimConditionId",
      "outputs": [
        {
          "internalType": "uint256",
          "name": "",
          "type": "uint256"
        }
      ],
      "stateMutability": "view",
      "type": "function"
    },
    {
      "inputs": [],
      "name": "getBaseURICount",
      "outputs": [
        {
          "internalType": "uint256",
          "name": "",
          "type": "uint256"
        }
      ],
      "stateMutability": "view",
      "type": "function"
    },
    {
      "inputs": [
        {
          "internalType": "uint256",
          "name": "_index",
          "type": "uint256"
        }
      ],
      "name": "getBatchIdAtIndex",
      "outputs": [
        {
          "internalType": "uint256",
          "name": "",
          "type": "uint256"
        }
      ],
      "stateMutability": "view",
      "type": "function"
    },
    {
      "inputs": [
        {
          "internalType": "uint256",
          "name": "_tokenId",
          "type": "uint256"
        },
        {
          "internalType": "uint256",
          "name": "_conditionId",
          "type": "uint256"
        }
      ],
      "name": "getClaimConditionById",
      "outputs": [
        {
          "components": [
            {
              "internalType": "uint256",
              "name": "startTimestamp",
              "type": "uint256"
            },
            {
              "internalType": "uint256",
              "name": "maxClaimableSupply",
              "type": "uint256"
            },
            {
              "internalType": "uint256",
              "name": "supplyClaimed",
              "type": "uint256"
            },
            {
              "internalType": "uint256",
              "name": "quantityLimitPerWallet",
              "type": "uint256"
            },
            {
              "internalType": "bytes32",
              "name": "merkleRoot",
              "type": "bytes32"
            },
            {
              "internalType": "uint256",
              "name": "pricePerToken",
              "type": "uint256"
            },
            {
              "internalType": "address",
              "name": "currency",
              "type": "address"
            },
            {
              "internalType": "string",
              "name": "metadata",
              "type": "string"
            }
          ],
          "internalType": "struct IClaimCondition.ClaimCondition",
          "name": "condition",
          "type": "tuple"
        }
      ],
      "stateMutability": "view",
      "type": "function"
    },
    {
      "inputs": [],
      "name": "getDefaultRoyaltyInfo",
      "outputs": [
        {
          "internalType": "address",
          "name": "",
          "type": "address"
        },
        {
          "internalType": "uint16",
          "name": "",
          "type": "uint16"
        }
      ],
      "stateMutability": "view",
      "type": "function"
    },
    {
      "inputs": [],
      "name": "getPlatformFeeInfo",
      "outputs": [
        {
          "internalType": "address",
          "name": "",
          "type": "address"
        },
        {
          "internalType": "uint16",
          "name": "",
          "type": "uint16"
        }
      ],
      "stateMutability": "view",
      "type": "function"
    },
    {
      "inputs": [
        {
          "internalType": "bytes32",
          "name": "role",
          "type": "bytes32"
        }
      ],
      "name": "getRoleAdmin",
      "outputs": [
        {
          "internalType": "bytes32",
          "name": "",
          "type": "bytes32"
        }
      ],
      "stateMutability": "view",
      "type": "function"
    },
    {
      "inputs": [
        {
          "internalType": "bytes32",
          "name": "role",
          "type": "bytes32"
        },
        {
          "internalType": "uint256",
          "name": "index",
          "type": "uint256"
        }
      ],
      "name": "getRoleMember",
      "outputs": [
        {
          "internalType": "address",
          "name": "member",
          "type": "address"
        }
      ],
      "stateMutability": "view",
      "type": "function"
    },
    {
      "inputs": [
        {
          "internalType": "bytes32",
          "name": "role",
          "type": "bytes32"
        }
      ],
      "name": "getRoleMemberCount",
      "outputs": [
        {
          "internalType": "uint256",
          "name": "count",
          "type": "uint256"
        }
      ],
      "stateMutability": "view",
      "type": "function"
    },
    {
      "inputs": [
        {
          "internalType": "uint256",
          "name": "_tokenId",
          "type": "uint256"
        }
      ],
      "name": "getRoyaltyInfoForToken",
      "outputs": [
        {
          "internalType": "address",
          "name": "",
          "type": "address"
        },
        {
          "internalType": "uint16",
          "name": "",
          "type": "uint16"
        }
      ],
      "stateMutability": "view",
      "type": "function"
    },
    {
      "inputs": [
        {
          "internalType": "uint256",
          "name": "_tokenId",
          "type": "uint256"
        },
        {
          "internalType": "uint256",
          "name": "_conditionId",
          "type": "uint256"
        },
        {
          "internalType": "address",
          "name": "_claimer",
          "type": "address"
        }
      ],
      "name": "getSupplyClaimedByWallet",
      "outputs": [
        {
          "internalType": "uint256",
          "name": "supplyClaimedByWallet",
          "type": "uint256"
        }
      ],
      "stateMutability": "view",
      "type": "function"
    },
    {
      "inputs": [
        {
          "internalType": "bytes32",
          "name": "role",
          "type": "bytes32"
        },
        {
          "internalType": "address",
          "name": "account",
          "type": "address"
        }
      ],
      "name": "grantRole",
      "outputs": [],
      "stateMutability": "nonpayable",
      "type": "function"
    },
    {
      "inputs": [
        {
          "internalType": "bytes32",
          "name": "role",
          "type": "bytes32"
        },
        {
          "internalType": "address",
          "name": "account",
          "type": "address"
        }
      ],
      "name": "hasRole",
      "outputs": [
        {
          "internalType": "bool",
          "name": "",
          "type": "bool"
        }
      ],
      "stateMutability": "view",
      "type": "function"
    },
    {
      "inputs": [
        {
          "internalType": "bytes32",
          "name": "role",
          "type": "bytes32"
        },
        {
          "internalType": "address",
          "name": "account",
          "type": "address"
        }
      ],
      "name": "hasRoleWithSwitch",
      "outputs": [
        {
          "internalType": "bool",
          "name": "",
          "type": "bool"
        }
      ],
      "stateMutability": "view",
      "type": "function"
    },
    {
      "inputs": [
        {
          "internalType": "address",
          "name": "_defaultAdmin",
          "type": "address"
        },
        {
          "internalType": "string",
          "name": "_name",
          "type": "string"
        },
        {
          "internalType": "string",
          "name": "_symbol",
          "type": "string"
        },
        {
          "internalType": "string",
          "name": "_contractURI",
          "type": "string"
        },
        {
          "internalType": "address[]",
          "name": "_trustedForwarders",
          "type": "address[]"
        },
        {
          "internalType": "address",
          "name": "_saleRecipient",
          "type": "address"
        },
        {
          "internalType": "address",
          "name": "_royaltyRecipient",
          "type": "address"
        },
        {
          "internalType": "uint128",
          "name": "_royaltyBps",
          "type": "uint128"
        },
        {
          "internalType": "uint128",
          "name": "_platformFeeBps",
          "type": "uint128"
        },
        {
          "internalType": "address",
          "name": "_platformFeeRecipient",
          "type": "address"
        }
      ],
      "name": "initialize",
      "outputs": [],
      "stateMutability": "nonpayable",
      "type": "function"
    },
    {
      "inputs": [
        {
          "internalType": "address",
          "name": "account",
          "type": "address"
        },
        {
          "internalType": "address",
          "name": "operator",
          "type": "address"
        }
      ],
      "name": "isApprovedForAll",
      "outputs": [
        {
          "internalType": "bool",
          "name": "",
          "type": "bool"
        }
      ],
      "stateMutability": "view",
      "type": "function"
    },
    {
      "inputs": [
        {
          "internalType": "address",
          "name": "forwarder",
          "type": "address"
        }
      ],
      "name": "isTrustedForwarder",
      "outputs": [
        {
          "internalType": "bool",
          "name": "",
          "type": "bool"
        }
      ],
      "stateMutability": "view",
      "type": "function"
    },
    {
      "inputs": [
        {
          "internalType": "uint256",
          "name": "_amount",
          "type": "uint256"
        },
        {
          "internalType": "string",
          "name": "_baseURIForTokens",
          "type": "string"
        },
        {
          "internalType": "bytes",
          "name": "_data",
          "type": "bytes"
        }
      ],
      "name": "lazyMint",
      "outputs": [
        {
          "internalType": "uint256",
          "name": "batchId",
          "type": "uint256"
        }
      ],
      "stateMutability": "nonpayable",
      "type": "function"
    },
    {
      "inputs": [
        {
          "internalType": "uint256",
          "name": "",
          "type": "uint256"
        }
      ],
      "name": "maxTotalSupply",
      "outputs": [
        {
          "internalType": "uint256",
          "name": "",
          "type": "uint256"
        }
      ],
      "stateMutability": "view",
      "type": "function"
    },
    {
      "inputs": [
        {
          "internalType": "bytes[]",
          "name": "data",
          "type": "bytes[]"
        }
      ],
      "name": "multicall",
      "outputs": [
        {
          "internalType": "bytes[]",
          "name": "results",
          "type": "bytes[]"
        }
      ],
      "stateMutability": "nonpayable",
      "type": "function"
    },
    {
      "inputs": [],
      "name": "name",
      "outputs": [
        {
          "internalType": "string",
          "name": "",
          "type": "string"
        }
      ],
      "stateMutability": "view",
      "type": "function"
    },
    {
      "inputs": [],
      "name": "nextTokenIdToMint",
      "outputs": [
        {
          "internalType": "uint256",
          "name": "",
          "type": "uint256"
        }
      ],
      "stateMutability": "view",
      "type": "function"
    },
    {
      "inputs": [],
      "name": "owner",
      "outputs": [
        {
          "internalType": "address",
          "name": "",
          "type": "address"
        }
      ],
      "stateMutability": "view",
      "type": "function"
    },
    {
      "inputs": [],
      "name": "primarySaleRecipient",
      "outputs": [
        {
          "internalType": "address",
          "name": "",
          "type": "address"
        }
      ],
      "stateMutability": "view",
      "type": "function"
    },
    {
      "inputs": [
        {
          "internalType": "bytes32",
          "name": "role",
          "type": "bytes32"
        },
        {
          "internalType": "address",
          "name": "account",
          "type": "address"
        }
      ],
      "name": "renounceRole",
      "outputs": [],
      "stateMutability": "nonpayable",
      "type": "function"
    },
    {
      "inputs": [
        {
          "internalType": "bytes32",
          "name": "role",
          "type": "bytes32"
        },
        {
          "internalType": "address",
          "name": "account",
          "type": "address"
        }
      ],
      "name": "revokeRole",
      "outputs": [],
      "stateMutability": "nonpayable",
      "type": "function"
    },
    {
      "inputs": [
        {
          "internalType": "uint256",
          "name": "tokenId",
          "type": "uint256"
        },
        {
          "internalType": "uint256",
          "name": "salePrice",
          "type": "uint256"
        }
      ],
      "name": "royaltyInfo",
      "outputs": [
        {
          "internalType": "address",
          "name": "receiver",
          "type": "address"
        },
        {
          "internalType": "uint256",
          "name": "royaltyAmount",
          "type": "uint256"
        }
      ],
      "stateMutability": "view",
      "type": "function"
    },
    {
      "inputs": [
        {
          "internalType": "address",
          "name": "from",
          "type": "address"
        },
        {
          "internalType": "address",
          "name": "to",
          "type": "address"
        },
        {
          "internalType": "uint256[]",
          "name": "ids",
          "type": "uint256[]"
        },
        {
          "internalType": "uint256[]",
          "name": "amounts",
          "type": "uint256[]"
        },
        {
          "internalType": "bytes",
          "name": "data",
          "type": "bytes"
        }
      ],
      "name": "safeBatchTransferFrom",
      "outputs": [],
      "stateMutability": "nonpayable",
      "type": "function"
    },
    {
      "inputs": [
        {
          "internalType": "address",
          "name": "from",
          "type": "address"
        },
        {
          "internalType": "address",
          "name": "to",
          "type": "address"
        },
        {
          "internalType": "uint256",
          "name": "id",
          "type": "uint256"
        },
        {
          "internalType": "uint256",
          "name": "amount",
          "type": "uint256"
        },
        {
          "internalType": "bytes",
          "name": "data",
          "type": "bytes"
        }
      ],
      "name": "safeTransferFrom",
      "outputs": [],
      "stateMutability": "nonpayable",
      "type": "function"
    },
    {
      "inputs": [
        {
          "internalType": "uint256",
          "name": "",
          "type": "uint256"
        }
      ],
      "name": "saleRecipient",
      "outputs": [
        {
          "internalType": "address",
          "name": "",
          "type": "address"
        }
      ],
      "stateMutability": "view",
      "type": "function"
    },
    {
      "inputs": [
        {
          "internalType": "address",
          "name": "operator",
          "type": "address"
        },
        {
          "internalType": "bool",
          "name": "approved",
          "type": "bool"
        }
      ],
      "name": "setApprovalForAll",
      "outputs": [],
      "stateMutability": "nonpayable",
      "type": "function"
    },
    {
      "inputs": [
        {
          "internalType": "uint256",
          "name": "_tokenId",
          "type": "uint256"
        },
        {
          "components": [
            {
              "internalType": "uint256",
              "name": "startTimestamp",
              "type": "uint256"
            },
            {
              "internalType": "uint256",
              "name": "maxClaimableSupply",
              "type": "uint256"
            },
            {
              "internalType": "uint256",
              "name": "supplyClaimed",
              "type": "uint256"
            },
            {
              "internalType": "uint256",
              "name": "quantityLimitPerWallet",
              "type": "uint256"
            },
            {
              "internalType": "bytes32",
              "name": "merkleRoot",
              "type": "bytes32"
            },
            {
              "internalType": "uint256",
              "name": "pricePerToken",
              "type": "uint256"
            },
            {
              "internalType": "address",
              "name": "currency",
              "type": "address"
            },
            {
              "internalType": "string",
              "name": "metadata",
              "type": "string"
            }
          ],
          "internalType": "struct IClaimCondition.ClaimCondition[]",
          "name": "_conditions",
          "type": "tuple[]"
        },
        {
          "internalType": "bool",
          "name": "_resetClaimEligibility",
          "type": "bool"
        }
      ],
      "name": "setClaimConditions",
      "outputs": [],
      "stateMutability": "nonpayable",
      "type": "function"
    },
    {
      "inputs": [
        {
          "internalType": "string",
          "name": "_uri",
          "type": "string"
        }
      ],
      "name": "setContractURI",
      "outputs": [],
      "stateMutability": "nonpayable",
      "type": "function"
    },
    {
      "inputs": [
        {
          "internalType": "address",
          "name": "_royaltyRecipient",
          "type": "address"
        },
        {
          "internalType": "uint256",
          "name": "_royaltyBps",
          "type": "uint256"
        }
      ],
      "name": "setDefaultRoyaltyInfo",
      "outputs": [],
      "stateMutability": "nonpayable",
      "type": "function"
    },
    {
      "inputs": [
        {
          "internalType": "uint256",
          "name": "_tokenId",
          "type": "uint256"
        },
        {
          "internalType": "uint256",
          "name": "_maxTotalSupply",
          "type": "uint256"
        }
      ],
      "name": "setMaxTotalSupply",
      "outputs": [],
      "stateMutability": "nonpayable",
      "type": "function"
    },
    {
      "inputs": [
        {
          "internalType": "address",
          "name": "_newOwner",
          "type": "address"
        }
      ],
      "name": "setOwner",
      "outputs": [],
      "stateMutability": "nonpayable",
      "type": "function"
    },
    {
      "inputs": [
        {
          "internalType": "address",
          "name": "_platformFeeRecipient",
          "type": "address"
        },
        {
          "internalType": "uint256",
          "name": "_platformFeeBps",
          "type": "uint256"
        }
      ],
      "name": "setPlatformFeeInfo",
      "outputs": [],
      "stateMutability": "nonpayable",
      "type": "function"
    },
    {
      "inputs": [
        {
          "internalType": "address",
          "name": "_saleRecipient",
          "type": "address"
        }
      ],
      "name": "setPrimarySaleRecipient",
      "outputs": [],
      "stateMutability": "nonpayable",
      "type": "function"
    },
    {
      "inputs": [
        {
          "internalType": "uint256",
          "name": "_tokenId",
          "type": "uint256"
        },
        {
          "internalType": "address",
          "name": "_recipient",
          "type": "address"
        },
        {
          "internalType": "uint256",
          "name": "_bps",
          "type": "uint256"
        }
      ],
      "name": "setRoyaltyInfoForToken",
      "outputs": [],
      "stateMutability": "nonpayable",
      "type": "function"
    },
    {
      "inputs": [
        {
          "internalType": "uint256",
          "name": "_tokenId",
          "type": "uint256"
        },
        {
          "internalType": "address",
          "name": "_saleRecipient",
          "type": "address"
        }
      ],
      "name": "setSaleRecipientForToken",
      "outputs": [],
      "stateMutability": "nonpayable",
      "type": "function"
    },
    {
      "inputs": [
        {
          "internalType": "bytes4",
          "name": "interfaceId",
          "type": "bytes4"
        }
      ],
      "name": "supportsInterface",
      "outputs": [
        {
          "internalType": "bool",
          "name": "",
          "type": "bool"
        }
      ],
      "stateMutability": "view",
      "type": "function"
    },
    {
      "inputs": [],
      "name": "symbol",
      "outputs": [
        {
          "internalType": "string",
          "name": "",
          "type": "string"
        }
      ],
      "stateMutability": "view",
      "type": "function"
    },
    {
      "inputs": [
        {
          "internalType": "uint256",
          "name": "",
          "type": "uint256"
        }
      ],
      "name": "totalSupply",
      "outputs": [
        {
          "internalType": "uint256",
          "name": "",
          "type": "uint256"
        }
      ],
      "stateMutability": "view",
      "type": "function"
    },
    {
      "inputs": [
        {
          "internalType": "uint256",
          "name": "_tokenId",
          "type": "uint256"
        }
      ],
      "name": "uri",
      "outputs": [
        {
          "internalType": "string",
          "name": "",
          "type": "string"
        }
      ],
      "stateMutability": "view",
      "type": "function"
    },
    {
      "inputs": [
        {
          "internalType": "uint256",
          "name": "_conditionId",
          "type": "uint256"
        },
        {
          "internalType": "address",
          "name": "_claimer",
          "type": "address"
        },
        {
          "internalType": "uint256",
          "name": "_tokenId",
          "type": "uint256"
        },
        {
          "internalType": "uint256",
          "name": "_quantity",
          "type": "uint256"
        },
        {
          "internalType": "address",
          "name": "_currency",
          "type": "address"
        },
        {
          "internalType": "uint256",
          "name": "_pricePerToken",
          "type": "uint256"
        },
        {
          "components": [
            {
              "internalType": "bytes32[]",
              "name": "proof",
              "type": "bytes32[]"
            },
            {
              "internalType": "uint256",
              "name": "quantityLimitPerWallet",
              "type": "uint256"
            },
            {
              "internalType": "uint256",
              "name": "pricePerToken",
              "type": "uint256"
            },
            {
              "internalType": "address",
              "name": "currency",
              "type": "address"
            }
          ],
          "internalType": "struct IDrop1155.AllowlistProof",
          "name": "_allowlistProof",
          "type": "tuple"
        }
      ],
      "name": "verifyClaim",
      "outputs": [
        {
          "internalType": "bool",
          "name": "isOverride",
          "type": "bool"
        }
      ],
      "stateMutability": "view",
      "type": "function"
    }
  ],
  "bytecode": "0x60806040523480156200001157600080fd5b50600054610100900460ff1615808015620000335750600054600160ff909116105b8062000063575062000050306200013d60201b6200245f1760201c565b15801562000063575060005460ff166001145b620000cb5760405162461bcd60e51b815260206004820152602e60248201527f496e697469616c697a61626c653a20636f6e747261637420697320616c72656160448201526d191e481a5b9a5d1a585b1a5e995960921b606482015260840160405180910390fd5b6000805460ff191660011790558015620000ef576000805461ff0019166101001790555b801562000136576000805461ff0019169055604051600181527f7f26b83ff96e1f2b6a682f133852f6798a09c465da95921460cefb38474024989060200160405180910390a15b506200014c565b6001600160a01b03163b151590565b615943806200015c6000396000f3fe6080604052600436106103345760003560e01c806387198cf2116101ab578063bd85b039116100f7578063d547741f11610095578063e9703d251161006f578063e9703d2514610a6d578063e985e9c514610ab6578063ea1def9c14610aff578063f242432a14610b1f57600080fd5b8063d547741f14610a18578063e159163414610a38578063e8a3d48514610a5857600080fd5b8063cb2ef6f7116100d1578063cb2ef6f71461097f578063d37c353b146109a0578063d45573f6146109c0578063d45b28d7146109eb57600080fd5b8063bd85b039146108fa578063c7337d6b14610928578063ca15c8731461095f57600080fd5b80639bcf7a1511610164578063a22cb4651161013e578063a22cb46514610862578063a32fa5b314610882578063ac9650d8146108a2578063b24f2d39146108cf57600080fd5b80639bcf7a1514610811578063a0a8e46014610831578063a217fddf1461084d57600080fd5b806387198cf21461075e5780638da5cb5b1461077e5780639010d07c1461079c57806391d14854146107bc578063938e3d7b146107dc57806395d89b41146107fc57600080fd5b80632eb2c2d61161028557806357bc3d7811610223578063600dd5ea116101fd578063600dd5ea146106e957806363b45e2d146107095780636b20c4541461071e5780636f4f28371461073e57600080fd5b806357bc3d78146106695780635811ddab1461067c5780635ab063e8146106c957600080fd5b80633b1475a71161025f5780633b1475a7146105ac5780634cc157df146105c15780634e1273f414610603578063572b6c051461063057600080fd5b80632eb2c2d61461054c5780632f2ff15d1461056c57806336568abe1461058c57600080fd5b8063183718d1116102f2578063248a9ca3116102cc578063248a9ca31461049257806324aaffaa146104bf57806329c49b9b146104ed5780632a55205a1461050d57600080fd5b8063183718d1146104325780631e7ac488146104525780632419f51b1461047257600080fd5b8062fdd58e1461033957806301ffc9a71461036c57806306fdde031461039c578063079fe40e146103be5780630e89341c146103f057806313af403514610410575b600080fd5b34801561034557600080fd5b50610359610354366004614497565b610b3f565b6040519081526020015b60405180910390f35b34801561037857600080fd5b5061038c6103873660046144d9565b610bda565b6040519015158152602001610363565b3480156103a857600080fd5b506103b1610c02565b604051610363919061454e565b3480156103ca57600080fd5b506005546001600160a01b03165b6040516001600160a01b039091168152602001610363565b3480156103fc57600080fd5b506103b161040b366004614561565b610c91565b34801561041c57600080fd5b5061043061042b36600461457a565b610cd2565b005b34801561043e57600080fd5b5061043061044d3660046145f0565b610d02565b34801561045e57600080fd5b5061043061046d366004614497565b611062565b34801561047e57600080fd5b5061035961048d366004614561565b611094565b34801561049e57600080fd5b506103596104ad366004614561565b6000908152600b602052604090205490565b3480156104cb57600080fd5b506103596104da366004614561565b61010d6020526000908152604090205481565b3480156104f957600080fd5b5061043061050836600461464e565b611102565b34801561051957600080fd5b5061052d61052836600461467e565b611174565b604080516001600160a01b039093168352602083019190915201610363565b34801561055857600080fd5b506104306105673660046147e9565b6111b1565b34801561057857600080fd5b5061043061058736600461464e565b61120f565b34801561059857600080fd5b506104306105a736600461464e565b6112a5565b3480156105b857600080fd5b50600954610359565b3480156105cd57600080fd5b506105e16105dc366004614561565b611307565b604080516001600160a01b03909316835261ffff909116602083015201610363565b34801561060f57600080fd5b5061062361061e366004614905565b611372565b60405161036391906149a3565b34801561063c57600080fd5b5061038c61064b36600461457a565b6001600160a01b031660009081526040602081905290205460ff1690565b6104306106773660046149c8565b61149b565b34801561068857600080fd5b50610359610697366004614a6d565b6000928352600d60209081526040808520938552600390930181528284206001600160a01b0390921684525290205490565b3480156106d557600080fd5b506103596106e4366004614561565b6115de565b3480156106f557600080fd5b50610430610704366004614497565b61168f565b34801561071557600080fd5b50600754610359565b34801561072a57600080fd5b50610430610739366004614aa6565b6116bd565b34801561074a57600080fd5b5061043061075936600461457a565b61175a565b34801561076a57600080fd5b5061043061077936600461467e565b611787565b34801561078a57600080fd5b506006546001600160a01b03166103d8565b3480156107a857600080fd5b506103d86107b736600461467e565b6117e4565b3480156107c857600080fd5b5061038c6107d736600461464e565b6118d3565b3480156107e857600080fd5b506104306107f7366004614b1b565b6118fe565b34801561080857600080fd5b506103b161192b565b34801561081d57600080fd5b5061043061082c366004614b4f565b611939565b34801561083d57600080fd5b5060405160048152602001610363565b34801561085957600080fd5b50610359600081565b34801561086e57600080fd5b5061043061087d366004614b87565b611968565b34801561088e57600080fd5b5061038c61089d36600461464e565b61197a565b3480156108ae57600080fd5b506108c26108bd366004614bb5565b6119d0565b6040516103639190614bf6565b3480156108db57600080fd5b506003546001600160a01b03811690600160a01b900461ffff166105e1565b34801561090657600080fd5b50610359610915366004614561565b61010c6020526000908152604090205481565b34801561093457600080fd5b506103d8610943366004614561565b61010e602052600090815260409020546001600160a01b031681565b34801561096b57600080fd5b5061035961097a366004614561565b611ac4565b34801561098b57600080fd5b506a44726f704552433131353560a81b610359565b3480156109ac57600080fd5b506103596109bb366004614c99565b611b4d565b3480156109cc57600080fd5b506002546001600160a01b03811690600160a01b900461ffff166105e1565b3480156109f757600080fd5b50610a0b610a0636600461467e565b611c57565b6040516103639190614d12565b348015610a2457600080fd5b50610430610a3336600461464e565b611dbe565b348015610a4457600080fd5b50610430610a53366004614d96565b611dd7565b348015610a6457600080fd5b506103b1611ff0565b348015610a7957600080fd5b50610aa1610a88366004614561565b600d602052600090815260409020805460019091015482565b60408051928352602083019190915201610363565b348015610ac257600080fd5b5061038c610ad1366004614ea8565b6001600160a01b03918216600090815260d76020908152604080832093909416825291909152205460ff1690565b348015610b0b57600080fd5b5061038c610b1a366004614ed6565b611ffd565b348015610b2b57600080fd5b50610430610b3a366004614f4f565b612408565b60006001600160a01b038316610baf5760405162461bcd60e51b815260206004820152602a60248201527f455243313135353a2061646472657373207a65726f206973206e6f742061207660448201526930b634b21037bbb732b960b11b60648201526084015b60405180910390fd5b50600081815260d6602090815260408083206001600160a01b03861684529091529020545b92915050565b6000610be58261246e565b80610bd45750506001600160e01b03191663152a902d60e11b1490565b6101088054610c1090614fb7565b80601f0160208091040260200160405190810160405280929190818152602001828054610c3c90614fb7565b8015610c895780601f10610c5e57610100808354040283529160200191610c89565b820191906000526020600020905b815481529060010190602001808311610c6c57829003601f168201915b505050505081565b60606000610c9e836124be565b905080610caa8461265a565b604051602001610cbb929190614fec565b604051602081830303815290604052915050919050565b610cda6126ee565b610cf65760405162461bcd60e51b8152600401610ba69061501b565b610cff81612701565b50565b610d0a6126ee565b610d265760405162461bcd60e51b8152600401610ba69061501b565b6000848152600d6020526040902080546001820154818415610d4f57610d4c8284615059565b90505b600184018690558084556000805b87811015610f0857801580610d955750888882818110610d7f57610d7f615071565b9050602002810190610d919190615087565b3582105b610dc65760405162461bcd60e51b815260206004820152600260248201526114d560f21b6044820152606401610ba6565b60006002870181610dd78487615059565b8152602001908152602001600020600201549050898983818110610dfd57610dfd615071565b9050602002810190610e0f9190615087565b60200135811115610e575760405162461bcd60e51b81526020600482015260126024820152711b585e081cdd5c1c1b1e4818db185a5b595960721b6044820152606401610ba6565b898983818110610e6957610e69615071565b9050602002810190610e7b9190615087565b600288016000610e8b8588615059565b81526020019081526020016000208181610ea591906151f2565b50819050600288016000610eb98588615059565b8152602081019190915260400160002060020155898983818110610edf57610edf615071565b9050602002810190610ef19190615087565b359250819050610f0081615270565b915050610d5d565b508515610f8a57835b82811015610f84576000818152600280880160205260408220828155600181018390559081018290556003810182905560048101829055600581018290556006810180546001600160a01b031916905590610f6f600783018261439f565b50508080610f7c90615270565b915050610f11565b5061101b565b8683111561101b57865b8381101561101957600286016000610fac8386615059565b81526020810191909152604001600090812081815560018101829055600281018290556003810182905560048101829055600581018290556006810180546001600160a01b031916905590611004600783018261439f565b5050808061101190615270565b915050610f94565b505b887f066f72a648b18490c0bc4ab07d508cdb5d6589fa188c63cfba1e0547f3a6556a89898960405161104f939291906152f9565b60405180910390a2505050505050505050565b61106a6126ee565b6110865760405162461bcd60e51b8152600401610ba69061501b565b6110908282612753565b5050565b600061109f60075490565b82106110dd5760405162461bcd60e51b815260206004820152600d60248201526c092dcecc2d8d2c840d2dcc8caf609b1b6044820152606401610ba6565b600782815481106110f0576110f0615071565b90600052602060002001549050919050565b600061110e81336127e1565b600083815261010e602090815260409182902080546001600160a01b0319166001600160a01b038616908117909155915191825284917f359479172ba65a6639b0df237f704e030498cb7135d5e89b56f598bd1d84b016910160405180910390a2505050565b60008060008061118386611307565b90945084925061ffff16905061271061119c82876153e1565b6111a69190615400565b925050509250929050565b6111b9612861565b6001600160a01b0316856001600160a01b031614806111df57506111df85610ad1612861565b6111fb5760405162461bcd60e51b8152600401610ba690615422565b611208858585858561286b565b5050505050565b6000828152600b602052604090205461122890336127e1565b6000828152600a602090815260408083206001600160a01b038516845290915290205460ff161561129b5760405162461bcd60e51b815260206004820152601d60248201527f43616e206f6e6c79206772616e7420746f206e6f6e20686f6c646572730000006044820152606401610ba6565b6110908282612a23565b336001600160a01b038216146112fd5760405162461bcd60e51b815260206004820152601a60248201527f43616e206f6e6c792072656e6f756e636520666f722073656c660000000000006044820152606401610ba6565b6110908282612a37565b6000818152600460209081526040808320815180830190925280546001600160a01b03168083526001909101549282019290925282911561134e5780516020820151611368565b6003546001600160a01b03811690600160a01b900461ffff165b9250925050915091565b606081518351146113d75760405162461bcd60e51b815260206004820152602960248201527f455243313135353a206163636f756e747320616e6420696473206c656e677468604482015268040dad2e6dac2e8c6d60bb1b6064820152608401610ba6565b600083516001600160401b038111156113f2576113f26146a0565b60405190808252806020026020018201604052801561141b578160200160208202803683370190505b50905060005b84518110156114935761146685828151811061143f5761143f615071565b602002602001015185838151811061145957611459615071565b6020026020010151610b3f565b82828151811061147857611478615071565b602090810291909101015261148c81615270565b9050611421565b509392505050565b6114aa86888787878787612a8e565b60006114b5876115de565b90506114cd816114c3612b25565b8989898989611ffd565b506000878152600d60209081526040808320848452600290810190925282200180548892906114fd908490615059565b90915550506000878152600d6020908152604080832084845260030190915281208791611528612b25565b6001600160a01b03166001600160a01b0316815260200190815260200160002060008282546115579190615059565b9091555061156b9050876000888888612b2f565b611576888888612c74565b876001600160a01b0316611588612b25565b6001600160a01b0316827ffa76a4010d9533e3e964f2930a65fb6042a12fa6ff5b08281837a10b0be7321e8a8a6040516115cc929190918252602082015260400190565b60405180910390a45050505050505050565b6000818152600d602052604081206001810154815483916115fe91615059565b90505b81548111156116585760028201600061161b600184615470565b81526020019081526020016000206000015442106116465761163e600182615470565b949350505050565b8061165081615487565b915050611601565b5060405162461bcd60e51b815260206004820152600b60248201526a10a1a7a72224aa24a7a71760a91b6044820152606401610ba6565b6116976126ee565b6116b35760405162461bcd60e51b8152600401610ba69061501b565b6110908282612c8f565b6116c5612861565b6001600160a01b0316836001600160a01b031614806116eb57506116eb83610ad1612861565b61174a5760405162461bcd60e51b815260206004820152602a60248201527f455243313135353a2063616c6c6572206973206e6f74206f776e6572206e6f726044820152691030b8383937bb32b21760b11b6064820152608401610ba6565b611755838383612d0c565b505050565b6117626126ee565b61177e5760405162461bcd60e51b8152600401610ba69061501b565b610cff81612f2c565b600061179381336127e1565b600083815261010d602090815260409182902084905581518581529081018490527fc58cd6132bb46df23d468939c03dd023b74b509aaa6b04c39d5a6461c65963bd910160405180910390a1505050565b6000828152600c602052604081205481805b828110156118ca576000868152600c602090815260408083208484526001019091529020546001600160a01b0316156118735784821415611861576000868152600c602090815260408083209383526001909301905220546001600160a01b03169250610bd4915050565b61186c600183615059565b91506118b8565b61187e8660006118d3565b80156118a557506000868152600c6020908152604080832083805260020190915290205481145b156118b8576118b5600183615059565b91505b6118c3600182615059565b90506117f6565b50505092915050565b6000918252600a602090815260408084206001600160a01b0393909316845291905290205460ff1690565b6119066126ee565b6119225760405162461bcd60e51b8152600401610ba69061501b565b610cff81612f76565b6101098054610c1090614fb7565b6119416126ee565b61195d5760405162461bcd60e51b8152600401610ba69061501b565b611755838383613058565b611090611973612861565b8383613100565b6000828152600a6020908152604080832083805290915281205460ff166119c757506000828152600a602090815260408083206001600160a01b038516845290915290205460ff16610bd4565b50600192915050565b6060816001600160401b038111156119ea576119ea6146a0565b604051908082528060200260200182016040528015611a1d57816020015b6060815260200190600190039081611a085790505b50905060005b82811015611abd57611a8d30858584818110611a4157611a41615071565b9050602002810190611a5391906150a7565b8080601f0160208091040260200160405190810160405280939291908181526020018383808284376000920191909152506131d992505050565b828281518110611a9f57611a9f615071565b60200260200101819052508080611ab590615270565b915050611a23565b5092915050565b6000818152600c6020526040812054815b81811015611b28576000848152600c602090815260408083208484526001019091529020546001600160a01b031615611b1657611b13600184615059565b92505b611b21600182615059565b9050611ad5565b50611b348360006118d3565b15611b4757611b44600183615059565b91505b50919050565b6000611b576132cd565b611b735760405162461bcd60e51b8152600401610ba69061501b565b85611ba85760405162461bcd60e51b81526020600482015260056024820152640c08185b5d60da1b6044820152606401610ba6565b60006009549050611bf0818888888080601f0160208091040260200160405190810160405280939291908181526020018383808284376000920191909152506132de92505050565b6009919091559150807f2a0365091ef1a40953c670dce28177e37520648a6fdc91506bffac0ab045570d6001611c268a84615059565b611c309190615470565b88888888604051611c4595949392919061549e565b60405180910390a25095945050505050565b611cab60405180610100016040528060008152602001600081526020016000815260200160008152602001600080191681526020016000815260200160006001600160a01b03168152602001606081525090565b6000838152600d6020908152604080832085845260029081018352928190208151610100810183528154815260018201549381019390935292830154908201526003820154606082015260048201546080820152600582015460a082015260068201546001600160a01b031660c082015260078201805491929160e084019190611d3490614fb7565b80601f0160208091040260200160405190810160405280929190818152602001828054611d6090614fb7565b8015611dad5780601f10611d8257610100808354040283529160200191611dad565b820191906000526020600020905b815481529060010190602001808311611d9057829003601f168201915b505050505081525050905092915050565b6000828152600b60205260409020546112fd90336127e1565b600054610100900460ff1615808015611df75750600054600160ff909116105b80611e115750303b158015611e11575060005460ff166001145b611e745760405162461bcd60e51b815260206004820152602e60248201527f496e697469616c697a61626c653a20636f6e747261637420697320616c72656160448201526d191e481a5b9a5d1a585b1a5e995960921b6064820152608401610ba6565b6000805460ff191660011790558015611e97576000805461ff0019166101001790555b7f8502233096d909befbda0999bb8ea2f3a6be3c138b9fbf003752a4c8bce86f6c7f9f2df0fed2c77648de5860a4cc508cd0818c85b8b8a1ab4ceeef8d981c8956a6611ee28961334b565b611efa60405180602001604052806000815250613383565b611f038a612f76565b611f0c8d612701565b611f1760008e612a23565b611f21818e612a23565b611f2b828e612a23565b611f36826000612a23565b611f4984866001600160801b0316612753565b611f5c87876001600160801b0316612c8f565b611f6588612f2c565b61010a82905561010b8190558b51611f85906101089060208f01906143d9565b508a51611f9a906101099060208e01906143d9565b5050508015611fe3576000805461ff0019169055604051600181527f7f26b83ff96e1f2b6a682f133852f6798a09c465da95921460cefb38474024989060200160405180910390a15b5050505050505050505050565b60018054610c1090614fb7565b6000858152600d602090815260408083208a8452600290810183528184208251610100810184528154815260018201549481019490945290810154918301919091526003810154606083015260048101546080830152600581015460a083015260068101546001600160a01b031660c08301526007810180548493929160e084019161208890614fb7565b80601f01602080910402602001604051908101604052809291908181526020018280546120b490614fb7565b80156121015780601f106120d657610100808354040283529160200191612101565b820191906000526020600020905b8154815290600101906020018083116120e457829003601f168201915b50505091909252505050606081015160a082015160c083015160808401519394509192909190156121e6576121e261213987806154d7565b80806020026020016040519081016040528093929190818152602001838360200280828437600092019190915250505060808088015191508e9060208b01359060408c01359061218e908d0160608e0161457a565b6040516bffffffffffffffffffffffff19606095861b811660208301526034820194909452605481019290925290921b166074820152608801604051602081830303815290604052805190602001206133b3565b5094505b841561226b5760208601356121fb5782612201565b85602001355b925060001986604001351415612217578161221d565b85604001355b915060001986604001351415801561224e57506000612242608088016060890161457a565b6001600160a01b031614155b6122585780612268565b612268608087016060880161457a565b90505b6000600d60008c815260200190815260200160002060030160008e815260200190815260200160002060008d6001600160a01b03166001600160a01b03168152602001908152602001600020549050816001600160a01b0316896001600160a01b03161415806122db5750828814155b1561231b5760405162461bcd60e51b815260206004820152601060248201526f2150726963654f7243757272656e637960801b6044820152606401610ba6565b89158061233057508361232e828c615059565b115b156123665760405162461bcd60e51b8152600401610ba6906020808252600490820152632151747960e01b604082015260600190565b84602001518a866040015161237b9190615059565b11156123b65760405162461bcd60e51b815260206004820152600a602482015269214d6178537570706c7960b01b6044820152606401610ba6565b84514210156123f85760405162461bcd60e51b815260206004820152600e60248201526d18d85b9d0818db185a5b481e595d60921b6044820152606401610ba6565b5050505050979650505050505050565b612410612861565b6001600160a01b0316856001600160a01b03161480612436575061243685610ad1612861565b6124525760405162461bcd60e51b8152600401610ba690615422565b6112088585858585613481565b6001600160a01b03163b151590565b60006001600160e01b03198216636cdb3d1360e11b148061249f57506001600160e01b031982166303a24d0760e21b145b80610bd457506301ffc9a760e01b6001600160e01b0319831614610bd4565b606060006124cb60075490565b90506000600780548060200260200160405190810160405280929190818152602001828054801561251b57602002820191906000526020600020905b815481526020019060010190808311612507575b5050505050905060005b8281101561261f5781818151811061253f5761253f615071565b602002602001015185101561260d576008600083838151811061256457612564615071565b60200260200101518152602001908152602001600020805461258590614fb7565b80601f01602080910402602001604051908101604052809291908181526020018280546125b190614fb7565b80156125fe5780601f106125d3576101008083540402835291602001916125fe565b820191906000526020600020905b8154815290600101906020018083116125e157829003601f168201915b50505050509350505050919050565b612618600182615059565b9050612525565b5060405162461bcd60e51b815260206004820152600f60248201526e125b9d985b1a59081d1bdad95b9259608a1b6044820152606401610ba6565b60606000612667836135c8565b60010190506000816001600160401b03811115612686576126866146a0565b6040519080825280601f01601f1916602001820160405280156126b0576020820181803683370190505b5090508181016020015b600019016f181899199a1a9b1b9c1cb0b131b232b360811b600a86061a8153600a85049450846126e957611493565b6126ba565b60006126fc816107d7612861565b905090565b600680546001600160a01b038381166001600160a01b0319831681179093556040519116919082907f8292fce18fa69edf4db7b94ea2e58241df0ae57f97e0a6c9b29067028bf92d7690600090a35050565b6127108111156127755760405162461bcd60e51b8152600401610ba690615520565b600280546001600160b01b031916600160a01b61ffff8416026001600160a01b031916176001600160a01b0384169081179091556040518281527fe2497bd806ec41a6e0dd992c29a72efc0ef8fec9092d1978fd4a1e00b2f18304906020015b60405180910390a25050565b6000828152600a602090815260408083206001600160a01b038516845290915290205460ff166110905761281f816001600160a01b031660146136a0565b61282a8360206136a0565b60405160200161283b929190615549565b60408051601f198184030181529082905262461bcd60e51b8252610ba69160040161454e565b60006126fc613842565b815183511461288c5760405162461bcd60e51b8152600401610ba6906155b6565b6001600160a01b0384166128b25760405162461bcd60e51b8152600401610ba6906155fe565b60006128bc612861565b90506128cc81878787878761386f565b60005b84518110156129b55760008582815181106128ec576128ec615071565b60200260200101519050600085838151811061290a5761290a615071565b602090810291909101810151600084815260d6835260408082206001600160a01b038e16835290935291909120549091508181101561295b5760405162461bcd60e51b8152600401610ba690615643565b600083815260d6602090815260408083206001600160a01b038e8116855292528083208585039055908b1682528120805484929061299a908490615059565b92505081905550505050806129ae90615270565b90506128cf565b50846001600160a01b0316866001600160a01b0316826001600160a01b03167f4a39dc06d4c0dbc64b70af90fd698a233a518aa5d07e595d983b8c0526c8f7fb8787604051612a0592919061568d565b60405180910390a4612a1b818787878787613a31565b505050505050565b612a2d8282613b8d565b6110908282613be8565b612a418282613c55565b6000828152600c602090815260408083206001600160a01b03851680855260028201808552838620805487526001909301855292852080546001600160a01b031916905584529152555050565b600087815261010d60205260409020541580612ad05750600087815261010d602090815260408083205461010c90925290912054612acd908790615059565b11155b612b1c5760405162461bcd60e51b815260206004820152601760248201527f657863656564206d617820746f74616c20737570706c790000000000000000006044820152606401610ba6565b50505050505050565b60006126fc612861565b80612b3957611208565b6002546001600160a01b0380821691600160a01b900461ffff1690600090871615612b645786612bad565b600088815261010e60205260409020546001600160a01b031615612ba057600088815261010e60205260409020546001600160a01b0316612bad565b6005546001600160a01b03165b90506000612bbb85886153e1565b90506000612710612bd061ffff8616846153e1565b612bda9190615400565b90506001600160a01b03871673eeeeeeeeeeeeeeeeeeeeeeeeeeeeeeeeeeeeeeee1415612c3957813414612c395760405162461bcd60e51b815260206004820152600660248201526521507269636560d01b6044820152606401610ba6565b612c4c87612c45612861565b8784613cb7565b612c6887612c58612861565b85612c638587615470565b613cb7565b50505050505050505050565b61175583838360405180602001604052806000815250613d01565b612710811115612cb15760405162461bcd60e51b8152600401610ba690615520565b600380546001600160a01b0384166001600160b01b03199091168117600160a01b61ffff851602179091556040518281527f90d7ec04bcb8978719414f82e52e4cb651db41d0e6f8cea6118c2191e6183adb906020016127d5565b6001600160a01b038316612d6e5760405162461bcd60e51b815260206004820152602360248201527f455243313135353a206275726e2066726f6d20746865207a65726f206164647260448201526265737360e81b6064820152608401610ba6565b8051825114612d8f5760405162461bcd60e51b8152600401610ba6906155b6565b6000612d99612861565b9050612db98185600086866040518060200160405280600081525061386f565b60005b8351811015612ebd576000848281518110612dd957612dd9615071565b602002602001015190506000848381518110612df757612df7615071565b602090810291909101810151600084815260d6835260408082206001600160a01b038c168352909352919091205490915081811015612e845760405162461bcd60e51b8152602060048201526024808201527f455243313135353a206275726e20616d6f756e7420657863656564732062616c604482015263616e636560e01b6064820152608401610ba6565b600092835260d6602090815260408085206001600160a01b038b1686529091529092209103905580612eb581615270565b915050612dbc565b5060006001600160a01b0316846001600160a01b0316826001600160a01b03167f4a39dc06d4c0dbc64b70af90fd698a233a518aa5d07e595d983b8c0526c8f7fb8686604051612f0e92919061568d565b60405180910390a46040805160208101909152600090525b50505050565b600580546001600160a01b0319166001600160a01b0383169081179091556040517f299d17e95023f496e0ffc4909cff1a61f74bb5eb18de6f900f4155bfa1b3b33390600090a250565b600060018054612f8590614fb7565b80601f0160208091040260200160405190810160405280929190818152602001828054612fb190614fb7565b8015612ffe5780601f10612fd357610100808354040283529160200191612ffe565b820191906000526020600020905b815481529060010190602001808311612fe157829003601f168201915b5050855193945061301a936001935060208701925090506143d9565b507fc9c7c3fe08b88b4df9d4d47ef47d2c43d55c025a0ba88ca442580ed9e7348a16818360405161304c9291906156b2565b60405180910390a15050565b61271081111561307a5760405162461bcd60e51b8152600401610ba690615520565b6040805180820182526001600160a01b038481168083526020808401868152600089815260048352869020945185546001600160a01b031916941693909317845591516001909301929092559151838152909185917f7365cf4122f072a3365c20d54eff9b38d73c096c28e1892ec8f5b0e403a0f12d91015b60405180910390a3505050565b816001600160a01b0316836001600160a01b031614156131745760405162461bcd60e51b815260206004820152602960248201527f455243313135353a2073657474696e6720617070726f76616c20737461747573604482015268103337b91039b2b63360b91b6064820152608401610ba6565b6001600160a01b03838116600081815260d76020908152604080832094871680845294825291829020805460ff191686151590811790915591519182527f17307eab39ab6107e8899845ad3d59bd9653f200f220920489ca2b5937696c3191016130f3565b60606001600160a01b0383163b6132415760405162461bcd60e51b815260206004820152602660248201527f416464726573733a2064656c65676174652063616c6c20746f206e6f6e2d636f6044820152651b9d1c9858dd60d21b6064820152608401610ba6565b600080846001600160a01b03168460405161325c91906156d7565b600060405180830381855af49150503d8060008114613297576040519150601f19603f3d011682016040523d82523d6000602084013e61329c565b606091505b50915091506132c482826040518060600160405280602781526020016158e760279139613e28565b95945050505050565b60006126fc61010b546107d7612861565b6000806132eb8486615059565b60078054600181019091557fa66cc928b5edb82af9bd49922954155ab7b0942694bea4ce44661d9a8736c68801819055600081815260086020908152604090912085519294508493506133429290918601906143d9565b50935093915050565b600054610100900460ff166133725760405162461bcd60e51b8152600401610ba6906156e9565b61337a613e41565b610cff81613e6a565b600054610100900460ff166133aa5760405162461bcd60e51b8152600401610ba6906156e9565b610cff81613ef9565b6000808281805b8751811015613475576133ce6002836153e1565b915060008882815181106133e4576133e4615071565b60200260200101519050808411613426576040805160208101869052908101829052606001604051602081830303815290604052805190602001209350613462565b604080516020810183905290810185905260600160405160208183030381529060405280519060200120935060018361345f9190615059565b92505b508061346d81615270565b9150506133ba565b50941495939450505050565b6001600160a01b0384166134a75760405162461bcd60e51b8152600401610ba6906155fe565b60006134b1612861565b905060006134be85613f0c565b905060006134cb85613f0c565b90506134db83898985858961386f565b600086815260d6602090815260408083206001600160a01b038c1684529091529020548581101561351e5760405162461bcd60e51b8152600401610ba690615643565b600087815260d6602090815260408083206001600160a01b038d8116855292528083208985039055908a1682528120805488929061355d908490615059565b909155505060408051888152602081018890526001600160a01b03808b16928c821692918816917fc3d58168c5ae7397731d063d5bbf3d657854427343f4c083240f7aacaa2d0f62910160405180910390a46135bd848a8a8a8a8a613f57565b505050505050505050565b60008072184f03e93ff9f4daa797ed6e38ed64bf6a1f0160401b83106136075772184f03e93ff9f4daa797ed6e38ed64bf6a1f0160401b830492506040015b6d04ee2d6d415b85acef81000000008310613633576d04ee2d6d415b85acef8100000000830492506020015b662386f26fc10000831061365157662386f26fc10000830492506010015b6305f5e1008310613669576305f5e100830492506008015b612710831061367d57612710830492506004015b6064831061368f576064830492506002015b600a8310610bd45760010192915050565b606060006136af8360026153e1565b6136ba906002615059565b6001600160401b038111156136d1576136d16146a0565b6040519080825280601f01601f1916602001820160405280156136fb576020820181803683370190505b509050600360fc1b8160008151811061371657613716615071565b60200101906001600160f81b031916908160001a905350600f60fb1b8160018151811061374557613745615071565b60200101906001600160f81b031916908160001a90535060006137698460026153e1565b613774906001615059565b90505b60018111156137ec576f181899199a1a9b1b9c1cb0b131b232b360811b85600f16601081106137a8576137a8615071565b1a60f81b8282815181106137be576137be615071565b60200101906001600160f81b031916908160001a90535060049490941c936137e581615487565b9050613777565b50831561383b5760405162461bcd60e51b815260206004820181905260248201527f537472696e67733a20686578206c656e67746820696e73756666696369656e746044820152606401610ba6565b9392505050565b3360009081526040602081905281205460ff1615613867575060131936013560601c90565b503390565b90565b61387d61010a5460006118d3565b15801561389257506001600160a01b03851615155b80156138a657506001600160a01b03841615155b15613923576138b861010a54866118d3565b806138cb57506138cb61010a54856118d3565b6139235760405162461bcd60e51b8152602060048201526024808201527f7265737472696374656420746f205452414e534645525f524f4c4520686f6c6460448201526332b9399760e11b6064820152608401610ba6565b6001600160a01b0385166139ab5760005b83518110156139a95782818151811061394f5761394f615071565b602002602001015161010c600086848151811061396e5761396e615071565b6020026020010151815260200190815260200160002060008282546139939190615059565b909155506139a2905081615270565b9050613934565b505b6001600160a01b038416612a1b5760005b8351811015612b1c578281815181106139d7576139d7615071565b602002602001015161010c60008684815181106139f6576139f6615071565b602002602001015181526020019081526020016000206000828254613a1b9190615470565b90915550613a2a905081615270565b90506139bc565b6001600160a01b0384163b15612a1b5760405163bc197c8160e01b81526001600160a01b0385169063bc197c8190613a759089908990889088908890600401615734565b6020604051808303816000875af1925050508015613ab0575060408051601f3d908101601f19168201909252613aad91810190615786565b60015b613b5d57613abc6157a3565b806308c379a01415613af65750613ad16157be565b80613adc5750613af8565b8060405162461bcd60e51b8152600401610ba6919061454e565b505b60405162461bcd60e51b815260206004820152603460248201527f455243313135353a207472616e7366657220746f206e6f6e2d455243313135356044820152732932b1b2b4bb32b91034b6b83632b6b2b73a32b960611b6064820152608401610ba6565b6001600160e01b0319811663bc197c8160e01b14612b1c5760405162461bcd60e51b8152600401610ba690615847565b6000828152600a602090815260408083206001600160a01b0385168085529252808320805460ff1916600117905551339285917f2f8788117e7eff1d82e926ec794901d17c78024a50270940304540a733656f0d9190a45050565b6000828152600c6020526040812080549160019190613c078385615059565b90915550506000928352600c6020908152604080852083865260018101835281862080546001600160a01b039096166001600160a01b03199096168617905593855260029093019052912055565b613c5f82826127e1565b6000828152600a602090815260408083206001600160a01b0385168085529252808320805460ff1916905551339285917ff6391f5c32d9c69d2a47ea670b442974b53935d1edc7fd64eb21e047a839171b9190a45050565b80613cc157612f26565b6001600160a01b03841673eeeeeeeeeeeeeeeeeeeeeeeeeeeeeeeeeeeeeeee1415613cf557613cf08282614012565b612f26565b612f26848484846140b5565b6001600160a01b038416613d615760405162461bcd60e51b815260206004820152602160248201527f455243313135353a206d696e7420746f20746865207a65726f206164647265736044820152607360f81b6064820152608401610ba6565b6000613d6b612861565b90506000613d7885613f0c565b90506000613d8585613f0c565b9050613d968360008985858961386f565b600086815260d6602090815260408083206001600160a01b038b16845290915281208054879290613dc8908490615059565b909155505060408051878152602081018790526001600160a01b03808a1692600092918716917fc3d58168c5ae7397731d063d5bbf3d657854427343f4c083240f7aacaa2d0f62910160405180910390a4612b1c83600089898989613f57565b60608315613e3757508161383b565b61383b838361410e565b600054610100900460ff16613e685760405162461bcd60e51b8152600401610ba6906156e9565b565b600054610100900460ff16613e915760405162461bcd60e51b8152600401610ba6906156e9565b60005b815181101561109057600160406000848481518110613eb557613eb5615071565b6020908102919091018101516001600160a01b03168252810191909152604001600020805460ff191691151591909117905580613ef181615270565b915050613e94565b80516110909060d89060208401906143d9565b60408051600180825281830190925260609160009190602080830190803683370190505090508281600081518110613f4657613f46615071565b602090810291909101015292915050565b6001600160a01b0384163b15612a1b5760405163f23a6e6160e01b81526001600160a01b0385169063f23a6e6190613f9b908990899088908890889060040161588f565b6020604051808303816000875af1925050508015613fd6575060408051601f3d908101601f19168201909252613fd391810190615786565b60015b613fe257613abc6157a3565b6001600160e01b0319811663f23a6e6160e01b14612b1c5760405162461bcd60e51b8152600401610ba690615847565b6000826001600160a01b03168260405160006040518083038185875af1925050503d806000811461405f576040519150601f19603f3d011682016040523d82523d6000602084013e614064565b606091505b50509050806117555760405162461bcd60e51b815260206004820152601c60248201527f6e617469766520746f6b656e207472616e73666572206661696c6564000000006044820152606401610ba6565b816001600160a01b0316836001600160a01b031614156140d457612f26565b6001600160a01b0383163014156140f957613cf06001600160a01b038516838361411e565b612f266001600160a01b038516848484614181565b815115613adc5781518083602001fd5b6040516001600160a01b03831660248201526044810182905261175590849063a9059cbb60e01b906064015b60408051601f198184030181529190526020810180516001600160e01b03166001600160e01b0319909316929092179091526141b9565b6040516001600160a01b0380851660248301528316604482015260648101829052612f269085906323b872dd60e01b9060840161414a565b600061420e826040518060400160405280602081526020017f5361666545524332303a206c6f772d6c6576656c2063616c6c206661696c6564815250856001600160a01b031661428b9092919063ffffffff16565b805190915015611755578080602001905181019061422c91906158c9565b6117555760405162461bcd60e51b815260206004820152602a60248201527f5361666545524332303a204552433230206f7065726174696f6e20646964206e6044820152691bdd081cdd58d8d9595960b21b6064820152608401610ba6565b606061163e8484600085856001600160a01b0385163b6142ed5760405162461bcd60e51b815260206004820152601d60248201527f416464726573733a2063616c6c20746f206e6f6e2d636f6e74726163740000006044820152606401610ba6565b600080866001600160a01b0316858760405161430991906156d7565b60006040518083038185875af1925050503d8060008114614346576040519150601f19603f3d011682016040523d82523d6000602084013e61434b565b606091505b509150915061435b828286614366565b979650505050505050565b6060831561437557508161383b565b8251156143855782518084602001fd5b8160405162461bcd60e51b8152600401610ba6919061454e565b5080546143ab90614fb7565b6000825580601f106143bb575050565b601f016020900490600052602060002090810190610cff919061445d565b8280546143e590614fb7565b90600052602060002090601f016020900481019282614407576000855561444d565b82601f1061442057805160ff191683800117855561444d565b8280016001018555821561444d579182015b8281111561444d578251825591602001919060010190614432565b5061445992915061445d565b5090565b5b80821115614459576000815560010161445e565b6001600160a01b0381168114610cff57600080fd5b803561449281614472565b919050565b600080604083850312156144aa57600080fd5b82356144b581614472565b946020939093013593505050565b6001600160e01b031981168114610cff57600080fd5b6000602082840312156144eb57600080fd5b813561383b816144c3565b60005b838110156145115781810151838201526020016144f9565b83811115612f265750506000910152565b6000815180845261453a8160208601602086016144f6565b601f01601f19169290920160200192915050565b60208152600061383b6020830184614522565b60006020828403121561457357600080fd5b5035919050565b60006020828403121561458c57600080fd5b813561383b81614472565b60008083601f8401126145a957600080fd5b5081356001600160401b038111156145c057600080fd5b6020830191508360208260051b85010111156145db57600080fd5b9250929050565b8015158114610cff57600080fd5b6000806000806060858703121561460657600080fd5b8435935060208501356001600160401b0381111561462357600080fd5b61462f87828801614597565b9094509250506040850135614643816145e2565b939692955090935050565b6000806040838503121561466157600080fd5b82359150602083013561467381614472565b809150509250929050565b6000806040838503121561469157600080fd5b50508035926020909101359150565b634e487b7160e01b600052604160045260246000fd5b601f8201601f191681016001600160401b03811182821017156146db576146db6146a0565b6040525050565b60006001600160401b038211156146fb576146fb6146a0565b5060051b60200190565b600082601f83011261471657600080fd5b81356020614723826146e2565b60405161473082826146b6565b83815260059390931b850182019282810191508684111561475057600080fd5b8286015b8481101561476b5780358352918301918301614754565b509695505050505050565b600082601f83011261478757600080fd5b81356001600160401b038111156147a0576147a06146a0565b6040516147b7601f8301601f1916602001826146b6565b8181528460208386010111156147cc57600080fd5b816020850160208301376000918101602001919091529392505050565b600080600080600060a0868803121561480157600080fd5b853561480c81614472565b9450602086013561481c81614472565b935060408601356001600160401b038082111561483857600080fd5b61484489838a01614705565b9450606088013591508082111561485a57600080fd5b61486689838a01614705565b9350608088013591508082111561487c57600080fd5b5061488988828901614776565b9150509295509295909350565b600082601f8301126148a757600080fd5b813560206148b4826146e2565b6040516148c182826146b6565b83815260059390931b85018201928281019150868411156148e157600080fd5b8286015b8481101561476b5780356148f881614472565b83529183019183016148e5565b6000806040838503121561491857600080fd5b82356001600160401b038082111561492f57600080fd5b61493b86838701614896565b9350602085013591508082111561495157600080fd5b5061495e85828601614705565b9150509250929050565b600081518084526020808501945080840160005b838110156149985781518752958201959082019060010161497c565b509495945050505050565b60208152600061383b6020830184614968565b600060808284031215611b4757600080fd5b600080600080600080600060e0888a0312156149e357600080fd5b87356149ee81614472565b965060208801359550604088013594506060880135614a0c81614472565b93506080880135925060a08801356001600160401b0380821115614a2f57600080fd5b614a3b8b838c016149b6565b935060c08a0135915080821115614a5157600080fd5b50614a5e8a828b01614776565b91505092959891949750929550565b600080600060608486031215614a8257600080fd5b83359250602084013591506040840135614a9b81614472565b809150509250925092565b600080600060608486031215614abb57600080fd5b8335614ac681614472565b925060208401356001600160401b0380821115614ae257600080fd5b614aee87838801614705565b93506040860135915080821115614b0457600080fd5b50614b1186828701614705565b9150509250925092565b600060208284031215614b2d57600080fd5b81356001600160401b03811115614b4357600080fd5b61163e84828501614776565b600080600060608486031215614b6457600080fd5b833592506020840135614b7681614472565b929592945050506040919091013590565b60008060408385031215614b9a57600080fd5b8235614ba581614472565b91506020830135614673816145e2565b60008060208385031215614bc857600080fd5b82356001600160401b03811115614bde57600080fd5b614bea85828601614597565b90969095509350505050565b6000602080830181845280855180835260408601915060408160051b870101925083870160005b82811015614c4b57603f19888603018452614c39858351614522565b94509285019290850190600101614c1d565b5092979650505050505050565b60008083601f840112614c6a57600080fd5b5081356001600160401b03811115614c8157600080fd5b6020830191508360208285010111156145db57600080fd5b600080600080600060608688031215614cb157600080fd5b8535945060208601356001600160401b0380821115614ccf57600080fd5b614cdb89838a01614c58565b90965094506040880135915080821115614cf457600080fd5b50614d0188828901614c58565b969995985093965092949392505050565b6020815281516020820152602082015160408201526040820151606082015260608201516080820152608082015160a082015260a082015160c082015260018060a01b0360c08301511660e0820152600060e083015161010080818501525061163e610120840182614522565b80356001600160801b038116811461449257600080fd5b6000806000806000806000806000806101408b8d031215614db657600080fd5b614dbf8b614487565b995060208b01356001600160401b0380821115614ddb57600080fd5b614de78e838f01614776565b9a5060408d0135915080821115614dfd57600080fd5b614e098e838f01614776565b995060608d0135915080821115614e1f57600080fd5b614e2b8e838f01614776565b985060808d0135915080821115614e4157600080fd5b50614e4e8d828e01614896565b965050614e5d60a08c01614487565b9450614e6b60c08c01614487565b9350614e7960e08c01614d7f565b9250614e886101008c01614d7f565b9150614e976101208c01614487565b90509295989b9194979a5092959850565b60008060408385031215614ebb57600080fd5b8235614ec681614472565b9150602083013561467381614472565b600080600080600080600060e0888a031215614ef157600080fd5b873596506020880135614f0381614472565b955060408801359450606088013593506080880135614f2181614472565b925060a0880135915060c08801356001600160401b03811115614f4357600080fd5b614a5e8a828b016149b6565b600080600080600060a08688031215614f6757600080fd5b8535614f7281614472565b94506020860135614f8281614472565b9350604086013592506060860135915060808601356001600160401b03811115614fab57600080fd5b61488988828901614776565b600181811c90821680614fcb57607f821691505b60208210811415611b4757634e487b7160e01b600052602260045260246000fd5b60008351614ffe8184602088016144f6565b8351908301906150128183602088016144f6565b01949350505050565b6020808252600e908201526d139bdd08185d5d1a1bdc9a5e995960921b604082015260600190565b634e487b7160e01b600052601160045260246000fd5b6000821982111561506c5761506c615043565b500190565b634e487b7160e01b600052603260045260246000fd5b6000823560fe1983360301811261509d57600080fd5b9190910192915050565b6000808335601e198436030181126150be57600080fd5b8301803591506001600160401b038211156150d857600080fd5b6020019150368190038213156145db57600080fd5b601f82111561175557600081815260208120601f850160051c810160208610156151145750805b601f850160051c820191505b81811015612a1b57828155600101615120565b6001600160401b0383111561514a5761514a6146a0565b61515e836151588354614fb7565b836150ed565b6000601f841160018114615192576000851561517a5750838201355b600019600387901b1c1916600186901b178355611208565b600083815260209020601f19861690835b828110156151c357868501358255602094850194600190920191016151a3565b50868210156151e05760001960f88860031b161c19848701351681555b505060018560011b0183555050505050565b813581556020820135600182015560408201356002820155606082013560038201556080820135600482015560a082013560058201556006810160c083013561523a81614472565b81546001600160a01b0319166001600160a01b039190911617905561526260e08301836150a7565b612f26818360078601615133565b600060001982141561528457615284615043565b5060010190565b6000808335601e198436030181126152a257600080fd5b83016020810192503590506001600160401b038111156152c157600080fd5b8036038313156145db57600080fd5b81835281816020850137506000828201602090810191909152601f909101601f19169091010190565b60408082528181018490526000906060808401600587901b850182018885805b8a8110156153cb57888403605f190185528235368d900360fe1901811261533e578283fd5b8c018035855260208082013581870152888201358987015287820135888701526080808301359087015260a080830135908701526101009060c08084013561538581614472565b6001600160a01b03169088015260e06153a08482018561528b565b945083828a01526153b4848a0186836152d0565b998301999850505094909401935050600101615319565b5050508615156020870152935061163e92505050565b60008160001904831182151516156153fb576153fb615043565b500290565b60008261541d57634e487b7160e01b600052601260045260246000fd5b500490565b6020808252602e908201527f455243313135353a2063616c6c6572206973206e6f7420746f6b656e206f776e60408201526d195c881bdc88185c1c1c9bdd995960921b606082015260800190565b60008282101561548257615482615043565b500390565b60008161549657615496615043565b506000190190565b8581526060602082015260006154b86060830186886152d0565b82810360408401526154cb8185876152d0565b98975050505050505050565b6000808335601e198436030181126154ee57600080fd5b8301803591506001600160401b0382111561550857600080fd5b6020019150600581901b36038213156145db57600080fd5b6020808252600f908201526e45786365656473206d61782062707360881b604082015260600190565b7402832b936b4b9b9b4b7b7399d1030b1b1b7bab73a1605d1b8152600083516155798160158501602088016144f6565b7001034b99036b4b9b9b4b733903937b6329607d1b60159184019182015283516155aa8160268401602088016144f6565b01602601949350505050565b60208082526028908201527f455243313135353a2069647320616e6420616d6f756e7473206c656e677468206040820152670dad2e6dac2e8c6d60c31b606082015260800190565b60208082526025908201527f455243313135353a207472616e7366657220746f20746865207a65726f206164604082015264647265737360d81b606082015260800190565b6020808252602a908201527f455243313135353a20696e73756666696369656e742062616c616e636520666f60408201526939103a3930b739b332b960b11b606082015260800190565b6040815260006156a06040830185614968565b82810360208401526132c48185614968565b6040815260006156c56040830185614522565b82810360208401526132c48185614522565b6000825161509d8184602087016144f6565b6020808252602b908201527f496e697469616c697a61626c653a20636f6e7472616374206973206e6f74206960408201526a6e697469616c697a696e6760a81b606082015260800190565b6001600160a01b0386811682528516602082015260a06040820181905260009061576090830186614968565b82810360608401526157728186614968565b905082810360808401526154cb8185614522565b60006020828403121561579857600080fd5b815161383b816144c3565b600060033d111561386c5760046000803e5060005160e01c90565b600060443d10156157cc5790565b6040516003193d81016004833e81513d6001600160401b0381602484011181841117156157fb57505050505090565b82850191508151818111156158135750505050505090565b843d870101602082850101111561582d5750505050505090565b61583c602082860101876146b6565b509095945050505050565b60208082526028908201527f455243313135353a204552433131353552656365697665722072656a656374656040820152676420746f6b656e7360c01b606082015260800190565b6001600160a01b03868116825285166020820152604081018490526060810183905260a06080820181905260009061435b90830184614522565b6000602082840312156158db57600080fd5b815161383b816145e256fe416464726573733a206c6f772d6c6576656c2064656c65676174652063616c6c206661696c6564a26469706673582212207ccbac7f09aea4bbdca139f56215bf943f70852824c6841d6354af76d97b547a64736f6c634300080b0033",
  "linkReferences": {},
  "deployedLinkReferences": {}
}